{"@oasisprotocol/sapphire-contracts/contracts/opl/Endpoint.sol":{"BaseEndpoint":{"abi":[{"inputs":[{"internalType":"address","name":"_remote","type":"address"},{"internalType":"uint256","name":"_remoteChainId","type":"uint256"},{"internalType":"address","name":"_messageBus","type":"address"},{"internalType":"bool","name":"_inOrder","type":"bool"}],"stateMutability":"nonpayable","type":"constructor"},{"inputs":[],"name":"MissingRemoteAddr","type":"error"},{"inputs":[],"name":"MissingRemoteChainId","type":"error"},{"inputs":[],"name":"SelfCallDisallowed","type":"error"},{"inputs":[{"internalType":"address","name":"_sender","type":"address"},{"internalType":"uint64","name":"_senderChainId","type":"uint64"},{"internalType":"bytes","name":"_message","type":"bytes"},{"internalType":"address","name":"","type":"address"}],"name":"executeMessage","outputs":[{"internalType":"uint256","name":"","type":"uint256"}],"stateMutability":"payable","type":"function"}],"evm":{"bytecode":{"linkReferences":{},"object":"60c06040523480156200001157600080fd5b5060405162000cd838038062000cd883398181016040528101906200003791906200030a565b600073ffffffffffffffffffffffffffffffffffffffff168473ffffffffffffffffffffffffffffffffffffffff1614156200009f576040517f5f9997df00000000000000000000000000000000000000000000000000000000815260040160405180910390fd5b6000831415620000db576040517fa9e2223000000000000000000000000000000000000000000000000000000000815260040160405180910390fd5b836000806101000a81548173ffffffffffffffffffffffffffffffffffffffff021916908373ffffffffffffffffffffffffffffffffffffffff160217905550826001819055508173ffffffffffffffffffffffffffffffffffffffff1660808173ffffffffffffffffffffffffffffffffffffffff168152505080151560a08115158152505062000172620001c160201b60201c565b1580156200017f57504683145b15620001b7576040517fdbf02d7c00000000000000000000000000000000000000000000000000000000815260040160405180910390fd5b505050506200037c565b60008060009054906101000a900473ffffffffffffffffffffffffffffffffffffffff1673ffffffffffffffffffffffffffffffffffffffff1660805173ffffffffffffffffffffffffffffffffffffffff1614801562000223575060015446145b905090565b600080fd5b600073ffffffffffffffffffffffffffffffffffffffff82169050919050565b60006200025a826200022d565b9050919050565b6200026c816200024d565b81146200027857600080fd5b50565b6000815190506200028c8162000261565b92915050565b6000819050919050565b620002a78162000292565b8114620002b357600080fd5b50565b600081519050620002c7816200029c565b92915050565b60008115159050919050565b620002e481620002cd565b8114620002f057600080fd5b50565b6000815190506200030481620002d9565b92915050565b6000806000806080858703121562000327576200032662000228565b5b600062000337878288016200027b565b94505060206200034a87828801620002b6565b93505060406200035d878288016200027b565b92505060606200037087828801620002f3565b91505092959194509250565b60805160a051610937620003a160003960006101ed01526000605701526109376000f3fe60806040526004361061001e5760003560e01c80639c649fdf14610023575b600080fd5b61003d600480360381019061003891906104c9565b610053565b60405161004a919061056a565b60405180910390f35b60007f000000000000000000000000000000000000000000000000000000000000000073ffffffffffffffffffffffffffffffffffffffff163373ffffffffffffffffffffffffffffffffffffffff16146100e3576040517f08c379a00000000000000000000000000000000000000000000000000000000081526004016100da906105e2565b60405180910390fd5b60008054906101000a900473ffffffffffffffffffffffffffffffffffffffff1673ffffffffffffffffffffffffffffffffffffffff168673ffffffffffffffffffffffffffffffffffffffff1614801561014957506001548567ffffffffffffffff16145b610188576040517f08c379a000000000000000000000000000000000000000000000000000000000815260040161017f9061064e565b60405180910390fd5b6000848460009060049261019e93929190610678565b906101a991906106f7565b9050600085856004906024926101c193929190610678565b906101cc9190610760565b60001c9050366000878760249080926101e793929190610678565b915091507f00000000000000000000000000000000000000000000000000000000000000001561026c576004548314610255576040517f08c379a000000000000000000000000000000000000000000000000000000000815260040161024c9061080b565b60405180910390fd5b6004600081546102649061085a565b919050819055505b6103b260026000867bffffffffffffffffffffffffffffffffffffffffffffffffffffffff1916815260200190815260200160002060009054906101000a900480156103b2021767ffffffffffffffff16905060008115905060006103228585600260008b7bffffffffffffffffffffffffffffffffffffffffffffffffffffffff1916815260200190815260200160002060009054906101000a900480156103b2021767ffffffffffffffff1663ffffffff16565b905060016002811115610338576103376108a3565b5b81600281111561034b5761034a6108a3565b5b14156103615760029750505050505050506103a9565b600280811115610374576103736108a3565b5b816002811115610387576103866108a3565b5b141561039d5760019750505050505050506103a9565b60009750505050505050505b95945050505050565b6103ba6108d2565b565b600080fd5b600080fd5b600073ffffffffffffffffffffffffffffffffffffffff82169050919050565b60006103f1826103c6565b9050919050565b610401816103e6565b811461040c57600080fd5b50565b60008135905061041e816103f8565b92915050565b600067ffffffffffffffff82169050919050565b61044181610424565b811461044c57600080fd5b50565b60008135905061045e81610438565b92915050565b600080fd5b600080fd5b600080fd5b60008083601f84011261048957610488610464565b5b8235905067ffffffffffffffff8111156104a6576104a5610469565b5b6020830191508360018202830111156104c2576104c161046e565b5b9250929050565b6000806000806000608086880312156104e5576104e46103bc565b5b60006104f38882890161040f565b95505060206105048882890161044f565b945050604086013567ffffffffffffffff811115610525576105246103c1565b5b61053188828901610473565b935093505060606105448882890161040f565b9150509295509295909350565b6000819050919050565b61056481610551565b82525050565b600060208201905061057f600083018461055b565b92915050565b600082825260208201905092915050565b7f4e6f744d65737361676542757300000000000000000000000000000000000000600082015250565b60006105cc600d83610585565b91506105d782610596565b602082019050919050565b600060208201905081810360008301526105fb816105bf565b9050919050565b7f4e6f7452656d6f7465456e64706f696e74000000000000000000000000000000600082015250565b6000610638601183610585565b915061064382610602565b602082019050919050565b600060208201905081810360008301526106678161062b565b9050919050565b600080fd5b600080fd5b6000808585111561068c5761068b61066e565b5b8386111561069d5761069c610673565b5b6001850283019150848603905094509492505050565b600082905092915050565b60007fffffffff0000000000000000000000000000000000000000000000000000000082169050919050565b600082821b905092915050565b600061070383836106b3565b8261070e81356106be565b9250600482101561074e576107497fffffffff00000000000000000000000000000000000000000000000000000000836004036008026106ea565b831692505b505092915050565b6000819050919050565b600061076c83836106b3565b826107778135610756565b925060208210156107b7576107b27fffffffffffffffffffffffffffffffffffffffffffffffffffffffffffffffff836020036008026106ea565b831692505b505092915050565b7f57726f6e675365714e756d000000000000000000000000000000000000000000600082015250565b60006107f5600b83610585565b9150610800826107bf565b602082019050919050565b60006020820190508181036000830152610824816107e8565b9050919050565b7f4e487b7100000000000000000000000000000000000000000000000000000000600052601160045260246000fd5b600061086582610551565b91507fffffffffffffffffffffffffffffffffffffffffffffffffffffffffffffffff8214156108985761089761082b565b5b600182019050919050565b7f4e487b7100000000000000000000000000000000000000000000000000000000600052602160045260246000fd5b7f4e487b7100000000000000000000000000000000000000000000000000000000600052605160045260246000fdfea2646970667358221220326b4de7ae6ac64d32253391dcab56beaf0e40aceba8280c2e42c8cee2b3c8d664736f6c634300080c0033","opcodes":"PUSH1 0xC0 PUSH1 0x40 MSTORE CALLVALUE DUP1 ISZERO PUSH3 0x11 JUMPI PUSH1 0x0 DUP1 REVERT JUMPDEST POP PUSH1 0x40 MLOAD PUSH3 0xCD8 CODESIZE SUB DUP1 PUSH3 0xCD8 DUP4 CODECOPY DUP2 DUP2 ADD PUSH1 0x40 MSTORE DUP2 ADD SWAP1 PUSH3 0x37 SWAP2 SWAP1 PUSH3 0x30A JUMP JUMPDEST PUSH1 0x0 PUSH20 0xFFFFFFFFFFFFFFFFFFFFFFFFFFFFFFFFFFFFFFFF AND DUP5 PUSH20 0xFFFFFFFFFFFFFFFFFFFFFFFFFFFFFFFFFFFFFFFF AND EQ ISZERO PUSH3 0x9F JUMPI PUSH1 0x40 MLOAD PUSH32 0x5F9997DF00000000000000000000000000000000000000000000000000000000 DUP2 MSTORE PUSH1 0x4 ADD PUSH1 0x40 MLOAD DUP1 SWAP2 SUB SWAP1 REVERT JUMPDEST PUSH1 0x0 DUP4 EQ ISZERO PUSH3 0xDB JUMPI PUSH1 0x40 MLOAD PUSH32 0xA9E2223000000000000000000000000000000000000000000000000000000000 DUP2 MSTORE PUSH1 0x4 ADD PUSH1 0x40 MLOAD DUP1 SWAP2 SUB SWAP1 REVERT JUMPDEST DUP4 PUSH1 0x0 DUP1 PUSH2 0x100 EXP DUP2 SLOAD DUP2 PUSH20 0xFFFFFFFFFFFFFFFFFFFFFFFFFFFFFFFFFFFFFFFF MUL NOT AND SWAP1 DUP4 PUSH20 0xFFFFFFFFFFFFFFFFFFFFFFFFFFFFFFFFFFFFFFFF AND MUL OR SWAP1 SSTORE POP DUP3 PUSH1 0x1 DUP2 SWAP1 SSTORE POP DUP2 PUSH20 0xFFFFFFFFFFFFFFFFFFFFFFFFFFFFFFFFFFFFFFFF AND PUSH1 0x80 DUP2 PUSH20 0xFFFFFFFFFFFFFFFFFFFFFFFFFFFFFFFFFFFFFFFF AND DUP2 MSTORE POP POP DUP1 ISZERO ISZERO PUSH1 0xA0 DUP2 ISZERO ISZERO DUP2 MSTORE POP POP PUSH3 0x172 PUSH3 0x1C1 PUSH1 0x20 SHL PUSH1 0x20 SHR JUMP JUMPDEST ISZERO DUP1 ISZERO PUSH3 0x17F JUMPI POP CHAINID DUP4 EQ JUMPDEST ISZERO PUSH3 0x1B7 JUMPI PUSH1 0x40 MLOAD PUSH32 0xDBF02D7C00000000000000000000000000000000000000000000000000000000 DUP2 MSTORE PUSH1 0x4 ADD PUSH1 0x40 MLOAD DUP1 SWAP2 SUB SWAP1 REVERT JUMPDEST POP POP POP POP PUSH3 0x37C JUMP JUMPDEST PUSH1 0x0 DUP1 PUSH1 0x0 SWAP1 SLOAD SWAP1 PUSH2 0x100 EXP SWAP1 DIV PUSH20 0xFFFFFFFFFFFFFFFFFFFFFFFFFFFFFFFFFFFFFFFF AND PUSH20 0xFFFFFFFFFFFFFFFFFFFFFFFFFFFFFFFFFFFFFFFF AND PUSH1 0x80 MLOAD PUSH20 0xFFFFFFFFFFFFFFFFFFFFFFFFFFFFFFFFFFFFFFFF AND EQ DUP1 ISZERO PUSH3 0x223 JUMPI POP PUSH1 0x1 SLOAD CHAINID EQ JUMPDEST SWAP1 POP SWAP1 JUMP JUMPDEST PUSH1 0x0 DUP1 REVERT JUMPDEST PUSH1 0x0 PUSH20 0xFFFFFFFFFFFFFFFFFFFFFFFFFFFFFFFFFFFFFFFF DUP3 AND SWAP1 POP SWAP2 SWAP1 POP JUMP JUMPDEST PUSH1 0x0 PUSH3 0x25A DUP3 PUSH3 0x22D JUMP JUMPDEST SWAP1 POP SWAP2 SWAP1 POP JUMP JUMPDEST PUSH3 0x26C DUP2 PUSH3 0x24D JUMP JUMPDEST DUP2 EQ PUSH3 0x278 JUMPI PUSH1 0x0 DUP1 REVERT JUMPDEST POP JUMP JUMPDEST PUSH1 0x0 DUP2 MLOAD SWAP1 POP PUSH3 0x28C DUP2 PUSH3 0x261 JUMP JUMPDEST SWAP3 SWAP2 POP POP JUMP JUMPDEST PUSH1 0x0 DUP2 SWAP1 POP SWAP2 SWAP1 POP JUMP JUMPDEST PUSH3 0x2A7 DUP2 PUSH3 0x292 JUMP JUMPDEST DUP2 EQ PUSH3 0x2B3 JUMPI PUSH1 0x0 DUP1 REVERT JUMPDEST POP JUMP JUMPDEST PUSH1 0x0 DUP2 MLOAD SWAP1 POP PUSH3 0x2C7 DUP2 PUSH3 0x29C JUMP JUMPDEST SWAP3 SWAP2 POP POP JUMP JUMPDEST PUSH1 0x0 DUP2 ISZERO ISZERO SWAP1 POP SWAP2 SWAP1 POP JUMP JUMPDEST PUSH3 0x2E4 DUP2 PUSH3 0x2CD JUMP JUMPDEST DUP2 EQ PUSH3 0x2F0 JUMPI PUSH1 0x0 DUP1 REVERT JUMPDEST POP JUMP JUMPDEST PUSH1 0x0 DUP2 MLOAD SWAP1 POP PUSH3 0x304 DUP2 PUSH3 0x2D9 JUMP JUMPDEST SWAP3 SWAP2 POP POP JUMP JUMPDEST PUSH1 0x0 DUP1 PUSH1 0x0 DUP1 PUSH1 0x80 DUP6 DUP8 SUB SLT ISZERO PUSH3 0x327 JUMPI PUSH3 0x326 PUSH3 0x228 JUMP JUMPDEST JUMPDEST PUSH1 0x0 PUSH3 0x337 DUP8 DUP3 DUP9 ADD PUSH3 0x27B JUMP JUMPDEST SWAP5 POP POP PUSH1 0x20 PUSH3 0x34A DUP8 DUP3 DUP9 ADD PUSH3 0x2B6 JUMP JUMPDEST SWAP4 POP POP PUSH1 0x40 PUSH3 0x35D DUP8 DUP3 DUP9 ADD PUSH3 0x27B JUMP JUMPDEST SWAP3 POP POP PUSH1 0x60 PUSH3 0x370 DUP8 DUP3 DUP9 ADD PUSH3 0x2F3 JUMP JUMPDEST SWAP2 POP POP SWAP3 SWAP6 SWAP2 SWAP5 POP SWAP3 POP JUMP JUMPDEST PUSH1 0x80 MLOAD PUSH1 0xA0 MLOAD PUSH2 0x937 PUSH3 0x3A1 PUSH1 0x0 CODECOPY PUSH1 0x0 PUSH2 0x1ED ADD MSTORE PUSH1 0x0 PUSH1 0x57 ADD MSTORE PUSH2 0x937 PUSH1 0x0 RETURN INVALID PUSH1 0x80 PUSH1 0x40 MSTORE PUSH1 0x4 CALLDATASIZE LT PUSH2 0x1E JUMPI PUSH1 0x0 CALLDATALOAD PUSH1 0xE0 SHR DUP1 PUSH4 0x9C649FDF EQ PUSH2 0x23 JUMPI JUMPDEST PUSH1 0x0 DUP1 REVERT JUMPDEST PUSH2 0x3D PUSH1 0x4 DUP1 CALLDATASIZE SUB DUP2 ADD SWAP1 PUSH2 0x38 SWAP2 SWAP1 PUSH2 0x4C9 JUMP JUMPDEST PUSH2 0x53 JUMP JUMPDEST PUSH1 0x40 MLOAD PUSH2 0x4A SWAP2 SWAP1 PUSH2 0x56A JUMP JUMPDEST PUSH1 0x40 MLOAD DUP1 SWAP2 SUB SWAP1 RETURN JUMPDEST PUSH1 0x0 PUSH32 0x0 PUSH20 0xFFFFFFFFFFFFFFFFFFFFFFFFFFFFFFFFFFFFFFFF AND CALLER PUSH20 0xFFFFFFFFFFFFFFFFFFFFFFFFFFFFFFFFFFFFFFFF AND EQ PUSH2 0xE3 JUMPI PUSH1 0x40 MLOAD PUSH32 0x8C379A000000000000000000000000000000000000000000000000000000000 DUP2 MSTORE PUSH1 0x4 ADD PUSH2 0xDA SWAP1 PUSH2 0x5E2 JUMP JUMPDEST PUSH1 0x40 MLOAD DUP1 SWAP2 SUB SWAP1 REVERT JUMPDEST PUSH1 0x0 DUP1 SLOAD SWAP1 PUSH2 0x100 EXP SWAP1 DIV PUSH20 0xFFFFFFFFFFFFFFFFFFFFFFFFFFFFFFFFFFFFFFFF AND PUSH20 0xFFFFFFFFFFFFFFFFFFFFFFFFFFFFFFFFFFFFFFFF AND DUP7 PUSH20 0xFFFFFFFFFFFFFFFFFFFFFFFFFFFFFFFFFFFFFFFF AND EQ DUP1 ISZERO PUSH2 0x149 JUMPI POP PUSH1 0x1 SLOAD DUP6 PUSH8 0xFFFFFFFFFFFFFFFF AND EQ JUMPDEST PUSH2 0x188 JUMPI PUSH1 0x40 MLOAD PUSH32 0x8C379A000000000000000000000000000000000000000000000000000000000 DUP2 MSTORE PUSH1 0x4 ADD PUSH2 0x17F SWAP1 PUSH2 0x64E JUMP JUMPDEST PUSH1 0x40 MLOAD DUP1 SWAP2 SUB SWAP1 REVERT JUMPDEST PUSH1 0x0 DUP5 DUP5 PUSH1 0x0 SWAP1 PUSH1 0x4 SWAP3 PUSH2 0x19E SWAP4 SWAP3 SWAP2 SWAP1 PUSH2 0x678 JUMP JUMPDEST SWAP1 PUSH2 0x1A9 SWAP2 SWAP1 PUSH2 0x6F7 JUMP JUMPDEST SWAP1 POP PUSH1 0x0 DUP6 DUP6 PUSH1 0x4 SWAP1 PUSH1 0x24 SWAP3 PUSH2 0x1C1 SWAP4 SWAP3 SWAP2 SWAP1 PUSH2 0x678 JUMP JUMPDEST SWAP1 PUSH2 0x1CC SWAP2 SWAP1 PUSH2 0x760 JUMP JUMPDEST PUSH1 0x0 SHR SWAP1 POP CALLDATASIZE PUSH1 0x0 DUP8 DUP8 PUSH1 0x24 SWAP1 DUP1 SWAP3 PUSH2 0x1E7 SWAP4 SWAP3 SWAP2 SWAP1 PUSH2 0x678 JUMP JUMPDEST SWAP2 POP SWAP2 POP PUSH32 0x0 ISZERO PUSH2 0x26C JUMPI PUSH1 0x4 SLOAD DUP4 EQ PUSH2 0x255 JUMPI PUSH1 0x40 MLOAD PUSH32 0x8C379A000000000000000000000000000000000000000000000000000000000 DUP2 MSTORE PUSH1 0x4 ADD PUSH2 0x24C SWAP1 PUSH2 0x80B JUMP JUMPDEST PUSH1 0x40 MLOAD DUP1 SWAP2 SUB SWAP1 REVERT JUMPDEST PUSH1 0x4 PUSH1 0x0 DUP2 SLOAD PUSH2 0x264 SWAP1 PUSH2 0x85A JUMP JUMPDEST SWAP2 SWAP1 POP DUP2 SWAP1 SSTORE POP JUMPDEST PUSH2 0x3B2 PUSH1 0x2 PUSH1 0x0 DUP7 PUSH28 0xFFFFFFFFFFFFFFFFFFFFFFFFFFFFFFFFFFFFFFFFFFFFFFFFFFFFFFFF NOT AND DUP2 MSTORE PUSH1 0x20 ADD SWAP1 DUP2 MSTORE PUSH1 0x20 ADD PUSH1 0x0 KECCAK256 PUSH1 0x0 SWAP1 SLOAD SWAP1 PUSH2 0x100 EXP SWAP1 DIV DUP1 ISZERO PUSH2 0x3B2 MUL OR PUSH8 0xFFFFFFFFFFFFFFFF AND SWAP1 POP PUSH1 0x0 DUP2 ISZERO SWAP1 POP PUSH1 0x0 PUSH2 0x322 DUP6 DUP6 PUSH1 0x2 PUSH1 0x0 DUP12 PUSH28 0xFFFFFFFFFFFFFFFFFFFFFFFFFFFFFFFFFFFFFFFFFFFFFFFFFFFFFFFF NOT AND DUP2 MSTORE PUSH1 0x20 ADD SWAP1 DUP2 MSTORE PUSH1 0x20 ADD PUSH1 0x0 KECCAK256 PUSH1 0x0 SWAP1 SLOAD SWAP1 PUSH2 0x100 EXP SWAP1 DIV DUP1 ISZERO PUSH2 0x3B2 MUL OR PUSH8 0xFFFFFFFFFFFFFFFF AND PUSH4 0xFFFFFFFF AND JUMP JUMPDEST SWAP1 POP PUSH1 0x1 PUSH1 0x2 DUP2 GT ISZERO PUSH2 0x338 JUMPI PUSH2 0x337 PUSH2 0x8A3 JUMP JUMPDEST JUMPDEST DUP2 PUSH1 0x2 DUP2 GT ISZERO PUSH2 0x34B JUMPI PUSH2 0x34A PUSH2 0x8A3 JUMP JUMPDEST JUMPDEST EQ ISZERO PUSH2 0x361 JUMPI PUSH1 0x2 SWAP8 POP POP POP POP POP POP POP POP PUSH2 0x3A9 JUMP JUMPDEST PUSH1 0x2 DUP1 DUP2 GT ISZERO PUSH2 0x374 JUMPI PUSH2 0x373 PUSH2 0x8A3 JUMP JUMPDEST JUMPDEST DUP2 PUSH1 0x2 DUP2 GT ISZERO PUSH2 0x387 JUMPI PUSH2 0x386 PUSH2 0x8A3 JUMP JUMPDEST JUMPDEST EQ ISZERO PUSH2 0x39D JUMPI PUSH1 0x1 SWAP8 POP POP POP POP POP POP POP POP PUSH2 0x3A9 JUMP JUMPDEST PUSH1 0x0 SWAP8 POP POP POP POP POP POP POP POP JUMPDEST SWAP6 SWAP5 POP POP POP POP POP JUMP JUMPDEST PUSH2 0x3BA PUSH2 0x8D2 JUMP JUMPDEST JUMP JUMPDEST PUSH1 0x0 DUP1 REVERT JUMPDEST PUSH1 0x0 DUP1 REVERT JUMPDEST PUSH1 0x0 PUSH20 0xFFFFFFFFFFFFFFFFFFFFFFFFFFFFFFFFFFFFFFFF DUP3 AND SWAP1 POP SWAP2 SWAP1 POP JUMP JUMPDEST PUSH1 0x0 PUSH2 0x3F1 DUP3 PUSH2 0x3C6 JUMP JUMPDEST SWAP1 POP SWAP2 SWAP1 POP JUMP JUMPDEST PUSH2 0x401 DUP2 PUSH2 0x3E6 JUMP JUMPDEST DUP2 EQ PUSH2 0x40C JUMPI PUSH1 0x0 DUP1 REVERT JUMPDEST POP JUMP JUMPDEST PUSH1 0x0 DUP2 CALLDATALOAD SWAP1 POP PUSH2 0x41E DUP2 PUSH2 0x3F8 JUMP JUMPDEST SWAP3 SWAP2 POP POP JUMP JUMPDEST PUSH1 0x0 PUSH8 0xFFFFFFFFFFFFFFFF DUP3 AND SWAP1 POP SWAP2 SWAP1 POP JUMP JUMPDEST PUSH2 0x441 DUP2 PUSH2 0x424 JUMP JUMPDEST DUP2 EQ PUSH2 0x44C JUMPI PUSH1 0x0 DUP1 REVERT JUMPDEST POP JUMP JUMPDEST PUSH1 0x0 DUP2 CALLDATALOAD SWAP1 POP PUSH2 0x45E DUP2 PUSH2 0x438 JUMP JUMPDEST SWAP3 SWAP2 POP POP JUMP JUMPDEST PUSH1 0x0 DUP1 REVERT JUMPDEST PUSH1 0x0 DUP1 REVERT JUMPDEST PUSH1 0x0 DUP1 REVERT JUMPDEST PUSH1 0x0 DUP1 DUP4 PUSH1 0x1F DUP5 ADD SLT PUSH2 0x489 JUMPI PUSH2 0x488 PUSH2 0x464 JUMP JUMPDEST JUMPDEST DUP3 CALLDATALOAD SWAP1 POP PUSH8 0xFFFFFFFFFFFFFFFF DUP2 GT ISZERO PUSH2 0x4A6 JUMPI PUSH2 0x4A5 PUSH2 0x469 JUMP JUMPDEST JUMPDEST PUSH1 0x20 DUP4 ADD SWAP2 POP DUP4 PUSH1 0x1 DUP3 MUL DUP4 ADD GT ISZERO PUSH2 0x4C2 JUMPI PUSH2 0x4C1 PUSH2 0x46E JUMP JUMPDEST JUMPDEST SWAP3 POP SWAP3 SWAP1 POP JUMP JUMPDEST PUSH1 0x0 DUP1 PUSH1 0x0 DUP1 PUSH1 0x0 PUSH1 0x80 DUP7 DUP9 SUB SLT ISZERO PUSH2 0x4E5 JUMPI PUSH2 0x4E4 PUSH2 0x3BC JUMP JUMPDEST JUMPDEST PUSH1 0x0 PUSH2 0x4F3 DUP9 DUP3 DUP10 ADD PUSH2 0x40F JUMP JUMPDEST SWAP6 POP POP PUSH1 0x20 PUSH2 0x504 DUP9 DUP3 DUP10 ADD PUSH2 0x44F JUMP JUMPDEST SWAP5 POP POP PUSH1 0x40 DUP7 ADD CALLDATALOAD PUSH8 0xFFFFFFFFFFFFFFFF DUP2 GT ISZERO PUSH2 0x525 JUMPI PUSH2 0x524 PUSH2 0x3C1 JUMP JUMPDEST JUMPDEST PUSH2 0x531 DUP9 DUP3 DUP10 ADD PUSH2 0x473 JUMP JUMPDEST SWAP4 POP SWAP4 POP POP PUSH1 0x60 PUSH2 0x544 DUP9 DUP3 DUP10 ADD PUSH2 0x40F JUMP JUMPDEST SWAP2 POP POP SWAP3 SWAP6 POP SWAP3 SWAP6 SWAP1 SWAP4 POP JUMP JUMPDEST PUSH1 0x0 DUP2 SWAP1 POP SWAP2 SWAP1 POP JUMP JUMPDEST PUSH2 0x564 DUP2 PUSH2 0x551 JUMP JUMPDEST DUP3 MSTORE POP POP JUMP JUMPDEST PUSH1 0x0 PUSH1 0x20 DUP3 ADD SWAP1 POP PUSH2 0x57F PUSH1 0x0 DUP4 ADD DUP5 PUSH2 0x55B JUMP JUMPDEST SWAP3 SWAP2 POP POP JUMP JUMPDEST PUSH1 0x0 DUP3 DUP3 MSTORE PUSH1 0x20 DUP3 ADD SWAP1 POP SWAP3 SWAP2 POP POP JUMP JUMPDEST PUSH32 0x4E6F744D65737361676542757300000000000000000000000000000000000000 PUSH1 0x0 DUP3 ADD MSTORE POP JUMP JUMPDEST PUSH1 0x0 PUSH2 0x5CC PUSH1 0xD DUP4 PUSH2 0x585 JUMP JUMPDEST SWAP2 POP PUSH2 0x5D7 DUP3 PUSH2 0x596 JUMP JUMPDEST PUSH1 0x20 DUP3 ADD SWAP1 POP SWAP2 SWAP1 POP JUMP JUMPDEST PUSH1 0x0 PUSH1 0x20 DUP3 ADD SWAP1 POP DUP2 DUP2 SUB PUSH1 0x0 DUP4 ADD MSTORE PUSH2 0x5FB DUP2 PUSH2 0x5BF JUMP JUMPDEST SWAP1 POP SWAP2 SWAP1 POP JUMP JUMPDEST PUSH32 0x4E6F7452656D6F7465456E64706F696E74000000000000000000000000000000 PUSH1 0x0 DUP3 ADD MSTORE POP JUMP JUMPDEST PUSH1 0x0 PUSH2 0x638 PUSH1 0x11 DUP4 PUSH2 0x585 JUMP JUMPDEST SWAP2 POP PUSH2 0x643 DUP3 PUSH2 0x602 JUMP JUMPDEST PUSH1 0x20 DUP3 ADD SWAP1 POP SWAP2 SWAP1 POP JUMP JUMPDEST PUSH1 0x0 PUSH1 0x20 DUP3 ADD SWAP1 POP DUP2 DUP2 SUB PUSH1 0x0 DUP4 ADD MSTORE PUSH2 0x667 DUP2 PUSH2 0x62B JUMP JUMPDEST SWAP1 POP SWAP2 SWAP1 POP JUMP JUMPDEST PUSH1 0x0 DUP1 REVERT JUMPDEST PUSH1 0x0 DUP1 REVERT JUMPDEST PUSH1 0x0 DUP1 DUP6 DUP6 GT ISZERO PUSH2 0x68C JUMPI PUSH2 0x68B PUSH2 0x66E JUMP JUMPDEST JUMPDEST DUP4 DUP7 GT ISZERO PUSH2 0x69D JUMPI PUSH2 0x69C PUSH2 0x673 JUMP JUMPDEST JUMPDEST PUSH1 0x1 DUP6 MUL DUP4 ADD SWAP2 POP DUP5 DUP7 SUB SWAP1 POP SWAP5 POP SWAP5 SWAP3 POP POP POP JUMP JUMPDEST PUSH1 0x0 DUP3 SWAP1 POP SWAP3 SWAP2 POP POP JUMP JUMPDEST PUSH1 0x0 PUSH32 0xFFFFFFFF00000000000000000000000000000000000000000000000000000000 DUP3 AND SWAP1 POP SWAP2 SWAP1 POP JUMP JUMPDEST PUSH1 0x0 DUP3 DUP3 SHL SWAP1 POP SWAP3 SWAP2 POP POP JUMP JUMPDEST PUSH1 0x0 PUSH2 0x703 DUP4 DUP4 PUSH2 0x6B3 JUMP JUMPDEST DUP3 PUSH2 0x70E DUP2 CALLDATALOAD PUSH2 0x6BE JUMP JUMPDEST SWAP3 POP PUSH1 0x4 DUP3 LT ISZERO PUSH2 0x74E JUMPI PUSH2 0x749 PUSH32 0xFFFFFFFF00000000000000000000000000000000000000000000000000000000 DUP4 PUSH1 0x4 SUB PUSH1 0x8 MUL PUSH2 0x6EA JUMP JUMPDEST DUP4 AND SWAP3 POP JUMPDEST POP POP SWAP3 SWAP2 POP POP JUMP JUMPDEST PUSH1 0x0 DUP2 SWAP1 POP SWAP2 SWAP1 POP JUMP JUMPDEST PUSH1 0x0 PUSH2 0x76C DUP4 DUP4 PUSH2 0x6B3 JUMP JUMPDEST DUP3 PUSH2 0x777 DUP2 CALLDATALOAD PUSH2 0x756 JUMP JUMPDEST SWAP3 POP PUSH1 0x20 DUP3 LT ISZERO PUSH2 0x7B7 JUMPI PUSH2 0x7B2 PUSH32 0xFFFFFFFFFFFFFFFFFFFFFFFFFFFFFFFFFFFFFFFFFFFFFFFFFFFFFFFFFFFFFFFF DUP4 PUSH1 0x20 SUB PUSH1 0x8 MUL PUSH2 0x6EA JUMP JUMPDEST DUP4 AND SWAP3 POP JUMPDEST POP POP SWAP3 SWAP2 POP POP JUMP JUMPDEST PUSH32 0x57726F6E675365714E756D000000000000000000000000000000000000000000 PUSH1 0x0 DUP3 ADD MSTORE POP JUMP JUMPDEST PUSH1 0x0 PUSH2 0x7F5 PUSH1 0xB DUP4 PUSH2 0x585 JUMP JUMPDEST SWAP2 POP PUSH2 0x800 DUP3 PUSH2 0x7BF JUMP JUMPDEST PUSH1 0x20 DUP3 ADD SWAP1 POP SWAP2 SWAP1 POP JUMP JUMPDEST PUSH1 0x0 PUSH1 0x20 DUP3 ADD SWAP1 POP DUP2 DUP2 SUB PUSH1 0x0 DUP4 ADD MSTORE PUSH2 0x824 DUP2 PUSH2 0x7E8 JUMP JUMPDEST SWAP1 POP SWAP2 SWAP1 POP JUMP JUMPDEST PUSH32 0x4E487B7100000000000000000000000000000000000000000000000000000000 PUSH1 0x0 MSTORE PUSH1 0x11 PUSH1 0x4 MSTORE PUSH1 0x24 PUSH1 0x0 REVERT JUMPDEST PUSH1 0x0 PUSH2 0x865 DUP3 PUSH2 0x551 JUMP JUMPDEST SWAP2 POP PUSH32 0xFFFFFFFFFFFFFFFFFFFFFFFFFFFFFFFFFFFFFFFFFFFFFFFFFFFFFFFFFFFFFFFF DUP3 EQ ISZERO PUSH2 0x898 JUMPI PUSH2 0x897 PUSH2 0x82B JUMP JUMPDEST JUMPDEST PUSH1 0x1 DUP3 ADD SWAP1 POP SWAP2 SWAP1 POP JUMP JUMPDEST PUSH32 0x4E487B7100000000000000000000000000000000000000000000000000000000 PUSH1 0x0 MSTORE PUSH1 0x21 PUSH1 0x4 MSTORE PUSH1 0x24 PUSH1 0x0 REVERT JUMPDEST PUSH32 0x4E487B7100000000000000000000000000000000000000000000000000000000 PUSH1 0x0 MSTORE PUSH1 0x51 PUSH1 0x4 MSTORE PUSH1 0x24 PUSH1 0x0 REVERT INVALID LOG2 PUSH5 0x6970667358 0x22 SLT KECCAK256 ORIGIN PUSH12 0x4DE7AE6AC64D32253391DCAB JUMP 0xBE 0xAF 0xE BLOCKHASH 0xAC 0xEB 0xA8 0x28 0xC 0x2E TIMESTAMP 0xC8 0xCE 0xE2 0xB3 0xC8 0xD6 PUSH5 0x736F6C6343 STOP ADDMOD 0xC STOP CALLER "},"methodIdentifiers":{"executeMessage(address,uint64,bytes,address)":"9c649fdf"}}}}}