{"@oasisprotocol/sapphire-contracts/contracts/opl/Enclave.sol":{"Enclave":{"abi":[{"inputs":[{"internalType":"address","name":"_host","type":"address"},{"internalType":"bytes32","name":"_hostChain","type":"bytes32"}],"stateMutability":"nonpayable","type":"constructor"},{"inputs":[],"name":"AutoConfigUnavailable","type":"error"},{"inputs":[],"name":"MissingRemoteAddr","type":"error"},{"inputs":[],"name":"MissingRemoteChainId","type":"error"},{"inputs":[],"name":"SelfCallDisallowed","type":"error"},{"inputs":[{"internalType":"address","name":"_sender","type":"address"},{"internalType":"uint64","name":"_senderChainId","type":"uint64"},{"internalType":"bytes","name":"_message","type":"bytes"},{"internalType":"address","name":"","type":"address"}],"name":"executeMessage","outputs":[{"internalType":"uint256","name":"","type":"uint256"}],"stateMutability":"payable","type":"function"}],"evm":{"bytecode":{"linkReferences":{},"object":"60c06040523480156200001157600080fd5b50604051620013d9380380620013d9833981810160405281019062000037919062000a36565b8181816200004b82620001ec60201b60201c565b6200005d84846200023960201b60201c565b60008073ffffffffffffffffffffffffffffffffffffffff168473ffffffffffffffffffffffffffffffffffffffff161415620000c6576040517f5f9997df00000000000000000000000000000000000000000000000000000000815260040160405180910390fd5b600083141562000102576040517fa9e2223000000000000000000000000000000000000000000000000000000000815260040160405180910390fd5b836000806101000a81548173ffffffffffffffffffffffffffffffffffffffff021916908373ffffffffffffffffffffffffffffffffffffffff160217905550826001819055508173ffffffffffffffffffffffffffffffffffffffff1660808173ffffffffffffffffffffffffffffffffffffffff168152505080151560a081151581525050620001996200028e60201b60201c565b158015620001a657504683145b15620001de576040517fdbf02d7c00000000000000000000000000000000000000000000000000000000815260040160405180910390fd5b505050505050505062000a7d565b60007f6c6f63616c000000000000000000000000000000000000000000000000000000821415620002205746905062000234565b6200023182620002f560201b60201c565b90505b919050565b60007f6c6f63616c0000000000000000000000000000000000000000000000000000008214156200026d5782905062000288565b600062000280466200067060201b60201c565b509050809150505b92915050565b60008060009054906101000a900473ffffffffffffffffffffffffffffffffffffffff1673ffffffffffffffffffffffffffffffffffffffff1660805173ffffffffffffffffffffffffffffffffffffffff16148015620002f0575060015446145b905090565b60007f657468657265756d0000000000000000000000000000000000000000000000008214156200032a57600190506200066b565b7f676f65726c6900000000000000000000000000000000000000000000000000008214156200035d57600590506200066b565b7f6f7074696d69736d0000000000000000000000000000000000000000000000008214156200039057600a90506200066b565b7f6273630000000000000000000000000000000000000000000000000000000000821415620003c357603890506200066b565b7f6273632d746573746e6574000000000000000000000000000000000000000000821415620003f657606190506200066b565b7f706f6c79676f6e000000000000000000000000000000000000000000000000008214156200042957608990506200066b565b7f66616e746f6d00000000000000000000000000000000000000000000000000008214156200045c5760fa90506200066b565b7f66616e746f6d2d746573746e65740000000000000000000000000000000000008214156200049057610fa290506200066b565b7f6d6f6f6e72697665720000000000000000000000000000000000000000000000821415620004c45761050590506200066b565b7f617262697472756d2d6f6e650000000000000000000000000000000000000000821415620004f85761a4b190506200066b565b7f617262697472756d2d6e6f7661000000000000000000000000000000000000008214156200052c5761a4ba90506200066b565b7f73617070686972650000000000000000000000000000000000000000000000008214156200056057615afe90506200066b565b7f73617070686972652d746573746e6574000000000000000000000000000000008214156200059457615aff90506200066b565b7f706f6c79676f6e2d6d756d626169000000000000000000000000000000000000821415620005c9576201388190506200066b565b7f6176616c616e6368650000000000000000000000000000000000000000000000821415620005fd5761a86a90506200066b565b7f6176616c616e6368652d66756a69000000000000000000000000000000000000821415620006315761a93190506200066b565b7f617262697472756d2d746573746e657400000000000000000000000000000000821415620006665762066eeb90506200066b565b600090505b919050565b60008060018314156200069e57734066d196a423b2b3b8b054f4f40efb47a74e200c6000915091506200098c565b6005831415620006c95773f25170f86e4291a99a9a560032fe9948b8bcfbb26001915091506200098c565b600a831415620006f457730d71d18126e03646eb09fec929e2ae87b7cae69d6000915091506200098c565b60388314156200071f577395714818fdd7a5454f73da9c777b3ee6ebaeea6b6000915091506200098c565b60618314156200074a5773ad204986d6cb67a5bc76a3cb8974823f43cb9aaa6001915091506200098c565b6089831415620007755773afdb9c40c7144022811f034ee07ce2e110093fe66000915091506200098c565b60fa831415620007a05773ff4e183a0ceb4fa98e63bbf8077b929c8e5a2ba46000915091506200098c565b610fa2831415620007cc5773b92d6933a024bcca9a21669a480c236cbc9731106001915091506200098c565b610505831415620007f85773940daaba3f713abfabd79cdd991466fe698cbe546000915091506200098c565b615afe8314156200082457739bb46d5100d2db4608112026951c9c965b233f4d6000915091506200098c565b615aff8314156200085057739bb46d5100d2db4608112026951c9c965b233f4d6001915091506200098c565b61a4b18314156200087c57733ad9d0648cdaa2426331e894e980d0a5ed16257f6000915091506200098c565b61a4ba831415620008a85773f5c6825015280cdfd0b56903f9f8b5a2233476f56000915091506200098c565b61a869831415620008d45773e9533976c590200e32d95c53f06ae12d292cfc476001915091506200098c565b61a86a8314156200090057735a926eeeafc4d217add17e9641e8ce23cd01ad576000915091506200098c565b620138818314156200092d57737d43aabc515c356145049227cee54b608342c0ad6001915091506200098c565b62066eeb8314156200095a57737d43aabc515c356145049227cee54b608342c0ad6001915091506200098c565b6040517f11e9f92400000000000000000000000000000000000000000000000000000000815260040160405180910390fd5b915091565b600080fd5b600073ffffffffffffffffffffffffffffffffffffffff82169050919050565b6000620009c38262000996565b9050919050565b620009d581620009b6565b8114620009e157600080fd5b50565b600081519050620009f581620009ca565b92915050565b6000819050919050565b62000a1081620009fb565b811462000a1c57600080fd5b50565b60008151905062000a308162000a05565b92915050565b6000806040838503121562000a505762000a4f62000991565b5b600062000a6085828601620009e4565b925050602062000a738582860162000a1f565b9150509250929050565b60805160a05161093762000aa260003960006101ed01526000605701526109376000f3fe60806040526004361061001e5760003560e01c80639c649fdf14610023575b600080fd5b61003d600480360381019061003891906104c9565b610053565b60405161004a919061056a565b60405180910390f35b60007f000000000000000000000000000000000000000000000000000000000000000073ffffffffffffffffffffffffffffffffffffffff163373ffffffffffffffffffffffffffffffffffffffff16146100e3576040517f08c379a00000000000000000000000000000000000000000000000000000000081526004016100da906105e2565b60405180910390fd5b60008054906101000a900473ffffffffffffffffffffffffffffffffffffffff1673ffffffffffffffffffffffffffffffffffffffff168673ffffffffffffffffffffffffffffffffffffffff1614801561014957506001548567ffffffffffffffff16145b610188576040517f08c379a000000000000000000000000000000000000000000000000000000000815260040161017f9061064e565b60405180910390fd5b6000848460009060049261019e93929190610678565b906101a991906106f7565b9050600085856004906024926101c193929190610678565b906101cc9190610760565b60001c9050366000878760249080926101e793929190610678565b915091507f00000000000000000000000000000000000000000000000000000000000000001561026c576004548314610255576040517f08c379a000000000000000000000000000000000000000000000000000000000815260040161024c9061080b565b60405180910390fd5b6004600081546102649061085a565b919050819055505b6103b260026000867bffffffffffffffffffffffffffffffffffffffffffffffffffffffff1916815260200190815260200160002060009054906101000a900480156103b2021767ffffffffffffffff16905060008115905060006103228585600260008b7bffffffffffffffffffffffffffffffffffffffffffffffffffffffff1916815260200190815260200160002060009054906101000a900480156103b2021767ffffffffffffffff1663ffffffff16565b905060016002811115610338576103376108a3565b5b81600281111561034b5761034a6108a3565b5b14156103615760029750505050505050506103a9565b600280811115610374576103736108a3565b5b816002811115610387576103866108a3565b5b141561039d5760019750505050505050506103a9565b60009750505050505050505b95945050505050565b6103ba6108d2565b565b600080fd5b600080fd5b600073ffffffffffffffffffffffffffffffffffffffff82169050919050565b60006103f1826103c6565b9050919050565b610401816103e6565b811461040c57600080fd5b50565b60008135905061041e816103f8565b92915050565b600067ffffffffffffffff82169050919050565b61044181610424565b811461044c57600080fd5b50565b60008135905061045e81610438565b92915050565b600080fd5b600080fd5b600080fd5b60008083601f84011261048957610488610464565b5b8235905067ffffffffffffffff8111156104a6576104a5610469565b5b6020830191508360018202830111156104c2576104c161046e565b5b9250929050565b6000806000806000608086880312156104e5576104e46103bc565b5b60006104f38882890161040f565b95505060206105048882890161044f565b945050604086013567ffffffffffffffff811115610525576105246103c1565b5b61053188828901610473565b935093505060606105448882890161040f565b9150509295509295909350565b6000819050919050565b61056481610551565b82525050565b600060208201905061057f600083018461055b565b92915050565b600082825260208201905092915050565b7f4e6f744d65737361676542757300000000000000000000000000000000000000600082015250565b60006105cc600d83610585565b91506105d782610596565b602082019050919050565b600060208201905081810360008301526105fb816105bf565b9050919050565b7f4e6f7452656d6f7465456e64706f696e74000000000000000000000000000000600082015250565b6000610638601183610585565b915061064382610602565b602082019050919050565b600060208201905081810360008301526106678161062b565b9050919050565b600080fd5b600080fd5b6000808585111561068c5761068b61066e565b5b8386111561069d5761069c610673565b5b6001850283019150848603905094509492505050565b600082905092915050565b60007fffffffff0000000000000000000000000000000000000000000000000000000082169050919050565b600082821b905092915050565b600061070383836106b3565b8261070e81356106be565b9250600482101561074e576107497fffffffff00000000000000000000000000000000000000000000000000000000836004036008026106ea565b831692505b505092915050565b6000819050919050565b600061076c83836106b3565b826107778135610756565b925060208210156107b7576107b27fffffffffffffffffffffffffffffffffffffffffffffffffffffffffffffffff836020036008026106ea565b831692505b505092915050565b7f57726f6e675365714e756d000000000000000000000000000000000000000000600082015250565b60006107f5600b83610585565b9150610800826107bf565b602082019050919050565b60006020820190508181036000830152610824816107e8565b9050919050565b7f4e487b7100000000000000000000000000000000000000000000000000000000600052601160045260246000fd5b600061086582610551565b91507fffffffffffffffffffffffffffffffffffffffffffffffffffffffffffffffff8214156108985761089761082b565b5b600182019050919050565b7f4e487b7100000000000000000000000000000000000000000000000000000000600052602160045260246000fd5b7f4e487b7100000000000000000000000000000000000000000000000000000000600052605160045260246000fdfea2646970667358221220d07899566c345e9d98d7991c429355749a9e4e88b49e911200166317970ac45564736f6c634300080c0033","opcodes":"PUSH1 0xC0 PUSH1 0x40 MSTORE CALLVALUE DUP1 ISZERO PUSH3 0x11 JUMPI PUSH1 0x0 DUP1 REVERT JUMPDEST POP PUSH1 0x40 MLOAD PUSH3 0x13D9 CODESIZE SUB DUP1 PUSH3 0x13D9 DUP4 CODECOPY DUP2 DUP2 ADD PUSH1 0x40 MSTORE DUP2 ADD SWAP1 PUSH3 0x37 SWAP2 SWAP1 PUSH3 0xA36 JUMP JUMPDEST DUP2 DUP2 DUP2 PUSH3 0x4B DUP3 PUSH3 0x1EC PUSH1 0x20 SHL PUSH1 0x20 SHR JUMP JUMPDEST PUSH3 0x5D DUP5 DUP5 PUSH3 0x239 PUSH1 0x20 SHL PUSH1 0x20 SHR JUMP JUMPDEST PUSH1 0x0 DUP1 PUSH20 0xFFFFFFFFFFFFFFFFFFFFFFFFFFFFFFFFFFFFFFFF AND DUP5 PUSH20 0xFFFFFFFFFFFFFFFFFFFFFFFFFFFFFFFFFFFFFFFF AND EQ ISZERO PUSH3 0xC6 JUMPI PUSH1 0x40 MLOAD PUSH32 0x5F9997DF00000000000000000000000000000000000000000000000000000000 DUP2 MSTORE PUSH1 0x4 ADD PUSH1 0x40 MLOAD DUP1 SWAP2 SUB SWAP1 REVERT JUMPDEST PUSH1 0x0 DUP4 EQ ISZERO PUSH3 0x102 JUMPI PUSH1 0x40 MLOAD PUSH32 0xA9E2223000000000000000000000000000000000000000000000000000000000 DUP2 MSTORE PUSH1 0x4 ADD PUSH1 0x40 MLOAD DUP1 SWAP2 SUB SWAP1 REVERT JUMPDEST DUP4 PUSH1 0x0 DUP1 PUSH2 0x100 EXP DUP2 SLOAD DUP2 PUSH20 0xFFFFFFFFFFFFFFFFFFFFFFFFFFFFFFFFFFFFFFFF MUL NOT AND SWAP1 DUP4 PUSH20 0xFFFFFFFFFFFFFFFFFFFFFFFFFFFFFFFFFFFFFFFF AND MUL OR SWAP1 SSTORE POP DUP3 PUSH1 0x1 DUP2 SWAP1 SSTORE POP DUP2 PUSH20 0xFFFFFFFFFFFFFFFFFFFFFFFFFFFFFFFFFFFFFFFF AND PUSH1 0x80 DUP2 PUSH20 0xFFFFFFFFFFFFFFFFFFFFFFFFFFFFFFFFFFFFFFFF AND DUP2 MSTORE POP POP DUP1 ISZERO ISZERO PUSH1 0xA0 DUP2 ISZERO ISZERO DUP2 MSTORE POP POP PUSH3 0x199 PUSH3 0x28E PUSH1 0x20 SHL PUSH1 0x20 SHR JUMP JUMPDEST ISZERO DUP1 ISZERO PUSH3 0x1A6 JUMPI POP CHAINID DUP4 EQ JUMPDEST ISZERO PUSH3 0x1DE JUMPI PUSH1 0x40 MLOAD PUSH32 0xDBF02D7C00000000000000000000000000000000000000000000000000000000 DUP2 MSTORE PUSH1 0x4 ADD PUSH1 0x40 MLOAD DUP1 SWAP2 SUB SWAP1 REVERT JUMPDEST POP POP POP POP POP POP POP POP PUSH3 0xA7D JUMP JUMPDEST PUSH1 0x0 PUSH32 0x6C6F63616C000000000000000000000000000000000000000000000000000000 DUP3 EQ ISZERO PUSH3 0x220 JUMPI CHAINID SWAP1 POP PUSH3 0x234 JUMP JUMPDEST PUSH3 0x231 DUP3 PUSH3 0x2F5 PUSH1 0x20 SHL PUSH1 0x20 SHR JUMP JUMPDEST SWAP1 POP JUMPDEST SWAP2 SWAP1 POP JUMP JUMPDEST PUSH1 0x0 PUSH32 0x6C6F63616C000000000000000000000000000000000000000000000000000000 DUP3 EQ ISZERO PUSH3 0x26D JUMPI DUP3 SWAP1 POP PUSH3 0x288 JUMP JUMPDEST PUSH1 0x0 PUSH3 0x280 CHAINID PUSH3 0x670 PUSH1 0x20 SHL PUSH1 0x20 SHR JUMP JUMPDEST POP SWAP1 POP DUP1 SWAP2 POP POP JUMPDEST SWAP3 SWAP2 POP POP JUMP JUMPDEST PUSH1 0x0 DUP1 PUSH1 0x0 SWAP1 SLOAD SWAP1 PUSH2 0x100 EXP SWAP1 DIV PUSH20 0xFFFFFFFFFFFFFFFFFFFFFFFFFFFFFFFFFFFFFFFF AND PUSH20 0xFFFFFFFFFFFFFFFFFFFFFFFFFFFFFFFFFFFFFFFF AND PUSH1 0x80 MLOAD PUSH20 0xFFFFFFFFFFFFFFFFFFFFFFFFFFFFFFFFFFFFFFFF AND EQ DUP1 ISZERO PUSH3 0x2F0 JUMPI POP PUSH1 0x1 SLOAD CHAINID EQ JUMPDEST SWAP1 POP SWAP1 JUMP JUMPDEST PUSH1 0x0 PUSH32 0x657468657265756D000000000000000000000000000000000000000000000000 DUP3 EQ ISZERO PUSH3 0x32A JUMPI PUSH1 0x1 SWAP1 POP PUSH3 0x66B JUMP JUMPDEST PUSH32 0x676F65726C690000000000000000000000000000000000000000000000000000 DUP3 EQ ISZERO PUSH3 0x35D JUMPI PUSH1 0x5 SWAP1 POP PUSH3 0x66B JUMP JUMPDEST PUSH32 0x6F7074696D69736D000000000000000000000000000000000000000000000000 DUP3 EQ ISZERO PUSH3 0x390 JUMPI PUSH1 0xA SWAP1 POP PUSH3 0x66B JUMP JUMPDEST PUSH32 0x6273630000000000000000000000000000000000000000000000000000000000 DUP3 EQ ISZERO PUSH3 0x3C3 JUMPI PUSH1 0x38 SWAP1 POP PUSH3 0x66B JUMP JUMPDEST PUSH32 0x6273632D746573746E6574000000000000000000000000000000000000000000 DUP3 EQ ISZERO PUSH3 0x3F6 JUMPI PUSH1 0x61 SWAP1 POP PUSH3 0x66B JUMP JUMPDEST PUSH32 0x706F6C79676F6E00000000000000000000000000000000000000000000000000 DUP3 EQ ISZERO PUSH3 0x429 JUMPI PUSH1 0x89 SWAP1 POP PUSH3 0x66B JUMP JUMPDEST PUSH32 0x66616E746F6D0000000000000000000000000000000000000000000000000000 DUP3 EQ ISZERO PUSH3 0x45C JUMPI PUSH1 0xFA SWAP1 POP PUSH3 0x66B JUMP JUMPDEST PUSH32 0x66616E746F6D2D746573746E6574000000000000000000000000000000000000 DUP3 EQ ISZERO PUSH3 0x490 JUMPI PUSH2 0xFA2 SWAP1 POP PUSH3 0x66B JUMP JUMPDEST PUSH32 0x6D6F6F6E72697665720000000000000000000000000000000000000000000000 DUP3 EQ ISZERO PUSH3 0x4C4 JUMPI PUSH2 0x505 SWAP1 POP PUSH3 0x66B JUMP JUMPDEST PUSH32 0x617262697472756D2D6F6E650000000000000000000000000000000000000000 DUP3 EQ ISZERO PUSH3 0x4F8 JUMPI PUSH2 0xA4B1 SWAP1 POP PUSH3 0x66B JUMP JUMPDEST PUSH32 0x617262697472756D2D6E6F766100000000000000000000000000000000000000 DUP3 EQ ISZERO PUSH3 0x52C JUMPI PUSH2 0xA4BA SWAP1 POP PUSH3 0x66B JUMP JUMPDEST PUSH32 0x7361707068697265000000000000000000000000000000000000000000000000 DUP3 EQ ISZERO PUSH3 0x560 JUMPI PUSH2 0x5AFE SWAP1 POP PUSH3 0x66B JUMP JUMPDEST PUSH32 0x73617070686972652D746573746E657400000000000000000000000000000000 DUP3 EQ ISZERO PUSH3 0x594 JUMPI PUSH2 0x5AFF SWAP1 POP PUSH3 0x66B JUMP JUMPDEST PUSH32 0x706F6C79676F6E2D6D756D626169000000000000000000000000000000000000 DUP3 EQ ISZERO PUSH3 0x5C9 JUMPI PUSH3 0x13881 SWAP1 POP PUSH3 0x66B JUMP JUMPDEST PUSH32 0x6176616C616E6368650000000000000000000000000000000000000000000000 DUP3 EQ ISZERO PUSH3 0x5FD JUMPI PUSH2 0xA86A SWAP1 POP PUSH3 0x66B JUMP JUMPDEST PUSH32 0x6176616C616E6368652D66756A69000000000000000000000000000000000000 DUP3 EQ ISZERO PUSH3 0x631 JUMPI PUSH2 0xA931 SWAP1 POP PUSH3 0x66B JUMP JUMPDEST PUSH32 0x617262697472756D2D746573746E657400000000000000000000000000000000 DUP3 EQ ISZERO PUSH3 0x666 JUMPI PUSH3 0x66EEB SWAP1 POP PUSH3 0x66B JUMP JUMPDEST PUSH1 0x0 SWAP1 POP JUMPDEST SWAP2 SWAP1 POP JUMP JUMPDEST PUSH1 0x0 DUP1 PUSH1 0x1 DUP4 EQ ISZERO PUSH3 0x69E JUMPI PUSH20 0x4066D196A423B2B3B8B054F4F40EFB47A74E200C PUSH1 0x0 SWAP2 POP SWAP2 POP PUSH3 0x98C JUMP JUMPDEST PUSH1 0x5 DUP4 EQ ISZERO PUSH3 0x6C9 JUMPI PUSH20 0xF25170F86E4291A99A9A560032FE9948B8BCFBB2 PUSH1 0x1 SWAP2 POP SWAP2 POP PUSH3 0x98C JUMP JUMPDEST PUSH1 0xA DUP4 EQ ISZERO PUSH3 0x6F4 JUMPI PUSH20 0xD71D18126E03646EB09FEC929E2AE87B7CAE69D PUSH1 0x0 SWAP2 POP SWAP2 POP PUSH3 0x98C JUMP JUMPDEST PUSH1 0x38 DUP4 EQ ISZERO PUSH3 0x71F JUMPI PUSH20 0x95714818FDD7A5454F73DA9C777B3EE6EBAEEA6B PUSH1 0x0 SWAP2 POP SWAP2 POP PUSH3 0x98C JUMP JUMPDEST PUSH1 0x61 DUP4 EQ ISZERO PUSH3 0x74A JUMPI PUSH20 0xAD204986D6CB67A5BC76A3CB8974823F43CB9AAA PUSH1 0x1 SWAP2 POP SWAP2 POP PUSH3 0x98C JUMP JUMPDEST PUSH1 0x89 DUP4 EQ ISZERO PUSH3 0x775 JUMPI PUSH20 0xAFDB9C40C7144022811F034EE07CE2E110093FE6 PUSH1 0x0 SWAP2 POP SWAP2 POP PUSH3 0x98C JUMP JUMPDEST PUSH1 0xFA DUP4 EQ ISZERO PUSH3 0x7A0 JUMPI PUSH20 0xFF4E183A0CEB4FA98E63BBF8077B929C8E5A2BA4 PUSH1 0x0 SWAP2 POP SWAP2 POP PUSH3 0x98C JUMP JUMPDEST PUSH2 0xFA2 DUP4 EQ ISZERO PUSH3 0x7CC JUMPI PUSH20 0xB92D6933A024BCCA9A21669A480C236CBC973110 PUSH1 0x1 SWAP2 POP SWAP2 POP PUSH3 0x98C JUMP JUMPDEST PUSH2 0x505 DUP4 EQ ISZERO PUSH3 0x7F8 JUMPI PUSH20 0x940DAABA3F713ABFABD79CDD991466FE698CBE54 PUSH1 0x0 SWAP2 POP SWAP2 POP PUSH3 0x98C JUMP JUMPDEST PUSH2 0x5AFE DUP4 EQ ISZERO PUSH3 0x824 JUMPI PUSH20 0x9BB46D5100D2DB4608112026951C9C965B233F4D PUSH1 0x0 SWAP2 POP SWAP2 POP PUSH3 0x98C JUMP JUMPDEST PUSH2 0x5AFF DUP4 EQ ISZERO PUSH3 0x850 JUMPI PUSH20 0x9BB46D5100D2DB4608112026951C9C965B233F4D PUSH1 0x1 SWAP2 POP SWAP2 POP PUSH3 0x98C JUMP JUMPDEST PUSH2 0xA4B1 DUP4 EQ ISZERO PUSH3 0x87C JUMPI PUSH20 0x3AD9D0648CDAA2426331E894E980D0A5ED16257F PUSH1 0x0 SWAP2 POP SWAP2 POP PUSH3 0x98C JUMP JUMPDEST PUSH2 0xA4BA DUP4 EQ ISZERO PUSH3 0x8A8 JUMPI PUSH20 0xF5C6825015280CDFD0B56903F9F8B5A2233476F5 PUSH1 0x0 SWAP2 POP SWAP2 POP PUSH3 0x98C JUMP JUMPDEST PUSH2 0xA869 DUP4 EQ ISZERO PUSH3 0x8D4 JUMPI PUSH20 0xE9533976C590200E32D95C53F06AE12D292CFC47 PUSH1 0x1 SWAP2 POP SWAP2 POP PUSH3 0x98C JUMP JUMPDEST PUSH2 0xA86A DUP4 EQ ISZERO PUSH3 0x900 JUMPI PUSH20 0x5A926EEEAFC4D217ADD17E9641E8CE23CD01AD57 PUSH1 0x0 SWAP2 POP SWAP2 POP PUSH3 0x98C JUMP JUMPDEST PUSH3 0x13881 DUP4 EQ ISZERO PUSH3 0x92D JUMPI PUSH20 0x7D43AABC515C356145049227CEE54B608342C0AD PUSH1 0x1 SWAP2 POP SWAP2 POP PUSH3 0x98C JUMP JUMPDEST PUSH3 0x66EEB DUP4 EQ ISZERO PUSH3 0x95A JUMPI PUSH20 0x7D43AABC515C356145049227CEE54B608342C0AD PUSH1 0x1 SWAP2 POP SWAP2 POP PUSH3 0x98C JUMP JUMPDEST PUSH1 0x40 MLOAD PUSH32 0x11E9F92400000000000000000000000000000000000000000000000000000000 DUP2 MSTORE PUSH1 0x4 ADD PUSH1 0x40 MLOAD DUP1 SWAP2 SUB SWAP1 REVERT JUMPDEST SWAP2 POP SWAP2 JUMP JUMPDEST PUSH1 0x0 DUP1 REVERT JUMPDEST PUSH1 0x0 PUSH20 0xFFFFFFFFFFFFFFFFFFFFFFFFFFFFFFFFFFFFFFFF DUP3 AND SWAP1 POP SWAP2 SWAP1 POP JUMP JUMPDEST PUSH1 0x0 PUSH3 0x9C3 DUP3 PUSH3 0x996 JUMP JUMPDEST SWAP1 POP SWAP2 SWAP1 POP JUMP JUMPDEST PUSH3 0x9D5 DUP2 PUSH3 0x9B6 JUMP JUMPDEST DUP2 EQ PUSH3 0x9E1 JUMPI PUSH1 0x0 DUP1 REVERT JUMPDEST POP JUMP JUMPDEST PUSH1 0x0 DUP2 MLOAD SWAP1 POP PUSH3 0x9F5 DUP2 PUSH3 0x9CA JUMP JUMPDEST SWAP3 SWAP2 POP POP JUMP JUMPDEST PUSH1 0x0 DUP2 SWAP1 POP SWAP2 SWAP1 POP JUMP JUMPDEST PUSH3 0xA10 DUP2 PUSH3 0x9FB JUMP JUMPDEST DUP2 EQ PUSH3 0xA1C JUMPI PUSH1 0x0 DUP1 REVERT JUMPDEST POP JUMP JUMPDEST PUSH1 0x0 DUP2 MLOAD SWAP1 POP PUSH3 0xA30 DUP2 PUSH3 0xA05 JUMP JUMPDEST SWAP3 SWAP2 POP POP JUMP JUMPDEST PUSH1 0x0 DUP1 PUSH1 0x40 DUP4 DUP6 SUB SLT ISZERO PUSH3 0xA50 JUMPI PUSH3 0xA4F PUSH3 0x991 JUMP JUMPDEST JUMPDEST PUSH1 0x0 PUSH3 0xA60 DUP6 DUP3 DUP7 ADD PUSH3 0x9E4 JUMP JUMPDEST SWAP3 POP POP PUSH1 0x20 PUSH3 0xA73 DUP6 DUP3 DUP7 ADD PUSH3 0xA1F JUMP JUMPDEST SWAP2 POP POP SWAP3 POP SWAP3 SWAP1 POP JUMP JUMPDEST PUSH1 0x80 MLOAD PUSH1 0xA0 MLOAD PUSH2 0x937 PUSH3 0xAA2 PUSH1 0x0 CODECOPY PUSH1 0x0 PUSH2 0x1ED ADD MSTORE PUSH1 0x0 PUSH1 0x57 ADD MSTORE PUSH2 0x937 PUSH1 0x0 RETURN INVALID PUSH1 0x80 PUSH1 0x40 MSTORE PUSH1 0x4 CALLDATASIZE LT PUSH2 0x1E JUMPI PUSH1 0x0 CALLDATALOAD PUSH1 0xE0 SHR DUP1 PUSH4 0x9C649FDF EQ PUSH2 0x23 JUMPI JUMPDEST PUSH1 0x0 DUP1 REVERT JUMPDEST PUSH2 0x3D PUSH1 0x4 DUP1 CALLDATASIZE SUB DUP2 ADD SWAP1 PUSH2 0x38 SWAP2 SWAP1 PUSH2 0x4C9 JUMP JUMPDEST PUSH2 0x53 JUMP JUMPDEST PUSH1 0x40 MLOAD PUSH2 0x4A SWAP2 SWAP1 PUSH2 0x56A JUMP JUMPDEST PUSH1 0x40 MLOAD DUP1 SWAP2 SUB SWAP1 RETURN JUMPDEST PUSH1 0x0 PUSH32 0x0 PUSH20 0xFFFFFFFFFFFFFFFFFFFFFFFFFFFFFFFFFFFFFFFF AND CALLER PUSH20 0xFFFFFFFFFFFFFFFFFFFFFFFFFFFFFFFFFFFFFFFF AND EQ PUSH2 0xE3 JUMPI PUSH1 0x40 MLOAD PUSH32 0x8C379A000000000000000000000000000000000000000000000000000000000 DUP2 MSTORE PUSH1 0x4 ADD PUSH2 0xDA SWAP1 PUSH2 0x5E2 JUMP JUMPDEST PUSH1 0x40 MLOAD DUP1 SWAP2 SUB SWAP1 REVERT JUMPDEST PUSH1 0x0 DUP1 SLOAD SWAP1 PUSH2 0x100 EXP SWAP1 DIV PUSH20 0xFFFFFFFFFFFFFFFFFFFFFFFFFFFFFFFFFFFFFFFF AND PUSH20 0xFFFFFFFFFFFFFFFFFFFFFFFFFFFFFFFFFFFFFFFF AND DUP7 PUSH20 0xFFFFFFFFFFFFFFFFFFFFFFFFFFFFFFFFFFFFFFFF AND EQ DUP1 ISZERO PUSH2 0x149 JUMPI POP PUSH1 0x1 SLOAD DUP6 PUSH8 0xFFFFFFFFFFFFFFFF AND EQ JUMPDEST PUSH2 0x188 JUMPI PUSH1 0x40 MLOAD PUSH32 0x8C379A000000000000000000000000000000000000000000000000000000000 DUP2 MSTORE PUSH1 0x4 ADD PUSH2 0x17F SWAP1 PUSH2 0x64E JUMP JUMPDEST PUSH1 0x40 MLOAD DUP1 SWAP2 SUB SWAP1 REVERT JUMPDEST PUSH1 0x0 DUP5 DUP5 PUSH1 0x0 SWAP1 PUSH1 0x4 SWAP3 PUSH2 0x19E SWAP4 SWAP3 SWAP2 SWAP1 PUSH2 0x678 JUMP JUMPDEST SWAP1 PUSH2 0x1A9 SWAP2 SWAP1 PUSH2 0x6F7 JUMP JUMPDEST SWAP1 POP PUSH1 0x0 DUP6 DUP6 PUSH1 0x4 SWAP1 PUSH1 0x24 SWAP3 PUSH2 0x1C1 SWAP4 SWAP3 SWAP2 SWAP1 PUSH2 0x678 JUMP JUMPDEST SWAP1 PUSH2 0x1CC SWAP2 SWAP1 PUSH2 0x760 JUMP JUMPDEST PUSH1 0x0 SHR SWAP1 POP CALLDATASIZE PUSH1 0x0 DUP8 DUP8 PUSH1 0x24 SWAP1 DUP1 SWAP3 PUSH2 0x1E7 SWAP4 SWAP3 SWAP2 SWAP1 PUSH2 0x678 JUMP JUMPDEST SWAP2 POP SWAP2 POP PUSH32 0x0 ISZERO PUSH2 0x26C JUMPI PUSH1 0x4 SLOAD DUP4 EQ PUSH2 0x255 JUMPI PUSH1 0x40 MLOAD PUSH32 0x8C379A000000000000000000000000000000000000000000000000000000000 DUP2 MSTORE PUSH1 0x4 ADD PUSH2 0x24C SWAP1 PUSH2 0x80B JUMP JUMPDEST PUSH1 0x40 MLOAD DUP1 SWAP2 SUB SWAP1 REVERT JUMPDEST PUSH1 0x4 PUSH1 0x0 DUP2 SLOAD PUSH2 0x264 SWAP1 PUSH2 0x85A JUMP JUMPDEST SWAP2 SWAP1 POP DUP2 SWAP1 SSTORE POP JUMPDEST PUSH2 0x3B2 PUSH1 0x2 PUSH1 0x0 DUP7 PUSH28 0xFFFFFFFFFFFFFFFFFFFFFFFFFFFFFFFFFFFFFFFFFFFFFFFFFFFFFFFF NOT AND DUP2 MSTORE PUSH1 0x20 ADD SWAP1 DUP2 MSTORE PUSH1 0x20 ADD PUSH1 0x0 KECCAK256 PUSH1 0x0 SWAP1 SLOAD SWAP1 PUSH2 0x100 EXP SWAP1 DIV DUP1 ISZERO PUSH2 0x3B2 MUL OR PUSH8 0xFFFFFFFFFFFFFFFF AND SWAP1 POP PUSH1 0x0 DUP2 ISZERO SWAP1 POP PUSH1 0x0 PUSH2 0x322 DUP6 DUP6 PUSH1 0x2 PUSH1 0x0 DUP12 PUSH28 0xFFFFFFFFFFFFFFFFFFFFFFFFFFFFFFFFFFFFFFFFFFFFFFFFFFFFFFFF NOT AND DUP2 MSTORE PUSH1 0x20 ADD SWAP1 DUP2 MSTORE PUSH1 0x20 ADD PUSH1 0x0 KECCAK256 PUSH1 0x0 SWAP1 SLOAD SWAP1 PUSH2 0x100 EXP SWAP1 DIV DUP1 ISZERO PUSH2 0x3B2 MUL OR PUSH8 0xFFFFFFFFFFFFFFFF AND PUSH4 0xFFFFFFFF AND JUMP JUMPDEST SWAP1 POP PUSH1 0x1 PUSH1 0x2 DUP2 GT ISZERO PUSH2 0x338 JUMPI PUSH2 0x337 PUSH2 0x8A3 JUMP JUMPDEST JUMPDEST DUP2 PUSH1 0x2 DUP2 GT ISZERO PUSH2 0x34B JUMPI PUSH2 0x34A PUSH2 0x8A3 JUMP JUMPDEST JUMPDEST EQ ISZERO PUSH2 0x361 JUMPI PUSH1 0x2 SWAP8 POP POP POP POP POP POP POP POP PUSH2 0x3A9 JUMP JUMPDEST PUSH1 0x2 DUP1 DUP2 GT ISZERO PUSH2 0x374 JUMPI PUSH2 0x373 PUSH2 0x8A3 JUMP JUMPDEST JUMPDEST DUP2 PUSH1 0x2 DUP2 GT ISZERO PUSH2 0x387 JUMPI PUSH2 0x386 PUSH2 0x8A3 JUMP JUMPDEST JUMPDEST EQ ISZERO PUSH2 0x39D JUMPI PUSH1 0x1 SWAP8 POP POP POP POP POP POP POP POP PUSH2 0x3A9 JUMP JUMPDEST PUSH1 0x0 SWAP8 POP POP POP POP POP POP POP POP JUMPDEST SWAP6 SWAP5 POP POP POP POP POP JUMP JUMPDEST PUSH2 0x3BA PUSH2 0x8D2 JUMP JUMPDEST JUMP JUMPDEST PUSH1 0x0 DUP1 REVERT JUMPDEST PUSH1 0x0 DUP1 REVERT JUMPDEST PUSH1 0x0 PUSH20 0xFFFFFFFFFFFFFFFFFFFFFFFFFFFFFFFFFFFFFFFF DUP3 AND SWAP1 POP SWAP2 SWAP1 POP JUMP JUMPDEST PUSH1 0x0 PUSH2 0x3F1 DUP3 PUSH2 0x3C6 JUMP JUMPDEST SWAP1 POP SWAP2 SWAP1 POP JUMP JUMPDEST PUSH2 0x401 DUP2 PUSH2 0x3E6 JUMP JUMPDEST DUP2 EQ PUSH2 0x40C JUMPI PUSH1 0x0 DUP1 REVERT JUMPDEST POP JUMP JUMPDEST PUSH1 0x0 DUP2 CALLDATALOAD SWAP1 POP PUSH2 0x41E DUP2 PUSH2 0x3F8 JUMP JUMPDEST SWAP3 SWAP2 POP POP JUMP JUMPDEST PUSH1 0x0 PUSH8 0xFFFFFFFFFFFFFFFF DUP3 AND SWAP1 POP SWAP2 SWAP1 POP JUMP JUMPDEST PUSH2 0x441 DUP2 PUSH2 0x424 JUMP JUMPDEST DUP2 EQ PUSH2 0x44C JUMPI PUSH1 0x0 DUP1 REVERT JUMPDEST POP JUMP JUMPDEST PUSH1 0x0 DUP2 CALLDATALOAD SWAP1 POP PUSH2 0x45E DUP2 PUSH2 0x438 JUMP JUMPDEST SWAP3 SWAP2 POP POP JUMP JUMPDEST PUSH1 0x0 DUP1 REVERT JUMPDEST PUSH1 0x0 DUP1 REVERT JUMPDEST PUSH1 0x0 DUP1 REVERT JUMPDEST PUSH1 0x0 DUP1 DUP4 PUSH1 0x1F DUP5 ADD SLT PUSH2 0x489 JUMPI PUSH2 0x488 PUSH2 0x464 JUMP JUMPDEST JUMPDEST DUP3 CALLDATALOAD SWAP1 POP PUSH8 0xFFFFFFFFFFFFFFFF DUP2 GT ISZERO PUSH2 0x4A6 JUMPI PUSH2 0x4A5 PUSH2 0x469 JUMP JUMPDEST JUMPDEST PUSH1 0x20 DUP4 ADD SWAP2 POP DUP4 PUSH1 0x1 DUP3 MUL DUP4 ADD GT ISZERO PUSH2 0x4C2 JUMPI PUSH2 0x4C1 PUSH2 0x46E JUMP JUMPDEST JUMPDEST SWAP3 POP SWAP3 SWAP1 POP JUMP JUMPDEST PUSH1 0x0 DUP1 PUSH1 0x0 DUP1 PUSH1 0x0 PUSH1 0x80 DUP7 DUP9 SUB SLT ISZERO PUSH2 0x4E5 JUMPI PUSH2 0x4E4 PUSH2 0x3BC JUMP JUMPDEST JUMPDEST PUSH1 0x0 PUSH2 0x4F3 DUP9 DUP3 DUP10 ADD PUSH2 0x40F JUMP JUMPDEST SWAP6 POP POP PUSH1 0x20 PUSH2 0x504 DUP9 DUP3 DUP10 ADD PUSH2 0x44F JUMP JUMPDEST SWAP5 POP POP PUSH1 0x40 DUP7 ADD CALLDATALOAD PUSH8 0xFFFFFFFFFFFFFFFF DUP2 GT ISZERO PUSH2 0x525 JUMPI PUSH2 0x524 PUSH2 0x3C1 JUMP JUMPDEST JUMPDEST PUSH2 0x531 DUP9 DUP3 DUP10 ADD PUSH2 0x473 JUMP JUMPDEST SWAP4 POP SWAP4 POP POP PUSH1 0x60 PUSH2 0x544 DUP9 DUP3 DUP10 ADD PUSH2 0x40F JUMP JUMPDEST SWAP2 POP POP SWAP3 SWAP6 POP SWAP3 SWAP6 SWAP1 SWAP4 POP JUMP JUMPDEST PUSH1 0x0 DUP2 SWAP1 POP SWAP2 SWAP1 POP JUMP JUMPDEST PUSH2 0x564 DUP2 PUSH2 0x551 JUMP JUMPDEST DUP3 MSTORE POP POP JUMP JUMPDEST PUSH1 0x0 PUSH1 0x20 DUP3 ADD SWAP1 POP PUSH2 0x57F PUSH1 0x0 DUP4 ADD DUP5 PUSH2 0x55B JUMP JUMPDEST SWAP3 SWAP2 POP POP JUMP JUMPDEST PUSH1 0x0 DUP3 DUP3 MSTORE PUSH1 0x20 DUP3 ADD SWAP1 POP SWAP3 SWAP2 POP POP JUMP JUMPDEST PUSH32 0x4E6F744D65737361676542757300000000000000000000000000000000000000 PUSH1 0x0 DUP3 ADD MSTORE POP JUMP JUMPDEST PUSH1 0x0 PUSH2 0x5CC PUSH1 0xD DUP4 PUSH2 0x585 JUMP JUMPDEST SWAP2 POP PUSH2 0x5D7 DUP3 PUSH2 0x596 JUMP JUMPDEST PUSH1 0x20 DUP3 ADD SWAP1 POP SWAP2 SWAP1 POP JUMP JUMPDEST PUSH1 0x0 PUSH1 0x20 DUP3 ADD SWAP1 POP DUP2 DUP2 SUB PUSH1 0x0 DUP4 ADD MSTORE PUSH2 0x5FB DUP2 PUSH2 0x5BF JUMP JUMPDEST SWAP1 POP SWAP2 SWAP1 POP JUMP JUMPDEST PUSH32 0x4E6F7452656D6F7465456E64706F696E74000000000000000000000000000000 PUSH1 0x0 DUP3 ADD MSTORE POP JUMP JUMPDEST PUSH1 0x0 PUSH2 0x638 PUSH1 0x11 DUP4 PUSH2 0x585 JUMP JUMPDEST SWAP2 POP PUSH2 0x643 DUP3 PUSH2 0x602 JUMP JUMPDEST PUSH1 0x20 DUP3 ADD SWAP1 POP SWAP2 SWAP1 POP JUMP JUMPDEST PUSH1 0x0 PUSH1 0x20 DUP3 ADD SWAP1 POP DUP2 DUP2 SUB PUSH1 0x0 DUP4 ADD MSTORE PUSH2 0x667 DUP2 PUSH2 0x62B JUMP JUMPDEST SWAP1 POP SWAP2 SWAP1 POP JUMP JUMPDEST PUSH1 0x0 DUP1 REVERT JUMPDEST PUSH1 0x0 DUP1 REVERT JUMPDEST PUSH1 0x0 DUP1 DUP6 DUP6 GT ISZERO PUSH2 0x68C JUMPI PUSH2 0x68B PUSH2 0x66E JUMP JUMPDEST JUMPDEST DUP4 DUP7 GT ISZERO PUSH2 0x69D JUMPI PUSH2 0x69C PUSH2 0x673 JUMP JUMPDEST JUMPDEST PUSH1 0x1 DUP6 MUL DUP4 ADD SWAP2 POP DUP5 DUP7 SUB SWAP1 POP SWAP5 POP SWAP5 SWAP3 POP POP POP JUMP JUMPDEST PUSH1 0x0 DUP3 SWAP1 POP SWAP3 SWAP2 POP POP JUMP JUMPDEST PUSH1 0x0 PUSH32 0xFFFFFFFF00000000000000000000000000000000000000000000000000000000 DUP3 AND SWAP1 POP SWAP2 SWAP1 POP JUMP JUMPDEST PUSH1 0x0 DUP3 DUP3 SHL SWAP1 POP SWAP3 SWAP2 POP POP JUMP JUMPDEST PUSH1 0x0 PUSH2 0x703 DUP4 DUP4 PUSH2 0x6B3 JUMP JUMPDEST DUP3 PUSH2 0x70E DUP2 CALLDATALOAD PUSH2 0x6BE JUMP JUMPDEST SWAP3 POP PUSH1 0x4 DUP3 LT ISZERO PUSH2 0x74E JUMPI PUSH2 0x749 PUSH32 0xFFFFFFFF00000000000000000000000000000000000000000000000000000000 DUP4 PUSH1 0x4 SUB PUSH1 0x8 MUL PUSH2 0x6EA JUMP JUMPDEST DUP4 AND SWAP3 POP JUMPDEST POP POP SWAP3 SWAP2 POP POP JUMP JUMPDEST PUSH1 0x0 DUP2 SWAP1 POP SWAP2 SWAP1 POP JUMP JUMPDEST PUSH1 0x0 PUSH2 0x76C DUP4 DUP4 PUSH2 0x6B3 JUMP JUMPDEST DUP3 PUSH2 0x777 DUP2 CALLDATALOAD PUSH2 0x756 JUMP JUMPDEST SWAP3 POP PUSH1 0x20 DUP3 LT ISZERO PUSH2 0x7B7 JUMPI PUSH2 0x7B2 PUSH32 0xFFFFFFFFFFFFFFFFFFFFFFFFFFFFFFFFFFFFFFFFFFFFFFFFFFFFFFFFFFFFFFFF DUP4 PUSH1 0x20 SUB PUSH1 0x8 MUL PUSH2 0x6EA JUMP JUMPDEST DUP4 AND SWAP3 POP JUMPDEST POP POP SWAP3 SWAP2 POP POP JUMP JUMPDEST PUSH32 0x57726F6E675365714E756D000000000000000000000000000000000000000000 PUSH1 0x0 DUP3 ADD MSTORE POP JUMP JUMPDEST PUSH1 0x0 PUSH2 0x7F5 PUSH1 0xB DUP4 PUSH2 0x585 JUMP JUMPDEST SWAP2 POP PUSH2 0x800 DUP3 PUSH2 0x7BF JUMP JUMPDEST PUSH1 0x20 DUP3 ADD SWAP1 POP SWAP2 SWAP1 POP JUMP JUMPDEST PUSH1 0x0 PUSH1 0x20 DUP3 ADD SWAP1 POP DUP2 DUP2 SUB PUSH1 0x0 DUP4 ADD MSTORE PUSH2 0x824 DUP2 PUSH2 0x7E8 JUMP JUMPDEST SWAP1 POP SWAP2 SWAP1 POP JUMP JUMPDEST PUSH32 0x4E487B7100000000000000000000000000000000000000000000000000000000 PUSH1 0x0 MSTORE PUSH1 0x11 PUSH1 0x4 MSTORE PUSH1 0x24 PUSH1 0x0 REVERT JUMPDEST PUSH1 0x0 PUSH2 0x865 DUP3 PUSH2 0x551 JUMP JUMPDEST SWAP2 POP PUSH32 0xFFFFFFFFFFFFFFFFFFFFFFFFFFFFFFFFFFFFFFFFFFFFFFFFFFFFFFFFFFFFFFFF DUP3 EQ ISZERO PUSH2 0x898 JUMPI PUSH2 0x897 PUSH2 0x82B JUMP JUMPDEST JUMPDEST PUSH1 0x1 DUP3 ADD SWAP1 POP SWAP2 SWAP1 POP JUMP JUMPDEST PUSH32 0x4E487B7100000000000000000000000000000000000000000000000000000000 PUSH1 0x0 MSTORE PUSH1 0x21 PUSH1 0x4 MSTORE PUSH1 0x24 PUSH1 0x0 REVERT JUMPDEST PUSH32 0x4E487B7100000000000000000000000000000000000000000000000000000000 PUSH1 0x0 MSTORE PUSH1 0x51 PUSH1 0x4 MSTORE PUSH1 0x24 PUSH1 0x0 REVERT INVALID LOG2 PUSH5 0x6970667358 0x22 SLT KECCAK256 0xD0 PUSH25 0x99566C345E9D98D7991C429355749A9E4E88B49E9112001663 OR SWAP8 EXP 0xC4 SSTORE PUSH5 0x736F6C6343 STOP ADDMOD 0xC STOP CALLER "},"methodIdentifiers":{"executeMessage(address,uint64,bytes,address)":"9c649fdf"}}}}}