{"contracts/interfaces/KingOfTheHill.sol":{"KingOfTheHill":{"abi":[{"inputs":[{"internalType":"address","name":"_oceanTokenAddress","type":"address"}],"stateMutability":"nonpayable","type":"constructor"},{"anonymous":false,"inputs":[{"indexed":true,"internalType":"address","name":"king","type":"address"},{"indexed":false,"internalType":"uint256","name":"amount","type":"uint256"},{"indexed":false,"internalType":"uint256","name":"timestamp","type":"uint256"}],"name":"NewKing","type":"event"},{"anonymous":false,"inputs":[{"indexed":true,"internalType":"address","name":"sender","type":"address"},{"indexed":false,"internalType":"string","name":"content","type":"string"}],"name":"NewMessage","type":"event"},{"inputs":[{"internalType":"uint256","name":"amount","type":"uint256"}],"name":"claimThrone","outputs":[],"stateMutability":"nonpayable","type":"function"},{"inputs":[],"name":"commission","outputs":[{"internalType":"uint256","name":"","type":"uint256"}],"stateMutability":"view","type":"function"},{"inputs":[],"name":"currentKing","outputs":[{"internalType":"address","name":"","type":"address"}],"stateMutability":"view","type":"function"},{"inputs":[],"name":"currentPrize","outputs":[{"internalType":"uint256","name":"","type":"uint256"}],"stateMutability":"view","type":"function"},{"inputs":[],"name":"distributeRewards","outputs":[],"stateMutability":"nonpayable","type":"function"},{"inputs":[],"name":"distributionInterval","outputs":[{"internalType":"uint256","name":"","type":"uint256"}],"stateMutability":"view","type":"function"},{"inputs":[],"name":"getKingInfo","outputs":[{"internalType":"address","name":"king","type":"address"},{"internalType":"uint256","name":"prize","type":"uint256"},{"internalType":"uint256","name":"timeOnThrone","type":"uint256"}],"stateMutability":"view","type":"function"},{"inputs":[],"name":"getTopKings","outputs":[{"components":[{"internalType":"address","name":"addr","type":"address"},{"internalType":"uint256","name":"timeOnThrone","type":"uint256"}],"internalType":"struct KingOfTheHill.King[]","name":"","type":"tuple[]"}],"stateMutability":"view","type":"function"},{"inputs":[{"internalType":"uint256","name":"","type":"uint256"}],"name":"kings","outputs":[{"internalType":"address","name":"addr","type":"address"},{"internalType":"uint256","name":"timeOnThrone","type":"uint256"}],"stateMutability":"view","type":"function"},{"inputs":[],"name":"lastClaimTime","outputs":[{"internalType":"uint256","name":"","type":"uint256"}],"stateMutability":"view","type":"function"},{"inputs":[],"name":"lastDistributionTime","outputs":[{"internalType":"uint256","name":"","type":"uint256"}],"stateMutability":"view","type":"function"},{"inputs":[{"internalType":"uint256","name":"","type":"uint256"}],"name":"messages","outputs":[{"internalType":"address","name":"sender","type":"address"},{"internalType":"string","name":"content","type":"string"}],"stateMutability":"view","type":"function"},{"inputs":[],"name":"oceanToken","outputs":[{"internalType":"contract IERC20Template","name":"","type":"address"}],"stateMutability":"view","type":"function"},{"inputs":[{"internalType":"string","name":"content","type":"string"}],"name":"sendMessage","outputs":[],"stateMutability":"nonpayable","type":"function"},{"inputs":[],"name":"totalPrizePool","outputs":[{"internalType":"uint256","name":"","type":"uint256"}],"stateMutability":"view","type":"function"}],"evm":{"bytecode":{"linkReferences":{},"object":"6080604052610e106008553480156200001757600080fd5b5060405162001e0b38038062001e0b83398181016040528101906200003d9190620000f6565b80600960006101000a81548173ffffffffffffffffffffffffffffffffffffffff021916908373ffffffffffffffffffffffffffffffffffffffff160217905550426007819055505062000128565b600080fd5b600073ffffffffffffffffffffffffffffffffffffffff82169050919050565b6000620000be8262000091565b9050919050565b620000d081620000b1565b8114620000dc57600080fd5b50565b600081519050620000f081620000c5565b92915050565b6000602082840312156200010f576200010e6200008c565b5b60006200011f84828501620000df565b91505092915050565b611cd380620001386000396000f3fe608060405234801561001057600080fd5b50600436106100f55760003560e01c806371201a0e11610097578063c21bae0c11610066578063c21bae0c14610254578063c42b42a014610272578063e148919114610290578063f5b45714146102ae576100f5565b806371201a0e146101cb57806375b17350146101e95780638f67419d14610207578063b90c012714610238576100f5565b8063398ab9a7116100d3578063398ab9a714610169578063469c8110146101875780634a306990146101a35780636f4a2cd0146101c1576100f5565b80630d80fefd146100fa5780631250d0111461012b578063244bb7f01461014b575b600080fd5b610114600480360381019061010f9190611334565b6102cc565b60405161012292919061143b565b60405180910390f35b6101336103a8565b6040516101429392919061147a565b60405180910390f35b6101536103ec565b6040516101609190611510565b60405180910390f35b610171610412565b60405161017e919061152b565b60405180910390f35b6101a1600480360381019061019c919061167b565b610418565b005b6101ab610525565b6040516101b891906117c0565b60405180910390f35b6101c9610670565b005b6101d3610a4b565b6040516101e0919061152b565b60405180910390f35b6101f1610a51565b6040516101fe919061152b565b60405180910390f35b610221600480360381019061021c9190611334565b610a57565b60405161022f9291906117e2565b60405180910390f35b610252600480360381019061024d9190611334565b610aab565b005b61025c610d47565b604051610269919061152b565b60405180910390f35b61027a610d4d565b604051610287919061152b565b60405180910390f35b610298610d53565b6040516102a5919061152b565b60405180910390f35b6102b6610d59565b6040516102c3919061180b565b60405180910390f35b600081815481106102dc57600080fd5b90600052602060002090600202016000915090508060000160009054906101000a900473ffffffffffffffffffffffffffffffffffffffff169080600101805461032590611855565b80601f016020809104026020016040519081016040528092919081815260200182805461035190611855565b801561039e5780601f106103735761010080835404028352916020019161039e565b820191906000526020600020905b81548152906001019060200180831161038157829003601f168201915b5050505050905082565b6000806000600260009054906101000a900473ffffffffffffffffffffffffffffffffffffffff16600454600354426103e191906118b6565b925092509250909192565b600960009054906101000a900473ffffffffffffffffffffffffffffffffffffffff1681565b60055481565b600060405180604001604052803373ffffffffffffffffffffffffffffffffffffffff16815260200183815250908060018154018082558091505060019003906000526020600020906002020160009091909190915060008201518160000160006101000a81548173ffffffffffffffffffffffffffffffffffffffff021916908373ffffffffffffffffffffffffffffffffffffffff16021790555060208201518160010190805190602001906104d19291906111ad565b5050503373ffffffffffffffffffffffffffffffffffffffff167f8da45d748eefefd09cc1491cd32086b6d6a0bd7063d08f05c94df9eb1404bd808260405161051a91906118ea565b60405180910390a250565b60606000600a6001805490501061053d57600a610544565b6001805490505b905060008167ffffffffffffffff81111561056257610561611550565b5b60405190808252806020026020018201604052801561059b57816020015b610588611233565b8152602001906001900390816105805790505b50905060005b8281101561066757600181815481106105bd576105bc61190c565b5b90600052602060002090600202016040518060400160405290816000820160009054906101000a900473ffffffffffffffffffffffffffffffffffffffff1673ffffffffffffffffffffffffffffffffffffffff1673ffffffffffffffffffffffffffffffffffffffff1681526020016001820154815250508282815181106106495761064861190c565b5b6020026020010181905250808061065f9061193b565b9150506105a1565b50809250505090565b6000600180549050116106b8576040517f08c379a00000000000000000000000000000000000000000000000000000000081526004016106af906119d0565b60405180910390fd5b6106c0610d7f565b60006005549050600060646032836106d891906119f0565b6106e29190611a79565b905060006064601e846106f591906119f0565b6106ff9190611a79565b905060006064600f8561071291906119f0565b61071c9190611a79565b9050606460058561072d91906119f0565b6107379190611a79565b600660008282546107489190611aaa565b925050819055506000600180549050111561084557600960009054906101000a900473ffffffffffffffffffffffffffffffffffffffff1673ffffffffffffffffffffffffffffffffffffffff1663a9059cbb60016000815481106107b0576107af61190c565b5b906000526020600020906002020160000160009054906101000a900473ffffffffffffffffffffffffffffffffffffffff16856040518363ffffffff1660e01b81526004016108009291906117e2565b6020604051808303816000875af115801561081f573d6000803e3d6000fd5b505050506040513d601f19601f820116820180604052508101906108439190611b38565b505b60018080549050111561093957600960009054906101000a900473ffffffffffffffffffffffffffffffffffffffff1673ffffffffffffffffffffffffffffffffffffffff1663a9059cbb600180815481106108a4576108a361190c565b5b906000526020600020906002020160000160009054906101000a900473ffffffffffffffffffffffffffffffffffffffff16846040518363ffffffff1660e01b81526004016108f49291906117e2565b6020604051808303816000875af1158015610913573d6000803e3d6000fd5b505050506040513d601f19601f820116820180604052508101906109379190611b38565b505b60026001805490501115610a2f57600960009054906101000a900473ffffffffffffffffffffffffffffffffffffffff1673ffffffffffffffffffffffffffffffffffffffff1663a9059cbb600160028154811061099a5761099961190c565b5b906000526020600020906002020160000160009054906101000a900473ffffffffffffffffffffffffffffffffffffffff16836040518363ffffffff1660e01b81526004016109ea9291906117e2565b6020604051808303816000875af1158015610a09573d6000803e3d6000fd5b505050506040513d601f19601f82011682018060405250810190610a2d9190611b38565b505b60016000610a3d9190611263565b600060058190555050505050565b60085481565b60075481565b60018181548110610a6757600080fd5b90600052602060002090600202016000915090508060000160009054906101000a900473ffffffffffffffffffffffffffffffffffffffff16908060010154905082565b6004548111610aef576040517f08c379a0000000000000000000000000000000000000000000000000000000008152600401610ae690611bb1565b60405180910390fd5b600960009054906101000a900473ffffffffffffffffffffffffffffffffffffffff1673ffffffffffffffffffffffffffffffffffffffff166323b872dd3330846040518463ffffffff1660e01b8152600401610b4e93929190611bd1565b6020604051808303816000875af1158015610b6d573d6000803e3d6000fd5b505050506040513d601f19601f82011682018060405250810190610b919190611b38565b610bd0576040517f08c379a0000000000000000000000000000000000000000000000000000000008152600401610bc790611c54565b60405180910390fd5b600073ffffffffffffffffffffffffffffffffffffffff16600260009054906101000a900473ffffffffffffffffffffffffffffffffffffffff1673ffffffffffffffffffffffffffffffffffffffff1614610c6657600060035442610c3691906118b6565b9050610c64600260009054906101000a900473ffffffffffffffffffffffffffffffffffffffff1682611016565b505b33600260006101000a81548173ffffffffffffffffffffffffffffffffffffffff021916908373ffffffffffffffffffffffffffffffffffffffff16021790555080600481905550426003819055508060056000828254610cc79190611aaa565b925050819055503373ffffffffffffffffffffffffffffffffffffffff167f40d3bf7a102d9369093e56b1e99572a510e0ab7119220f856f4cf9b0bd2041ac8242604051610d16929190611c74565b60405180910390a2600854600754610d2e9190611aaa565b4210610d4457610d3c610670565b426007819055505b50565b60035481565b60045481565b60065481565b600260009054906101000a900473ffffffffffffffffffffffffffffffffffffffff1681565b6000600180549050905060005b818110156110125760005b60018284610da591906118b6565b610daf91906118b6565b811015610ffe5760018082610dc49190611aaa565b81548110610dd557610dd461190c565b5b90600052602060002090600202016001015460018281548110610dfb57610dfa61190c565b5b9060005260206000209060020201600101541015610feb57600060018281548110610e2957610e2861190c565b5b90600052602060002090600202016040518060400160405290816000820160009054906101000a900473ffffffffffffffffffffffffffffffffffffffff1673ffffffffffffffffffffffffffffffffffffffff1673ffffffffffffffffffffffffffffffffffffffff168152602001600182015481525050905060018083610eb29190611aaa565b81548110610ec357610ec261190c565b5b906000526020600020906002020160018381548110610ee557610ee461190c565b5b90600052602060002090600202016000820160009054906101000a900473ffffffffffffffffffffffffffffffffffffffff168160000160006101000a81548173ffffffffffffffffffffffffffffffffffffffff021916908373ffffffffffffffffffffffffffffffffffffffff160217905550600182015481600101559050508060018084610f769190611aaa565b81548110610f8757610f8661190c565b5b906000526020600020906002020160008201518160000160006101000a81548173ffffffffffffffffffffffffffffffffffffffff021916908373ffffffffffffffffffffffffffffffffffffffff16021790555060208201518160010155905050505b8080610ff69061193b565b915050610d97565b50808061100a9061193b565b915050610d8c565b5050565b6000805b6001805490508110156110f8578373ffffffffffffffffffffffffffffffffffffffff16600182815481106110525761105161190c565b5b906000526020600020906002020160000160009054906101000a900473ffffffffffffffffffffffffffffffffffffffff1673ffffffffffffffffffffffffffffffffffffffff1614156110e55782600182815481106110b5576110b461190c565b5b906000526020600020906002020160010160008282546110d59190611aaa565b92505081905550600191506110f8565b80806110f09061193b565b91505061101a565b50806111a857600160405180604001604052808573ffffffffffffffffffffffffffffffffffffffff16815260200184815250908060018154018082558091505060019003906000526020600020906002020160009091909190915060008201518160000160006101000a81548173ffffffffffffffffffffffffffffffffffffffff021916908373ffffffffffffffffffffffffffffffffffffffff1602179055506020820151816001015550505b505050565b8280546111b990611855565b90600052602060002090601f0160209004810192826111db5760008555611222565b82601f106111f457805160ff1916838001178555611222565b82800160010185558215611222579182015b82811115611221578251825591602001919060010190611206565b5b50905061122f9190611287565b5090565b6040518060400160405280600073ffffffffffffffffffffffffffffffffffffffff168152602001600081525090565b508054600082556002029060005260206000209081019061128491906112a4565b50565b5b808211156112a0576000816000905550600101611288565b5090565b5b808211156112e657600080820160006101000a81549073ffffffffffffffffffffffffffffffffffffffff02191690556001820160009055506002016112a5565b5090565b6000604051905090565b600080fd5b600080fd5b6000819050919050565b611311816112fe565b811461131c57600080fd5b50565b60008135905061132e81611308565b92915050565b60006020828403121561134a576113496112f4565b5b60006113588482850161131f565b91505092915050565b600073ffffffffffffffffffffffffffffffffffffffff82169050919050565b600061138c82611361565b9050919050565b61139c81611381565b82525050565b600081519050919050565b600082825260208201905092915050565b60005b838110156113dc5780820151818401526020810190506113c1565b838111156113eb576000848401525b50505050565b6000601f19601f8301169050919050565b600061140d826113a2565b61141781856113ad565b93506114278185602086016113be565b611430816113f1565b840191505092915050565b60006040820190506114506000830185611393565b81810360208301526114628184611402565b90509392505050565b611474816112fe565b82525050565b600060608201905061148f6000830186611393565b61149c602083018561146b565b6114a9604083018461146b565b949350505050565b6000819050919050565b60006114d66114d16114cc84611361565b6114b1565b611361565b9050919050565b60006114e8826114bb565b9050919050565b60006114fa826114dd565b9050919050565b61150a816114ef565b82525050565b60006020820190506115256000830184611501565b92915050565b6000602082019050611540600083018461146b565b92915050565b600080fd5b600080fd5b7f4e487b7100000000000000000000000000000000000000000000000000000000600052604160045260246000fd5b611588826113f1565b810181811067ffffffffffffffff821117156115a7576115a6611550565b5b80604052505050565b60006115ba6112ea565b90506115c6828261157f565b919050565b600067ffffffffffffffff8211156115e6576115e5611550565b5b6115ef826113f1565b9050602081019050919050565b82818337600083830152505050565b600061161e611619846115cb565b6115b0565b90508281526020810184848401111561163a5761163961154b565b5b6116458482856115fc565b509392505050565b600082601f83011261166257611661611546565b5b813561167284826020860161160b565b91505092915050565b600060208284031215611691576116906112f4565b5b600082013567ffffffffffffffff8111156116af576116ae6112f9565b5b6116bb8482850161164d565b91505092915050565b600081519050919050565b600082825260208201905092915050565b6000819050602082019050919050565b6116f981611381565b82525050565b611708816112fe565b82525050565b60408201600082015161172460008501826116f0565b50602082015161173760208501826116ff565b50505050565b6000611749838361170e565b60408301905092915050565b6000602082019050919050565b600061176d826116c4565b61177781856116cf565b9350611782836116e0565b8060005b838110156117b357815161179a888261173d565b97506117a583611755565b925050600181019050611786565b5085935050505092915050565b600060208201905081810360008301526117da8184611762565b905092915050565b60006040820190506117f76000830185611393565b611804602083018461146b565b9392505050565b60006020820190506118206000830184611393565b92915050565b7f4e487b7100000000000000000000000000000000000000000000000000000000600052602260045260246000fd5b6000600282049050600182168061186d57607f821691505b6020821081141561188157611880611826565b5b50919050565b7f4e487b7100000000000000000000000000000000000000000000000000000000600052601160045260246000fd5b60006118c1826112fe565b91506118cc836112fe565b9250828210156118df576118de611887565b5b828203905092915050565b600060208201905081810360008301526119048184611402565b905092915050565b7f4e487b7100000000000000000000000000000000000000000000000000000000600052603260045260246000fd5b6000611946826112fe565b91507fffffffffffffffffffffffffffffffffffffffffffffffffffffffffffffffff82141561197957611978611887565b5b600182019050919050565b7f4e6f206b696e677320746f207265776172640000000000000000000000000000600082015250565b60006119ba6012836113ad565b91506119c582611984565b602082019050919050565b600060208201905081810360008301526119e9816119ad565b9050919050565b60006119fb826112fe565b9150611a06836112fe565b9250817fffffffffffffffffffffffffffffffffffffffffffffffffffffffffffffffff0483118215151615611a3f57611a3e611887565b5b828202905092915050565b7f4e487b7100000000000000000000000000000000000000000000000000000000600052601260045260246000fd5b6000611a84826112fe565b9150611a8f836112fe565b925082611a9f57611a9e611a4a565b5b828204905092915050565b6000611ab5826112fe565b9150611ac0836112fe565b9250827fffffffffffffffffffffffffffffffffffffffffffffffffffffffffffffffff03821115611af557611af4611887565b5b828201905092915050565b60008115159050919050565b611b1581611b00565b8114611b2057600080fd5b50565b600081519050611b3281611b0c565b92915050565b600060208284031215611b4e57611b4d6112f4565b5b6000611b5c84828501611b23565b91505092915050565b7f4e656564206d6f726520746f6b656e7320746f206265636f6d65206b696e6700600082015250565b6000611b9b601f836113ad565b9150611ba682611b65565b602082019050919050565b60006020820190508181036000830152611bca81611b8e565b9050919050565b6000606082019050611be66000830186611393565b611bf36020830185611393565b611c00604083018461146b565b949350505050565b7f5472616e73666572206661696c65640000000000000000000000000000000000600082015250565b6000611c3e600f836113ad565b9150611c4982611c08565b602082019050919050565b60006020820190508181036000830152611c6d81611c31565b9050919050565b6000604082019050611c89600083018561146b565b611c96602083018461146b565b939250505056fea264697066735822122046cbdf043398335e499ccb87c0470f2bf244e6ec47e217900b260bf36fecc8b264736f6c634300080c0033","opcodes":"PUSH1 0x80 PUSH1 0x40 MSTORE PUSH2 0xE10 PUSH1 0x8 SSTORE CALLVALUE DUP1 ISZERO PUSH3 0x17 JUMPI PUSH1 0x0 DUP1 REVERT JUMPDEST POP PUSH1 0x40 MLOAD PUSH3 0x1E0B CODESIZE SUB DUP1 PUSH3 0x1E0B DUP4 CODECOPY DUP2 DUP2 ADD PUSH1 0x40 MSTORE DUP2 ADD SWAP1 PUSH3 0x3D SWAP2 SWAP1 PUSH3 0xF6 JUMP JUMPDEST DUP1 PUSH1 0x9 PUSH1 0x0 PUSH2 0x100 EXP DUP2 SLOAD DUP2 PUSH20 0xFFFFFFFFFFFFFFFFFFFFFFFFFFFFFFFFFFFFFFFF MUL NOT AND SWAP1 DUP4 PUSH20 0xFFFFFFFFFFFFFFFFFFFFFFFFFFFFFFFFFFFFFFFF AND MUL OR SWAP1 SSTORE POP TIMESTAMP PUSH1 0x7 DUP2 SWAP1 SSTORE POP POP PUSH3 0x128 JUMP JUMPDEST PUSH1 0x0 DUP1 REVERT JUMPDEST PUSH1 0x0 PUSH20 0xFFFFFFFFFFFFFFFFFFFFFFFFFFFFFFFFFFFFFFFF DUP3 AND SWAP1 POP SWAP2 SWAP1 POP JUMP JUMPDEST PUSH1 0x0 PUSH3 0xBE DUP3 PUSH3 0x91 JUMP JUMPDEST SWAP1 POP SWAP2 SWAP1 POP JUMP JUMPDEST PUSH3 0xD0 DUP2 PUSH3 0xB1 JUMP JUMPDEST DUP2 EQ PUSH3 0xDC JUMPI PUSH1 0x0 DUP1 REVERT JUMPDEST POP JUMP JUMPDEST PUSH1 0x0 DUP2 MLOAD SWAP1 POP PUSH3 0xF0 DUP2 PUSH3 0xC5 JUMP JUMPDEST SWAP3 SWAP2 POP POP JUMP JUMPDEST PUSH1 0x0 PUSH1 0x20 DUP3 DUP5 SUB SLT ISZERO PUSH3 0x10F JUMPI PUSH3 0x10E PUSH3 0x8C JUMP JUMPDEST JUMPDEST PUSH1 0x0 PUSH3 0x11F DUP5 DUP3 DUP6 ADD PUSH3 0xDF JUMP JUMPDEST SWAP2 POP POP SWAP3 SWAP2 POP POP JUMP JUMPDEST PUSH2 0x1CD3 DUP1 PUSH3 0x138 PUSH1 0x0 CODECOPY PUSH1 0x0 RETURN INVALID PUSH1 0x80 PUSH1 0x40 MSTORE CALLVALUE DUP1 ISZERO PUSH2 0x10 JUMPI PUSH1 0x0 DUP1 REVERT JUMPDEST POP PUSH1 0x4 CALLDATASIZE LT PUSH2 0xF5 JUMPI PUSH1 0x0 CALLDATALOAD PUSH1 0xE0 SHR DUP1 PUSH4 0x71201A0E GT PUSH2 0x97 JUMPI DUP1 PUSH4 0xC21BAE0C GT PUSH2 0x66 JUMPI DUP1 PUSH4 0xC21BAE0C EQ PUSH2 0x254 JUMPI DUP1 PUSH4 0xC42B42A0 EQ PUSH2 0x272 JUMPI DUP1 PUSH4 0xE1489191 EQ PUSH2 0x290 JUMPI DUP1 PUSH4 0xF5B45714 EQ PUSH2 0x2AE JUMPI PUSH2 0xF5 JUMP JUMPDEST DUP1 PUSH4 0x71201A0E EQ PUSH2 0x1CB JUMPI DUP1 PUSH4 0x75B17350 EQ PUSH2 0x1E9 JUMPI DUP1 PUSH4 0x8F67419D EQ PUSH2 0x207 JUMPI DUP1 PUSH4 0xB90C0127 EQ PUSH2 0x238 JUMPI PUSH2 0xF5 JUMP JUMPDEST DUP1 PUSH4 0x398AB9A7 GT PUSH2 0xD3 JUMPI DUP1 PUSH4 0x398AB9A7 EQ PUSH2 0x169 JUMPI DUP1 PUSH4 0x469C8110 EQ PUSH2 0x187 JUMPI DUP1 PUSH4 0x4A306990 EQ PUSH2 0x1A3 JUMPI DUP1 PUSH4 0x6F4A2CD0 EQ PUSH2 0x1C1 JUMPI PUSH2 0xF5 JUMP JUMPDEST DUP1 PUSH4 0xD80FEFD EQ PUSH2 0xFA JUMPI DUP1 PUSH4 0x1250D011 EQ PUSH2 0x12B JUMPI DUP1 PUSH4 0x244BB7F0 EQ PUSH2 0x14B JUMPI JUMPDEST PUSH1 0x0 DUP1 REVERT JUMPDEST PUSH2 0x114 PUSH1 0x4 DUP1 CALLDATASIZE SUB DUP2 ADD SWAP1 PUSH2 0x10F SWAP2 SWAP1 PUSH2 0x1334 JUMP JUMPDEST PUSH2 0x2CC JUMP JUMPDEST PUSH1 0x40 MLOAD PUSH2 0x122 SWAP3 SWAP2 SWAP1 PUSH2 0x143B JUMP JUMPDEST PUSH1 0x40 MLOAD DUP1 SWAP2 SUB SWAP1 RETURN JUMPDEST PUSH2 0x133 PUSH2 0x3A8 JUMP JUMPDEST PUSH1 0x40 MLOAD PUSH2 0x142 SWAP4 SWAP3 SWAP2 SWAP1 PUSH2 0x147A JUMP JUMPDEST PUSH1 0x40 MLOAD DUP1 SWAP2 SUB SWAP1 RETURN JUMPDEST PUSH2 0x153 PUSH2 0x3EC JUMP JUMPDEST PUSH1 0x40 MLOAD PUSH2 0x160 SWAP2 SWAP1 PUSH2 0x1510 JUMP JUMPDEST PUSH1 0x40 MLOAD DUP1 SWAP2 SUB SWAP1 RETURN JUMPDEST PUSH2 0x171 PUSH2 0x412 JUMP JUMPDEST PUSH1 0x40 MLOAD PUSH2 0x17E SWAP2 SWAP1 PUSH2 0x152B JUMP JUMPDEST PUSH1 0x40 MLOAD DUP1 SWAP2 SUB SWAP1 RETURN JUMPDEST PUSH2 0x1A1 PUSH1 0x4 DUP1 CALLDATASIZE SUB DUP2 ADD SWAP1 PUSH2 0x19C SWAP2 SWAP1 PUSH2 0x167B JUMP JUMPDEST PUSH2 0x418 JUMP JUMPDEST STOP JUMPDEST PUSH2 0x1AB PUSH2 0x525 JUMP JUMPDEST PUSH1 0x40 MLOAD PUSH2 0x1B8 SWAP2 SWAP1 PUSH2 0x17C0 JUMP JUMPDEST PUSH1 0x40 MLOAD DUP1 SWAP2 SUB SWAP1 RETURN JUMPDEST PUSH2 0x1C9 PUSH2 0x670 JUMP JUMPDEST STOP JUMPDEST PUSH2 0x1D3 PUSH2 0xA4B JUMP JUMPDEST PUSH1 0x40 MLOAD PUSH2 0x1E0 SWAP2 SWAP1 PUSH2 0x152B JUMP JUMPDEST PUSH1 0x40 MLOAD DUP1 SWAP2 SUB SWAP1 RETURN JUMPDEST PUSH2 0x1F1 PUSH2 0xA51 JUMP JUMPDEST PUSH1 0x40 MLOAD PUSH2 0x1FE SWAP2 SWAP1 PUSH2 0x152B JUMP JUMPDEST PUSH1 0x40 MLOAD DUP1 SWAP2 SUB SWAP1 RETURN JUMPDEST PUSH2 0x221 PUSH1 0x4 DUP1 CALLDATASIZE SUB DUP2 ADD SWAP1 PUSH2 0x21C SWAP2 SWAP1 PUSH2 0x1334 JUMP JUMPDEST PUSH2 0xA57 JUMP JUMPDEST PUSH1 0x40 MLOAD PUSH2 0x22F SWAP3 SWAP2 SWAP1 PUSH2 0x17E2 JUMP JUMPDEST PUSH1 0x40 MLOAD DUP1 SWAP2 SUB SWAP1 RETURN JUMPDEST PUSH2 0x252 PUSH1 0x4 DUP1 CALLDATASIZE SUB DUP2 ADD SWAP1 PUSH2 0x24D SWAP2 SWAP1 PUSH2 0x1334 JUMP JUMPDEST PUSH2 0xAAB JUMP JUMPDEST STOP JUMPDEST PUSH2 0x25C PUSH2 0xD47 JUMP JUMPDEST PUSH1 0x40 MLOAD PUSH2 0x269 SWAP2 SWAP1 PUSH2 0x152B JUMP JUMPDEST PUSH1 0x40 MLOAD DUP1 SWAP2 SUB SWAP1 RETURN JUMPDEST PUSH2 0x27A PUSH2 0xD4D JUMP JUMPDEST PUSH1 0x40 MLOAD PUSH2 0x287 SWAP2 SWAP1 PUSH2 0x152B JUMP JUMPDEST PUSH1 0x40 MLOAD DUP1 SWAP2 SUB SWAP1 RETURN JUMPDEST PUSH2 0x298 PUSH2 0xD53 JUMP JUMPDEST PUSH1 0x40 MLOAD PUSH2 0x2A5 SWAP2 SWAP1 PUSH2 0x152B JUMP JUMPDEST PUSH1 0x40 MLOAD DUP1 SWAP2 SUB SWAP1 RETURN JUMPDEST PUSH2 0x2B6 PUSH2 0xD59 JUMP JUMPDEST PUSH1 0x40 MLOAD PUSH2 0x2C3 SWAP2 SWAP1 PUSH2 0x180B JUMP JUMPDEST PUSH1 0x40 MLOAD DUP1 SWAP2 SUB SWAP1 RETURN JUMPDEST PUSH1 0x0 DUP2 DUP2 SLOAD DUP2 LT PUSH2 0x2DC JUMPI PUSH1 0x0 DUP1 REVERT JUMPDEST SWAP1 PUSH1 0x0 MSTORE PUSH1 0x20 PUSH1 0x0 KECCAK256 SWAP1 PUSH1 0x2 MUL ADD PUSH1 0x0 SWAP2 POP SWAP1 POP DUP1 PUSH1 0x0 ADD PUSH1 0x0 SWAP1 SLOAD SWAP1 PUSH2 0x100 EXP SWAP1 DIV PUSH20 0xFFFFFFFFFFFFFFFFFFFFFFFFFFFFFFFFFFFFFFFF AND SWAP1 DUP1 PUSH1 0x1 ADD DUP1 SLOAD PUSH2 0x325 SWAP1 PUSH2 0x1855 JUMP JUMPDEST DUP1 PUSH1 0x1F ADD PUSH1 0x20 DUP1 SWAP2 DIV MUL PUSH1 0x20 ADD PUSH1 0x40 MLOAD SWAP1 DUP2 ADD PUSH1 0x40 MSTORE DUP1 SWAP3 SWAP2 SWAP1 DUP2 DUP2 MSTORE PUSH1 0x20 ADD DUP3 DUP1 SLOAD PUSH2 0x351 SWAP1 PUSH2 0x1855 JUMP JUMPDEST DUP1 ISZERO PUSH2 0x39E JUMPI DUP1 PUSH1 0x1F LT PUSH2 0x373 JUMPI PUSH2 0x100 DUP1 DUP4 SLOAD DIV MUL DUP4 MSTORE SWAP2 PUSH1 0x20 ADD SWAP2 PUSH2 0x39E JUMP JUMPDEST DUP3 ADD SWAP2 SWAP1 PUSH1 0x0 MSTORE PUSH1 0x20 PUSH1 0x0 KECCAK256 SWAP1 JUMPDEST DUP2 SLOAD DUP2 MSTORE SWAP1 PUSH1 0x1 ADD SWAP1 PUSH1 0x20 ADD DUP1 DUP4 GT PUSH2 0x381 JUMPI DUP3 SWAP1 SUB PUSH1 0x1F AND DUP3 ADD SWAP2 JUMPDEST POP POP POP POP POP SWAP1 POP DUP3 JUMP JUMPDEST PUSH1 0x0 DUP1 PUSH1 0x0 PUSH1 0x2 PUSH1 0x0 SWAP1 SLOAD SWAP1 PUSH2 0x100 EXP SWAP1 DIV PUSH20 0xFFFFFFFFFFFFFFFFFFFFFFFFFFFFFFFFFFFFFFFF AND PUSH1 0x4 SLOAD PUSH1 0x3 SLOAD TIMESTAMP PUSH2 0x3E1 SWAP2 SWAP1 PUSH2 0x18B6 JUMP JUMPDEST SWAP3 POP SWAP3 POP SWAP3 POP SWAP1 SWAP2 SWAP3 JUMP JUMPDEST PUSH1 0x9 PUSH1 0x0 SWAP1 SLOAD SWAP1 PUSH2 0x100 EXP SWAP1 DIV PUSH20 0xFFFFFFFFFFFFFFFFFFFFFFFFFFFFFFFFFFFFFFFF AND DUP2 JUMP JUMPDEST PUSH1 0x5 SLOAD DUP2 JUMP JUMPDEST PUSH1 0x0 PUSH1 0x40 MLOAD DUP1 PUSH1 0x40 ADD PUSH1 0x40 MSTORE DUP1 CALLER PUSH20 0xFFFFFFFFFFFFFFFFFFFFFFFFFFFFFFFFFFFFFFFF AND DUP2 MSTORE PUSH1 0x20 ADD DUP4 DUP2 MSTORE POP SWAP1 DUP1 PUSH1 0x1 DUP2 SLOAD ADD DUP1 DUP3 SSTORE DUP1 SWAP2 POP POP PUSH1 0x1 SWAP1 SUB SWAP1 PUSH1 0x0 MSTORE PUSH1 0x20 PUSH1 0x0 KECCAK256 SWAP1 PUSH1 0x2 MUL ADD PUSH1 0x0 SWAP1 SWAP2 SWAP1 SWAP2 SWAP1 SWAP2 POP PUSH1 0x0 DUP3 ADD MLOAD DUP2 PUSH1 0x0 ADD PUSH1 0x0 PUSH2 0x100 EXP DUP2 SLOAD DUP2 PUSH20 0xFFFFFFFFFFFFFFFFFFFFFFFFFFFFFFFFFFFFFFFF MUL NOT AND SWAP1 DUP4 PUSH20 0xFFFFFFFFFFFFFFFFFFFFFFFFFFFFFFFFFFFFFFFF AND MUL OR SWAP1 SSTORE POP PUSH1 0x20 DUP3 ADD MLOAD DUP2 PUSH1 0x1 ADD SWAP1 DUP1 MLOAD SWAP1 PUSH1 0x20 ADD SWAP1 PUSH2 0x4D1 SWAP3 SWAP2 SWAP1 PUSH2 0x11AD JUMP JUMPDEST POP POP POP CALLER PUSH20 0xFFFFFFFFFFFFFFFFFFFFFFFFFFFFFFFFFFFFFFFF AND PUSH32 0x8DA45D748EEFEFD09CC1491CD32086B6D6A0BD7063D08F05C94DF9EB1404BD80 DUP3 PUSH1 0x40 MLOAD PUSH2 0x51A SWAP2 SWAP1 PUSH2 0x18EA JUMP JUMPDEST PUSH1 0x40 MLOAD DUP1 SWAP2 SUB SWAP1 LOG2 POP JUMP JUMPDEST PUSH1 0x60 PUSH1 0x0 PUSH1 0xA PUSH1 0x1 DUP1 SLOAD SWAP1 POP LT PUSH2 0x53D JUMPI PUSH1 0xA PUSH2 0x544 JUMP JUMPDEST PUSH1 0x1 DUP1 SLOAD SWAP1 POP JUMPDEST SWAP1 POP PUSH1 0x0 DUP2 PUSH8 0xFFFFFFFFFFFFFFFF DUP2 GT ISZERO PUSH2 0x562 JUMPI PUSH2 0x561 PUSH2 0x1550 JUMP JUMPDEST JUMPDEST PUSH1 0x40 MLOAD SWAP1 DUP1 DUP3 MSTORE DUP1 PUSH1 0x20 MUL PUSH1 0x20 ADD DUP3 ADD PUSH1 0x40 MSTORE DUP1 ISZERO PUSH2 0x59B JUMPI DUP2 PUSH1 0x20 ADD JUMPDEST PUSH2 0x588 PUSH2 0x1233 JUMP JUMPDEST DUP2 MSTORE PUSH1 0x20 ADD SWAP1 PUSH1 0x1 SWAP1 SUB SWAP1 DUP2 PUSH2 0x580 JUMPI SWAP1 POP JUMPDEST POP SWAP1 POP PUSH1 0x0 JUMPDEST DUP3 DUP2 LT ISZERO PUSH2 0x667 JUMPI PUSH1 0x1 DUP2 DUP2 SLOAD DUP2 LT PUSH2 0x5BD JUMPI PUSH2 0x5BC PUSH2 0x190C JUMP JUMPDEST JUMPDEST SWAP1 PUSH1 0x0 MSTORE PUSH1 0x20 PUSH1 0x0 KECCAK256 SWAP1 PUSH1 0x2 MUL ADD PUSH1 0x40 MLOAD DUP1 PUSH1 0x40 ADD PUSH1 0x40 MSTORE SWAP1 DUP2 PUSH1 0x0 DUP3 ADD PUSH1 0x0 SWAP1 SLOAD SWAP1 PUSH2 0x100 EXP SWAP1 DIV PUSH20 0xFFFFFFFFFFFFFFFFFFFFFFFFFFFFFFFFFFFFFFFF AND PUSH20 0xFFFFFFFFFFFFFFFFFFFFFFFFFFFFFFFFFFFFFFFF AND PUSH20 0xFFFFFFFFFFFFFFFFFFFFFFFFFFFFFFFFFFFFFFFF AND DUP2 MSTORE PUSH1 0x20 ADD PUSH1 0x1 DUP3 ADD SLOAD DUP2 MSTORE POP POP DUP3 DUP3 DUP2 MLOAD DUP2 LT PUSH2 0x649 JUMPI PUSH2 0x648 PUSH2 0x190C JUMP JUMPDEST JUMPDEST PUSH1 0x20 MUL PUSH1 0x20 ADD ADD DUP2 SWAP1 MSTORE POP DUP1 DUP1 PUSH2 0x65F SWAP1 PUSH2 0x193B JUMP JUMPDEST SWAP2 POP POP PUSH2 0x5A1 JUMP JUMPDEST POP DUP1 SWAP3 POP POP POP SWAP1 JUMP JUMPDEST PUSH1 0x0 PUSH1 0x1 DUP1 SLOAD SWAP1 POP GT PUSH2 0x6B8 JUMPI PUSH1 0x40 MLOAD PUSH32 0x8C379A000000000000000000000000000000000000000000000000000000000 DUP2 MSTORE PUSH1 0x4 ADD PUSH2 0x6AF SWAP1 PUSH2 0x19D0 JUMP JUMPDEST PUSH1 0x40 MLOAD DUP1 SWAP2 SUB SWAP1 REVERT JUMPDEST PUSH2 0x6C0 PUSH2 0xD7F JUMP JUMPDEST PUSH1 0x0 PUSH1 0x5 SLOAD SWAP1 POP PUSH1 0x0 PUSH1 0x64 PUSH1 0x32 DUP4 PUSH2 0x6D8 SWAP2 SWAP1 PUSH2 0x19F0 JUMP JUMPDEST PUSH2 0x6E2 SWAP2 SWAP1 PUSH2 0x1A79 JUMP JUMPDEST SWAP1 POP PUSH1 0x0 PUSH1 0x64 PUSH1 0x1E DUP5 PUSH2 0x6F5 SWAP2 SWAP1 PUSH2 0x19F0 JUMP JUMPDEST PUSH2 0x6FF SWAP2 SWAP1 PUSH2 0x1A79 JUMP JUMPDEST SWAP1 POP PUSH1 0x0 PUSH1 0x64 PUSH1 0xF DUP6 PUSH2 0x712 SWAP2 SWAP1 PUSH2 0x19F0 JUMP JUMPDEST PUSH2 0x71C SWAP2 SWAP1 PUSH2 0x1A79 JUMP JUMPDEST SWAP1 POP PUSH1 0x64 PUSH1 0x5 DUP6 PUSH2 0x72D SWAP2 SWAP1 PUSH2 0x19F0 JUMP JUMPDEST PUSH2 0x737 SWAP2 SWAP1 PUSH2 0x1A79 JUMP JUMPDEST PUSH1 0x6 PUSH1 0x0 DUP3 DUP3 SLOAD PUSH2 0x748 SWAP2 SWAP1 PUSH2 0x1AAA JUMP JUMPDEST SWAP3 POP POP DUP2 SWAP1 SSTORE POP PUSH1 0x0 PUSH1 0x1 DUP1 SLOAD SWAP1 POP GT ISZERO PUSH2 0x845 JUMPI PUSH1 0x9 PUSH1 0x0 SWAP1 SLOAD SWAP1 PUSH2 0x100 EXP SWAP1 DIV PUSH20 0xFFFFFFFFFFFFFFFFFFFFFFFFFFFFFFFFFFFFFFFF AND PUSH20 0xFFFFFFFFFFFFFFFFFFFFFFFFFFFFFFFFFFFFFFFF AND PUSH4 0xA9059CBB PUSH1 0x1 PUSH1 0x0 DUP2 SLOAD DUP2 LT PUSH2 0x7B0 JUMPI PUSH2 0x7AF PUSH2 0x190C JUMP JUMPDEST JUMPDEST SWAP1 PUSH1 0x0 MSTORE PUSH1 0x20 PUSH1 0x0 KECCAK256 SWAP1 PUSH1 0x2 MUL ADD PUSH1 0x0 ADD PUSH1 0x0 SWAP1 SLOAD SWAP1 PUSH2 0x100 EXP SWAP1 DIV PUSH20 0xFFFFFFFFFFFFFFFFFFFFFFFFFFFFFFFFFFFFFFFF AND DUP6 PUSH1 0x40 MLOAD DUP4 PUSH4 0xFFFFFFFF AND PUSH1 0xE0 SHL DUP2 MSTORE PUSH1 0x4 ADD PUSH2 0x800 SWAP3 SWAP2 SWAP1 PUSH2 0x17E2 JUMP JUMPDEST PUSH1 0x20 PUSH1 0x40 MLOAD DUP1 DUP4 SUB DUP2 PUSH1 0x0 DUP8 GAS CALL ISZERO DUP1 ISZERO PUSH2 0x81F JUMPI RETURNDATASIZE PUSH1 0x0 DUP1 RETURNDATACOPY RETURNDATASIZE PUSH1 0x0 REVERT JUMPDEST POP POP POP POP PUSH1 0x40 MLOAD RETURNDATASIZE PUSH1 0x1F NOT PUSH1 0x1F DUP3 ADD AND DUP3 ADD DUP1 PUSH1 0x40 MSTORE POP DUP2 ADD SWAP1 PUSH2 0x843 SWAP2 SWAP1 PUSH2 0x1B38 JUMP JUMPDEST POP JUMPDEST PUSH1 0x1 DUP1 DUP1 SLOAD SWAP1 POP GT ISZERO PUSH2 0x939 JUMPI PUSH1 0x9 PUSH1 0x0 SWAP1 SLOAD SWAP1 PUSH2 0x100 EXP SWAP1 DIV PUSH20 0xFFFFFFFFFFFFFFFFFFFFFFFFFFFFFFFFFFFFFFFF AND PUSH20 0xFFFFFFFFFFFFFFFFFFFFFFFFFFFFFFFFFFFFFFFF AND PUSH4 0xA9059CBB PUSH1 0x1 DUP1 DUP2 SLOAD DUP2 LT PUSH2 0x8A4 JUMPI PUSH2 0x8A3 PUSH2 0x190C JUMP JUMPDEST JUMPDEST SWAP1 PUSH1 0x0 MSTORE PUSH1 0x20 PUSH1 0x0 KECCAK256 SWAP1 PUSH1 0x2 MUL ADD PUSH1 0x0 ADD PUSH1 0x0 SWAP1 SLOAD SWAP1 PUSH2 0x100 EXP SWAP1 DIV PUSH20 0xFFFFFFFFFFFFFFFFFFFFFFFFFFFFFFFFFFFFFFFF AND DUP5 PUSH1 0x40 MLOAD DUP4 PUSH4 0xFFFFFFFF AND PUSH1 0xE0 SHL DUP2 MSTORE PUSH1 0x4 ADD PUSH2 0x8F4 SWAP3 SWAP2 SWAP1 PUSH2 0x17E2 JUMP JUMPDEST PUSH1 0x20 PUSH1 0x40 MLOAD DUP1 DUP4 SUB DUP2 PUSH1 0x0 DUP8 GAS CALL ISZERO DUP1 ISZERO PUSH2 0x913 JUMPI RETURNDATASIZE PUSH1 0x0 DUP1 RETURNDATACOPY RETURNDATASIZE PUSH1 0x0 REVERT JUMPDEST POP POP POP POP PUSH1 0x40 MLOAD RETURNDATASIZE PUSH1 0x1F NOT PUSH1 0x1F DUP3 ADD AND DUP3 ADD DUP1 PUSH1 0x40 MSTORE POP DUP2 ADD SWAP1 PUSH2 0x937 SWAP2 SWAP1 PUSH2 0x1B38 JUMP JUMPDEST POP JUMPDEST PUSH1 0x2 PUSH1 0x1 DUP1 SLOAD SWAP1 POP GT ISZERO PUSH2 0xA2F JUMPI PUSH1 0x9 PUSH1 0x0 SWAP1 SLOAD SWAP1 PUSH2 0x100 EXP SWAP1 DIV PUSH20 0xFFFFFFFFFFFFFFFFFFFFFFFFFFFFFFFFFFFFFFFF AND PUSH20 0xFFFFFFFFFFFFFFFFFFFFFFFFFFFFFFFFFFFFFFFF AND PUSH4 0xA9059CBB PUSH1 0x1 PUSH1 0x2 DUP2 SLOAD DUP2 LT PUSH2 0x99A JUMPI PUSH2 0x999 PUSH2 0x190C JUMP JUMPDEST JUMPDEST SWAP1 PUSH1 0x0 MSTORE PUSH1 0x20 PUSH1 0x0 KECCAK256 SWAP1 PUSH1 0x2 MUL ADD PUSH1 0x0 ADD PUSH1 0x0 SWAP1 SLOAD SWAP1 PUSH2 0x100 EXP SWAP1 DIV PUSH20 0xFFFFFFFFFFFFFFFFFFFFFFFFFFFFFFFFFFFFFFFF AND DUP4 PUSH1 0x40 MLOAD DUP4 PUSH4 0xFFFFFFFF AND PUSH1 0xE0 SHL DUP2 MSTORE PUSH1 0x4 ADD PUSH2 0x9EA SWAP3 SWAP2 SWAP1 PUSH2 0x17E2 JUMP JUMPDEST PUSH1 0x20 PUSH1 0x40 MLOAD DUP1 DUP4 SUB DUP2 PUSH1 0x0 DUP8 GAS CALL ISZERO DUP1 ISZERO PUSH2 0xA09 JUMPI RETURNDATASIZE PUSH1 0x0 DUP1 RETURNDATACOPY RETURNDATASIZE PUSH1 0x0 REVERT JUMPDEST POP POP POP POP PUSH1 0x40 MLOAD RETURNDATASIZE PUSH1 0x1F NOT PUSH1 0x1F DUP3 ADD AND DUP3 ADD DUP1 PUSH1 0x40 MSTORE POP DUP2 ADD SWAP1 PUSH2 0xA2D SWAP2 SWAP1 PUSH2 0x1B38 JUMP JUMPDEST POP JUMPDEST PUSH1 0x1 PUSH1 0x0 PUSH2 0xA3D SWAP2 SWAP1 PUSH2 0x1263 JUMP JUMPDEST PUSH1 0x0 PUSH1 0x5 DUP2 SWAP1 SSTORE POP POP POP POP POP JUMP JUMPDEST PUSH1 0x8 SLOAD DUP2 JUMP JUMPDEST PUSH1 0x7 SLOAD DUP2 JUMP JUMPDEST PUSH1 0x1 DUP2 DUP2 SLOAD DUP2 LT PUSH2 0xA67 JUMPI PUSH1 0x0 DUP1 REVERT JUMPDEST SWAP1 PUSH1 0x0 MSTORE PUSH1 0x20 PUSH1 0x0 KECCAK256 SWAP1 PUSH1 0x2 MUL ADD PUSH1 0x0 SWAP2 POP SWAP1 POP DUP1 PUSH1 0x0 ADD PUSH1 0x0 SWAP1 SLOAD SWAP1 PUSH2 0x100 EXP SWAP1 DIV PUSH20 0xFFFFFFFFFFFFFFFFFFFFFFFFFFFFFFFFFFFFFFFF AND SWAP1 DUP1 PUSH1 0x1 ADD SLOAD SWAP1 POP DUP3 JUMP JUMPDEST PUSH1 0x4 SLOAD DUP2 GT PUSH2 0xAEF JUMPI PUSH1 0x40 MLOAD PUSH32 0x8C379A000000000000000000000000000000000000000000000000000000000 DUP2 MSTORE PUSH1 0x4 ADD PUSH2 0xAE6 SWAP1 PUSH2 0x1BB1 JUMP JUMPDEST PUSH1 0x40 MLOAD DUP1 SWAP2 SUB SWAP1 REVERT JUMPDEST PUSH1 0x9 PUSH1 0x0 SWAP1 SLOAD SWAP1 PUSH2 0x100 EXP SWAP1 DIV PUSH20 0xFFFFFFFFFFFFFFFFFFFFFFFFFFFFFFFFFFFFFFFF AND PUSH20 0xFFFFFFFFFFFFFFFFFFFFFFFFFFFFFFFFFFFFFFFF AND PUSH4 0x23B872DD CALLER ADDRESS DUP5 PUSH1 0x40 MLOAD DUP5 PUSH4 0xFFFFFFFF AND PUSH1 0xE0 SHL DUP2 MSTORE PUSH1 0x4 ADD PUSH2 0xB4E SWAP4 SWAP3 SWAP2 SWAP1 PUSH2 0x1BD1 JUMP JUMPDEST PUSH1 0x20 PUSH1 0x40 MLOAD DUP1 DUP4 SUB DUP2 PUSH1 0x0 DUP8 GAS CALL ISZERO DUP1 ISZERO PUSH2 0xB6D JUMPI RETURNDATASIZE PUSH1 0x0 DUP1 RETURNDATACOPY RETURNDATASIZE PUSH1 0x0 REVERT JUMPDEST POP POP POP POP PUSH1 0x40 MLOAD RETURNDATASIZE PUSH1 0x1F NOT PUSH1 0x1F DUP3 ADD AND DUP3 ADD DUP1 PUSH1 0x40 MSTORE POP DUP2 ADD SWAP1 PUSH2 0xB91 SWAP2 SWAP1 PUSH2 0x1B38 JUMP JUMPDEST PUSH2 0xBD0 JUMPI PUSH1 0x40 MLOAD PUSH32 0x8C379A000000000000000000000000000000000000000000000000000000000 DUP2 MSTORE PUSH1 0x4 ADD PUSH2 0xBC7 SWAP1 PUSH2 0x1C54 JUMP JUMPDEST PUSH1 0x40 MLOAD DUP1 SWAP2 SUB SWAP1 REVERT JUMPDEST PUSH1 0x0 PUSH20 0xFFFFFFFFFFFFFFFFFFFFFFFFFFFFFFFFFFFFFFFF AND PUSH1 0x2 PUSH1 0x0 SWAP1 SLOAD SWAP1 PUSH2 0x100 EXP SWAP1 DIV PUSH20 0xFFFFFFFFFFFFFFFFFFFFFFFFFFFFFFFFFFFFFFFF AND PUSH20 0xFFFFFFFFFFFFFFFFFFFFFFFFFFFFFFFFFFFFFFFF AND EQ PUSH2 0xC66 JUMPI PUSH1 0x0 PUSH1 0x3 SLOAD TIMESTAMP PUSH2 0xC36 SWAP2 SWAP1 PUSH2 0x18B6 JUMP JUMPDEST SWAP1 POP PUSH2 0xC64 PUSH1 0x2 PUSH1 0x0 SWAP1 SLOAD SWAP1 PUSH2 0x100 EXP SWAP1 DIV PUSH20 0xFFFFFFFFFFFFFFFFFFFFFFFFFFFFFFFFFFFFFFFF AND DUP3 PUSH2 0x1016 JUMP JUMPDEST POP JUMPDEST CALLER PUSH1 0x2 PUSH1 0x0 PUSH2 0x100 EXP DUP2 SLOAD DUP2 PUSH20 0xFFFFFFFFFFFFFFFFFFFFFFFFFFFFFFFFFFFFFFFF MUL NOT AND SWAP1 DUP4 PUSH20 0xFFFFFFFFFFFFFFFFFFFFFFFFFFFFFFFFFFFFFFFF AND MUL OR SWAP1 SSTORE POP DUP1 PUSH1 0x4 DUP2 SWAP1 SSTORE POP TIMESTAMP PUSH1 0x3 DUP2 SWAP1 SSTORE POP DUP1 PUSH1 0x5 PUSH1 0x0 DUP3 DUP3 SLOAD PUSH2 0xCC7 SWAP2 SWAP1 PUSH2 0x1AAA JUMP JUMPDEST SWAP3 POP POP DUP2 SWAP1 SSTORE POP CALLER PUSH20 0xFFFFFFFFFFFFFFFFFFFFFFFFFFFFFFFFFFFFFFFF AND PUSH32 0x40D3BF7A102D9369093E56B1E99572A510E0AB7119220F856F4CF9B0BD2041AC DUP3 TIMESTAMP PUSH1 0x40 MLOAD PUSH2 0xD16 SWAP3 SWAP2 SWAP1 PUSH2 0x1C74 JUMP JUMPDEST PUSH1 0x40 MLOAD DUP1 SWAP2 SUB SWAP1 LOG2 PUSH1 0x8 SLOAD PUSH1 0x7 SLOAD PUSH2 0xD2E SWAP2 SWAP1 PUSH2 0x1AAA JUMP JUMPDEST TIMESTAMP LT PUSH2 0xD44 JUMPI PUSH2 0xD3C PUSH2 0x670 JUMP JUMPDEST TIMESTAMP PUSH1 0x7 DUP2 SWAP1 SSTORE POP JUMPDEST POP JUMP JUMPDEST PUSH1 0x3 SLOAD DUP2 JUMP JUMPDEST PUSH1 0x4 SLOAD DUP2 JUMP JUMPDEST PUSH1 0x6 SLOAD DUP2 JUMP JUMPDEST PUSH1 0x2 PUSH1 0x0 SWAP1 SLOAD SWAP1 PUSH2 0x100 EXP SWAP1 DIV PUSH20 0xFFFFFFFFFFFFFFFFFFFFFFFFFFFFFFFFFFFFFFFF AND DUP2 JUMP JUMPDEST PUSH1 0x0 PUSH1 0x1 DUP1 SLOAD SWAP1 POP SWAP1 POP PUSH1 0x0 JUMPDEST DUP2 DUP2 LT ISZERO PUSH2 0x1012 JUMPI PUSH1 0x0 JUMPDEST PUSH1 0x1 DUP3 DUP5 PUSH2 0xDA5 SWAP2 SWAP1 PUSH2 0x18B6 JUMP JUMPDEST PUSH2 0xDAF SWAP2 SWAP1 PUSH2 0x18B6 JUMP JUMPDEST DUP2 LT ISZERO PUSH2 0xFFE JUMPI PUSH1 0x1 DUP1 DUP3 PUSH2 0xDC4 SWAP2 SWAP1 PUSH2 0x1AAA JUMP JUMPDEST DUP2 SLOAD DUP2 LT PUSH2 0xDD5 JUMPI PUSH2 0xDD4 PUSH2 0x190C JUMP JUMPDEST JUMPDEST SWAP1 PUSH1 0x0 MSTORE PUSH1 0x20 PUSH1 0x0 KECCAK256 SWAP1 PUSH1 0x2 MUL ADD PUSH1 0x1 ADD SLOAD PUSH1 0x1 DUP3 DUP2 SLOAD DUP2 LT PUSH2 0xDFB JUMPI PUSH2 0xDFA PUSH2 0x190C JUMP JUMPDEST JUMPDEST SWAP1 PUSH1 0x0 MSTORE PUSH1 0x20 PUSH1 0x0 KECCAK256 SWAP1 PUSH1 0x2 MUL ADD PUSH1 0x1 ADD SLOAD LT ISZERO PUSH2 0xFEB JUMPI PUSH1 0x0 PUSH1 0x1 DUP3 DUP2 SLOAD DUP2 LT PUSH2 0xE29 JUMPI PUSH2 0xE28 PUSH2 0x190C JUMP JUMPDEST JUMPDEST SWAP1 PUSH1 0x0 MSTORE PUSH1 0x20 PUSH1 0x0 KECCAK256 SWAP1 PUSH1 0x2 MUL ADD PUSH1 0x40 MLOAD DUP1 PUSH1 0x40 ADD PUSH1 0x40 MSTORE SWAP1 DUP2 PUSH1 0x0 DUP3 ADD PUSH1 0x0 SWAP1 SLOAD SWAP1 PUSH2 0x100 EXP SWAP1 DIV PUSH20 0xFFFFFFFFFFFFFFFFFFFFFFFFFFFFFFFFFFFFFFFF AND PUSH20 0xFFFFFFFFFFFFFFFFFFFFFFFFFFFFFFFFFFFFFFFF AND PUSH20 0xFFFFFFFFFFFFFFFFFFFFFFFFFFFFFFFFFFFFFFFF AND DUP2 MSTORE PUSH1 0x20 ADD PUSH1 0x1 DUP3 ADD SLOAD DUP2 MSTORE POP POP SWAP1 POP PUSH1 0x1 DUP1 DUP4 PUSH2 0xEB2 SWAP2 SWAP1 PUSH2 0x1AAA JUMP JUMPDEST DUP2 SLOAD DUP2 LT PUSH2 0xEC3 JUMPI PUSH2 0xEC2 PUSH2 0x190C JUMP JUMPDEST JUMPDEST SWAP1 PUSH1 0x0 MSTORE PUSH1 0x20 PUSH1 0x0 KECCAK256 SWAP1 PUSH1 0x2 MUL ADD PUSH1 0x1 DUP4 DUP2 SLOAD DUP2 LT PUSH2 0xEE5 JUMPI PUSH2 0xEE4 PUSH2 0x190C JUMP JUMPDEST JUMPDEST SWAP1 PUSH1 0x0 MSTORE PUSH1 0x20 PUSH1 0x0 KECCAK256 SWAP1 PUSH1 0x2 MUL ADD PUSH1 0x0 DUP3 ADD PUSH1 0x0 SWAP1 SLOAD SWAP1 PUSH2 0x100 EXP SWAP1 DIV PUSH20 0xFFFFFFFFFFFFFFFFFFFFFFFFFFFFFFFFFFFFFFFF AND DUP2 PUSH1 0x0 ADD PUSH1 0x0 PUSH2 0x100 EXP DUP2 SLOAD DUP2 PUSH20 0xFFFFFFFFFFFFFFFFFFFFFFFFFFFFFFFFFFFFFFFF MUL NOT AND SWAP1 DUP4 PUSH20 0xFFFFFFFFFFFFFFFFFFFFFFFFFFFFFFFFFFFFFFFF AND MUL OR SWAP1 SSTORE POP PUSH1 0x1 DUP3 ADD SLOAD DUP2 PUSH1 0x1 ADD SSTORE SWAP1 POP POP DUP1 PUSH1 0x1 DUP1 DUP5 PUSH2 0xF76 SWAP2 SWAP1 PUSH2 0x1AAA JUMP JUMPDEST DUP2 SLOAD DUP2 LT PUSH2 0xF87 JUMPI PUSH2 0xF86 PUSH2 0x190C JUMP JUMPDEST JUMPDEST SWAP1 PUSH1 0x0 MSTORE PUSH1 0x20 PUSH1 0x0 KECCAK256 SWAP1 PUSH1 0x2 MUL ADD PUSH1 0x0 DUP3 ADD MLOAD DUP2 PUSH1 0x0 ADD PUSH1 0x0 PUSH2 0x100 EXP DUP2 SLOAD DUP2 PUSH20 0xFFFFFFFFFFFFFFFFFFFFFFFFFFFFFFFFFFFFFFFF MUL NOT AND SWAP1 DUP4 PUSH20 0xFFFFFFFFFFFFFFFFFFFFFFFFFFFFFFFFFFFFFFFF AND MUL OR SWAP1 SSTORE POP PUSH1 0x20 DUP3 ADD MLOAD DUP2 PUSH1 0x1 ADD SSTORE SWAP1 POP POP POP JUMPDEST DUP1 DUP1 PUSH2 0xFF6 SWAP1 PUSH2 0x193B JUMP JUMPDEST SWAP2 POP POP PUSH2 0xD97 JUMP JUMPDEST POP DUP1 DUP1 PUSH2 0x100A SWAP1 PUSH2 0x193B JUMP JUMPDEST SWAP2 POP POP PUSH2 0xD8C JUMP JUMPDEST POP POP JUMP JUMPDEST PUSH1 0x0 DUP1 JUMPDEST PUSH1 0x1 DUP1 SLOAD SWAP1 POP DUP2 LT ISZERO PUSH2 0x10F8 JUMPI DUP4 PUSH20 0xFFFFFFFFFFFFFFFFFFFFFFFFFFFFFFFFFFFFFFFF AND PUSH1 0x1 DUP3 DUP2 SLOAD DUP2 LT PUSH2 0x1052 JUMPI PUSH2 0x1051 PUSH2 0x190C JUMP JUMPDEST JUMPDEST SWAP1 PUSH1 0x0 MSTORE PUSH1 0x20 PUSH1 0x0 KECCAK256 SWAP1 PUSH1 0x2 MUL ADD PUSH1 0x0 ADD PUSH1 0x0 SWAP1 SLOAD SWAP1 PUSH2 0x100 EXP SWAP1 DIV PUSH20 0xFFFFFFFFFFFFFFFFFFFFFFFFFFFFFFFFFFFFFFFF AND PUSH20 0xFFFFFFFFFFFFFFFFFFFFFFFFFFFFFFFFFFFFFFFF AND EQ ISZERO PUSH2 0x10E5 JUMPI DUP3 PUSH1 0x1 DUP3 DUP2 SLOAD DUP2 LT PUSH2 0x10B5 JUMPI PUSH2 0x10B4 PUSH2 0x190C JUMP JUMPDEST JUMPDEST SWAP1 PUSH1 0x0 MSTORE PUSH1 0x20 PUSH1 0x0 KECCAK256 SWAP1 PUSH1 0x2 MUL ADD PUSH1 0x1 ADD PUSH1 0x0 DUP3 DUP3 SLOAD PUSH2 0x10D5 SWAP2 SWAP1 PUSH2 0x1AAA JUMP JUMPDEST SWAP3 POP POP DUP2 SWAP1 SSTORE POP PUSH1 0x1 SWAP2 POP PUSH2 0x10F8 JUMP JUMPDEST DUP1 DUP1 PUSH2 0x10F0 SWAP1 PUSH2 0x193B JUMP JUMPDEST SWAP2 POP POP PUSH2 0x101A JUMP JUMPDEST POP DUP1 PUSH2 0x11A8 JUMPI PUSH1 0x1 PUSH1 0x40 MLOAD DUP1 PUSH1 0x40 ADD PUSH1 0x40 MSTORE DUP1 DUP6 PUSH20 0xFFFFFFFFFFFFFFFFFFFFFFFFFFFFFFFFFFFFFFFF AND DUP2 MSTORE PUSH1 0x20 ADD DUP5 DUP2 MSTORE POP SWAP1 DUP1 PUSH1 0x1 DUP2 SLOAD ADD DUP1 DUP3 SSTORE DUP1 SWAP2 POP POP PUSH1 0x1 SWAP1 SUB SWAP1 PUSH1 0x0 MSTORE PUSH1 0x20 PUSH1 0x0 KECCAK256 SWAP1 PUSH1 0x2 MUL ADD PUSH1 0x0 SWAP1 SWAP2 SWAP1 SWAP2 SWAP1 SWAP2 POP PUSH1 0x0 DUP3 ADD MLOAD DUP2 PUSH1 0x0 ADD PUSH1 0x0 PUSH2 0x100 EXP DUP2 SLOAD DUP2 PUSH20 0xFFFFFFFFFFFFFFFFFFFFFFFFFFFFFFFFFFFFFFFF MUL NOT AND SWAP1 DUP4 PUSH20 0xFFFFFFFFFFFFFFFFFFFFFFFFFFFFFFFFFFFFFFFF AND MUL OR SWAP1 SSTORE POP PUSH1 0x20 DUP3 ADD MLOAD DUP2 PUSH1 0x1 ADD SSTORE POP POP JUMPDEST POP POP POP JUMP JUMPDEST DUP3 DUP1 SLOAD PUSH2 0x11B9 SWAP1 PUSH2 0x1855 JUMP JUMPDEST SWAP1 PUSH1 0x0 MSTORE PUSH1 0x20 PUSH1 0x0 KECCAK256 SWAP1 PUSH1 0x1F ADD PUSH1 0x20 SWAP1 DIV DUP2 ADD SWAP3 DUP3 PUSH2 0x11DB JUMPI PUSH1 0x0 DUP6 SSTORE PUSH2 0x1222 JUMP JUMPDEST DUP3 PUSH1 0x1F LT PUSH2 0x11F4 JUMPI DUP1 MLOAD PUSH1 0xFF NOT AND DUP4 DUP1 ADD OR DUP6 SSTORE PUSH2 0x1222 JUMP JUMPDEST DUP3 DUP1 ADD PUSH1 0x1 ADD DUP6 SSTORE DUP3 ISZERO PUSH2 0x1222 JUMPI SWAP2 DUP3 ADD JUMPDEST DUP3 DUP2 GT ISZERO PUSH2 0x1221 JUMPI DUP3 MLOAD DUP3 SSTORE SWAP2 PUSH1 0x20 ADD SWAP2 SWAP1 PUSH1 0x1 ADD SWAP1 PUSH2 0x1206 JUMP JUMPDEST JUMPDEST POP SWAP1 POP PUSH2 0x122F SWAP2 SWAP1 PUSH2 0x1287 JUMP JUMPDEST POP SWAP1 JUMP JUMPDEST PUSH1 0x40 MLOAD DUP1 PUSH1 0x40 ADD PUSH1 0x40 MSTORE DUP1 PUSH1 0x0 PUSH20 0xFFFFFFFFFFFFFFFFFFFFFFFFFFFFFFFFFFFFFFFF AND DUP2 MSTORE PUSH1 0x20 ADD PUSH1 0x0 DUP2 MSTORE POP SWAP1 JUMP JUMPDEST POP DUP1 SLOAD PUSH1 0x0 DUP3 SSTORE PUSH1 0x2 MUL SWAP1 PUSH1 0x0 MSTORE PUSH1 0x20 PUSH1 0x0 KECCAK256 SWAP1 DUP2 ADD SWAP1 PUSH2 0x1284 SWAP2 SWAP1 PUSH2 0x12A4 JUMP JUMPDEST POP JUMP JUMPDEST JUMPDEST DUP1 DUP3 GT ISZERO PUSH2 0x12A0 JUMPI PUSH1 0x0 DUP2 PUSH1 0x0 SWAP1 SSTORE POP PUSH1 0x1 ADD PUSH2 0x1288 JUMP JUMPDEST POP SWAP1 JUMP JUMPDEST JUMPDEST DUP1 DUP3 GT ISZERO PUSH2 0x12E6 JUMPI PUSH1 0x0 DUP1 DUP3 ADD PUSH1 0x0 PUSH2 0x100 EXP DUP2 SLOAD SWAP1 PUSH20 0xFFFFFFFFFFFFFFFFFFFFFFFFFFFFFFFFFFFFFFFF MUL NOT AND SWAP1 SSTORE PUSH1 0x1 DUP3 ADD PUSH1 0x0 SWAP1 SSTORE POP PUSH1 0x2 ADD PUSH2 0x12A5 JUMP JUMPDEST POP SWAP1 JUMP JUMPDEST PUSH1 0x0 PUSH1 0x40 MLOAD SWAP1 POP SWAP1 JUMP JUMPDEST PUSH1 0x0 DUP1 REVERT JUMPDEST PUSH1 0x0 DUP1 REVERT JUMPDEST PUSH1 0x0 DUP2 SWAP1 POP SWAP2 SWAP1 POP JUMP JUMPDEST PUSH2 0x1311 DUP2 PUSH2 0x12FE JUMP JUMPDEST DUP2 EQ PUSH2 0x131C JUMPI PUSH1 0x0 DUP1 REVERT JUMPDEST POP JUMP JUMPDEST PUSH1 0x0 DUP2 CALLDATALOAD SWAP1 POP PUSH2 0x132E DUP2 PUSH2 0x1308 JUMP JUMPDEST SWAP3 SWAP2 POP POP JUMP JUMPDEST PUSH1 0x0 PUSH1 0x20 DUP3 DUP5 SUB SLT ISZERO PUSH2 0x134A JUMPI PUSH2 0x1349 PUSH2 0x12F4 JUMP JUMPDEST JUMPDEST PUSH1 0x0 PUSH2 0x1358 DUP5 DUP3 DUP6 ADD PUSH2 0x131F JUMP JUMPDEST SWAP2 POP POP SWAP3 SWAP2 POP POP JUMP JUMPDEST PUSH1 0x0 PUSH20 0xFFFFFFFFFFFFFFFFFFFFFFFFFFFFFFFFFFFFFFFF DUP3 AND SWAP1 POP SWAP2 SWAP1 POP JUMP JUMPDEST PUSH1 0x0 PUSH2 0x138C DUP3 PUSH2 0x1361 JUMP JUMPDEST SWAP1 POP SWAP2 SWAP1 POP JUMP JUMPDEST PUSH2 0x139C DUP2 PUSH2 0x1381 JUMP JUMPDEST DUP3 MSTORE POP POP JUMP JUMPDEST PUSH1 0x0 DUP2 MLOAD SWAP1 POP SWAP2 SWAP1 POP JUMP JUMPDEST PUSH1 0x0 DUP3 DUP3 MSTORE PUSH1 0x20 DUP3 ADD SWAP1 POP SWAP3 SWAP2 POP POP JUMP JUMPDEST PUSH1 0x0 JUMPDEST DUP4 DUP2 LT ISZERO PUSH2 0x13DC JUMPI DUP1 DUP3 ADD MLOAD DUP2 DUP5 ADD MSTORE PUSH1 0x20 DUP2 ADD SWAP1 POP PUSH2 0x13C1 JUMP JUMPDEST DUP4 DUP2 GT ISZERO PUSH2 0x13EB JUMPI PUSH1 0x0 DUP5 DUP5 ADD MSTORE JUMPDEST POP POP POP POP JUMP JUMPDEST PUSH1 0x0 PUSH1 0x1F NOT PUSH1 0x1F DUP4 ADD AND SWAP1 POP SWAP2 SWAP1 POP JUMP JUMPDEST PUSH1 0x0 PUSH2 0x140D DUP3 PUSH2 0x13A2 JUMP JUMPDEST PUSH2 0x1417 DUP2 DUP6 PUSH2 0x13AD JUMP JUMPDEST SWAP4 POP PUSH2 0x1427 DUP2 DUP6 PUSH1 0x20 DUP7 ADD PUSH2 0x13BE JUMP JUMPDEST PUSH2 0x1430 DUP2 PUSH2 0x13F1 JUMP JUMPDEST DUP5 ADD SWAP2 POP POP SWAP3 SWAP2 POP POP JUMP JUMPDEST PUSH1 0x0 PUSH1 0x40 DUP3 ADD SWAP1 POP PUSH2 0x1450 PUSH1 0x0 DUP4 ADD DUP6 PUSH2 0x1393 JUMP JUMPDEST DUP2 DUP2 SUB PUSH1 0x20 DUP4 ADD MSTORE PUSH2 0x1462 DUP2 DUP5 PUSH2 0x1402 JUMP JUMPDEST SWAP1 POP SWAP4 SWAP3 POP POP POP JUMP JUMPDEST PUSH2 0x1474 DUP2 PUSH2 0x12FE JUMP JUMPDEST DUP3 MSTORE POP POP JUMP JUMPDEST PUSH1 0x0 PUSH1 0x60 DUP3 ADD SWAP1 POP PUSH2 0x148F PUSH1 0x0 DUP4 ADD DUP7 PUSH2 0x1393 JUMP JUMPDEST PUSH2 0x149C PUSH1 0x20 DUP4 ADD DUP6 PUSH2 0x146B JUMP JUMPDEST PUSH2 0x14A9 PUSH1 0x40 DUP4 ADD DUP5 PUSH2 0x146B JUMP JUMPDEST SWAP5 SWAP4 POP POP POP POP JUMP JUMPDEST PUSH1 0x0 DUP2 SWAP1 POP SWAP2 SWAP1 POP JUMP JUMPDEST PUSH1 0x0 PUSH2 0x14D6 PUSH2 0x14D1 PUSH2 0x14CC DUP5 PUSH2 0x1361 JUMP JUMPDEST PUSH2 0x14B1 JUMP JUMPDEST PUSH2 0x1361 JUMP JUMPDEST SWAP1 POP SWAP2 SWAP1 POP JUMP JUMPDEST PUSH1 0x0 PUSH2 0x14E8 DUP3 PUSH2 0x14BB JUMP JUMPDEST SWAP1 POP SWAP2 SWAP1 POP JUMP JUMPDEST PUSH1 0x0 PUSH2 0x14FA DUP3 PUSH2 0x14DD JUMP JUMPDEST SWAP1 POP SWAP2 SWAP1 POP JUMP JUMPDEST PUSH2 0x150A DUP2 PUSH2 0x14EF JUMP JUMPDEST DUP3 MSTORE POP POP JUMP JUMPDEST PUSH1 0x0 PUSH1 0x20 DUP3 ADD SWAP1 POP PUSH2 0x1525 PUSH1 0x0 DUP4 ADD DUP5 PUSH2 0x1501 JUMP JUMPDEST SWAP3 SWAP2 POP POP JUMP JUMPDEST PUSH1 0x0 PUSH1 0x20 DUP3 ADD SWAP1 POP PUSH2 0x1540 PUSH1 0x0 DUP4 ADD DUP5 PUSH2 0x146B JUMP JUMPDEST SWAP3 SWAP2 POP POP JUMP JUMPDEST PUSH1 0x0 DUP1 REVERT JUMPDEST PUSH1 0x0 DUP1 REVERT JUMPDEST PUSH32 0x4E487B7100000000000000000000000000000000000000000000000000000000 PUSH1 0x0 MSTORE PUSH1 0x41 PUSH1 0x4 MSTORE PUSH1 0x24 PUSH1 0x0 REVERT JUMPDEST PUSH2 0x1588 DUP3 PUSH2 0x13F1 JUMP JUMPDEST DUP2 ADD DUP2 DUP2 LT PUSH8 0xFFFFFFFFFFFFFFFF DUP3 GT OR ISZERO PUSH2 0x15A7 JUMPI PUSH2 0x15A6 PUSH2 0x1550 JUMP JUMPDEST JUMPDEST DUP1 PUSH1 0x40 MSTORE POP POP POP JUMP JUMPDEST PUSH1 0x0 PUSH2 0x15BA PUSH2 0x12EA JUMP JUMPDEST SWAP1 POP PUSH2 0x15C6 DUP3 DUP3 PUSH2 0x157F JUMP JUMPDEST SWAP2 SWAP1 POP JUMP JUMPDEST PUSH1 0x0 PUSH8 0xFFFFFFFFFFFFFFFF DUP3 GT ISZERO PUSH2 0x15E6 JUMPI PUSH2 0x15E5 PUSH2 0x1550 JUMP JUMPDEST JUMPDEST PUSH2 0x15EF DUP3 PUSH2 0x13F1 JUMP JUMPDEST SWAP1 POP PUSH1 0x20 DUP2 ADD SWAP1 POP SWAP2 SWAP1 POP JUMP JUMPDEST DUP3 DUP2 DUP4 CALLDATACOPY PUSH1 0x0 DUP4 DUP4 ADD MSTORE POP POP POP JUMP JUMPDEST PUSH1 0x0 PUSH2 0x161E PUSH2 0x1619 DUP5 PUSH2 0x15CB JUMP JUMPDEST PUSH2 0x15B0 JUMP JUMPDEST SWAP1 POP DUP3 DUP2 MSTORE PUSH1 0x20 DUP2 ADD DUP5 DUP5 DUP5 ADD GT ISZERO PUSH2 0x163A JUMPI PUSH2 0x1639 PUSH2 0x154B JUMP JUMPDEST JUMPDEST PUSH2 0x1645 DUP5 DUP3 DUP6 PUSH2 0x15FC JUMP JUMPDEST POP SWAP4 SWAP3 POP POP POP JUMP JUMPDEST PUSH1 0x0 DUP3 PUSH1 0x1F DUP4 ADD SLT PUSH2 0x1662 JUMPI PUSH2 0x1661 PUSH2 0x1546 JUMP JUMPDEST JUMPDEST DUP2 CALLDATALOAD PUSH2 0x1672 DUP5 DUP3 PUSH1 0x20 DUP7 ADD PUSH2 0x160B JUMP JUMPDEST SWAP2 POP POP SWAP3 SWAP2 POP POP JUMP JUMPDEST PUSH1 0x0 PUSH1 0x20 DUP3 DUP5 SUB SLT ISZERO PUSH2 0x1691 JUMPI PUSH2 0x1690 PUSH2 0x12F4 JUMP JUMPDEST JUMPDEST PUSH1 0x0 DUP3 ADD CALLDATALOAD PUSH8 0xFFFFFFFFFFFFFFFF DUP2 GT ISZERO PUSH2 0x16AF JUMPI PUSH2 0x16AE PUSH2 0x12F9 JUMP JUMPDEST JUMPDEST PUSH2 0x16BB DUP5 DUP3 DUP6 ADD PUSH2 0x164D JUMP JUMPDEST SWAP2 POP POP SWAP3 SWAP2 POP POP JUMP JUMPDEST PUSH1 0x0 DUP2 MLOAD SWAP1 POP SWAP2 SWAP1 POP JUMP JUMPDEST PUSH1 0x0 DUP3 DUP3 MSTORE PUSH1 0x20 DUP3 ADD SWAP1 POP SWAP3 SWAP2 POP POP JUMP JUMPDEST PUSH1 0x0 DUP2 SWAP1 POP PUSH1 0x20 DUP3 ADD SWAP1 POP SWAP2 SWAP1 POP JUMP JUMPDEST PUSH2 0x16F9 DUP2 PUSH2 0x1381 JUMP JUMPDEST DUP3 MSTORE POP POP JUMP JUMPDEST PUSH2 0x1708 DUP2 PUSH2 0x12FE JUMP JUMPDEST DUP3 MSTORE POP POP JUMP JUMPDEST PUSH1 0x40 DUP3 ADD PUSH1 0x0 DUP3 ADD MLOAD PUSH2 0x1724 PUSH1 0x0 DUP6 ADD DUP3 PUSH2 0x16F0 JUMP JUMPDEST POP PUSH1 0x20 DUP3 ADD MLOAD PUSH2 0x1737 PUSH1 0x20 DUP6 ADD DUP3 PUSH2 0x16FF JUMP JUMPDEST POP POP POP POP JUMP JUMPDEST PUSH1 0x0 PUSH2 0x1749 DUP4 DUP4 PUSH2 0x170E JUMP JUMPDEST PUSH1 0x40 DUP4 ADD SWAP1 POP SWAP3 SWAP2 POP POP JUMP JUMPDEST PUSH1 0x0 PUSH1 0x20 DUP3 ADD SWAP1 POP SWAP2 SWAP1 POP JUMP JUMPDEST PUSH1 0x0 PUSH2 0x176D DUP3 PUSH2 0x16C4 JUMP JUMPDEST PUSH2 0x1777 DUP2 DUP6 PUSH2 0x16CF JUMP JUMPDEST SWAP4 POP PUSH2 0x1782 DUP4 PUSH2 0x16E0 JUMP JUMPDEST DUP1 PUSH1 0x0 JUMPDEST DUP4 DUP2 LT ISZERO PUSH2 0x17B3 JUMPI DUP2 MLOAD PUSH2 0x179A DUP9 DUP3 PUSH2 0x173D JUMP JUMPDEST SWAP8 POP PUSH2 0x17A5 DUP4 PUSH2 0x1755 JUMP JUMPDEST SWAP3 POP POP PUSH1 0x1 DUP2 ADD SWAP1 POP PUSH2 0x1786 JUMP JUMPDEST POP DUP6 SWAP4 POP POP POP POP SWAP3 SWAP2 POP POP JUMP JUMPDEST PUSH1 0x0 PUSH1 0x20 DUP3 ADD SWAP1 POP DUP2 DUP2 SUB PUSH1 0x0 DUP4 ADD MSTORE PUSH2 0x17DA DUP2 DUP5 PUSH2 0x1762 JUMP JUMPDEST SWAP1 POP SWAP3 SWAP2 POP POP JUMP JUMPDEST PUSH1 0x0 PUSH1 0x40 DUP3 ADD SWAP1 POP PUSH2 0x17F7 PUSH1 0x0 DUP4 ADD DUP6 PUSH2 0x1393 JUMP JUMPDEST PUSH2 0x1804 PUSH1 0x20 DUP4 ADD DUP5 PUSH2 0x146B JUMP JUMPDEST SWAP4 SWAP3 POP POP POP JUMP JUMPDEST PUSH1 0x0 PUSH1 0x20 DUP3 ADD SWAP1 POP PUSH2 0x1820 PUSH1 0x0 DUP4 ADD DUP5 PUSH2 0x1393 JUMP JUMPDEST SWAP3 SWAP2 POP POP JUMP JUMPDEST PUSH32 0x4E487B7100000000000000000000000000000000000000000000000000000000 PUSH1 0x0 MSTORE PUSH1 0x22 PUSH1 0x4 MSTORE PUSH1 0x24 PUSH1 0x0 REVERT JUMPDEST PUSH1 0x0 PUSH1 0x2 DUP3 DIV SWAP1 POP PUSH1 0x1 DUP3 AND DUP1 PUSH2 0x186D JUMPI PUSH1 0x7F DUP3 AND SWAP2 POP JUMPDEST PUSH1 0x20 DUP3 LT DUP2 EQ ISZERO PUSH2 0x1881 JUMPI PUSH2 0x1880 PUSH2 0x1826 JUMP JUMPDEST JUMPDEST POP SWAP2 SWAP1 POP JUMP JUMPDEST PUSH32 0x4E487B7100000000000000000000000000000000000000000000000000000000 PUSH1 0x0 MSTORE PUSH1 0x11 PUSH1 0x4 MSTORE PUSH1 0x24 PUSH1 0x0 REVERT JUMPDEST PUSH1 0x0 PUSH2 0x18C1 DUP3 PUSH2 0x12FE JUMP JUMPDEST SWAP2 POP PUSH2 0x18CC DUP4 PUSH2 0x12FE JUMP JUMPDEST SWAP3 POP DUP3 DUP3 LT ISZERO PUSH2 0x18DF JUMPI PUSH2 0x18DE PUSH2 0x1887 JUMP JUMPDEST JUMPDEST DUP3 DUP3 SUB SWAP1 POP SWAP3 SWAP2 POP POP JUMP JUMPDEST PUSH1 0x0 PUSH1 0x20 DUP3 ADD SWAP1 POP DUP2 DUP2 SUB PUSH1 0x0 DUP4 ADD MSTORE PUSH2 0x1904 DUP2 DUP5 PUSH2 0x1402 JUMP JUMPDEST SWAP1 POP SWAP3 SWAP2 POP POP JUMP JUMPDEST PUSH32 0x4E487B7100000000000000000000000000000000000000000000000000000000 PUSH1 0x0 MSTORE PUSH1 0x32 PUSH1 0x4 MSTORE PUSH1 0x24 PUSH1 0x0 REVERT JUMPDEST PUSH1 0x0 PUSH2 0x1946 DUP3 PUSH2 0x12FE JUMP JUMPDEST SWAP2 POP PUSH32 0xFFFFFFFFFFFFFFFFFFFFFFFFFFFFFFFFFFFFFFFFFFFFFFFFFFFFFFFFFFFFFFFF DUP3 EQ ISZERO PUSH2 0x1979 JUMPI PUSH2 0x1978 PUSH2 0x1887 JUMP JUMPDEST JUMPDEST PUSH1 0x1 DUP3 ADD SWAP1 POP SWAP2 SWAP1 POP JUMP JUMPDEST PUSH32 0x4E6F206B696E677320746F207265776172640000000000000000000000000000 PUSH1 0x0 DUP3 ADD MSTORE POP JUMP JUMPDEST PUSH1 0x0 PUSH2 0x19BA PUSH1 0x12 DUP4 PUSH2 0x13AD JUMP JUMPDEST SWAP2 POP PUSH2 0x19C5 DUP3 PUSH2 0x1984 JUMP JUMPDEST PUSH1 0x20 DUP3 ADD SWAP1 POP SWAP2 SWAP1 POP JUMP JUMPDEST PUSH1 0x0 PUSH1 0x20 DUP3 ADD SWAP1 POP DUP2 DUP2 SUB PUSH1 0x0 DUP4 ADD MSTORE PUSH2 0x19E9 DUP2 PUSH2 0x19AD JUMP JUMPDEST SWAP1 POP SWAP2 SWAP1 POP JUMP JUMPDEST PUSH1 0x0 PUSH2 0x19FB DUP3 PUSH2 0x12FE JUMP JUMPDEST SWAP2 POP PUSH2 0x1A06 DUP4 PUSH2 0x12FE JUMP JUMPDEST SWAP3 POP DUP2 PUSH32 0xFFFFFFFFFFFFFFFFFFFFFFFFFFFFFFFFFFFFFFFFFFFFFFFFFFFFFFFFFFFFFFFF DIV DUP4 GT DUP3 ISZERO ISZERO AND ISZERO PUSH2 0x1A3F JUMPI PUSH2 0x1A3E PUSH2 0x1887 JUMP JUMPDEST JUMPDEST DUP3 DUP3 MUL SWAP1 POP SWAP3 SWAP2 POP POP JUMP JUMPDEST PUSH32 0x4E487B7100000000000000000000000000000000000000000000000000000000 PUSH1 0x0 MSTORE PUSH1 0x12 PUSH1 0x4 MSTORE PUSH1 0x24 PUSH1 0x0 REVERT JUMPDEST PUSH1 0x0 PUSH2 0x1A84 DUP3 PUSH2 0x12FE JUMP JUMPDEST SWAP2 POP PUSH2 0x1A8F DUP4 PUSH2 0x12FE JUMP JUMPDEST SWAP3 POP DUP3 PUSH2 0x1A9F JUMPI PUSH2 0x1A9E PUSH2 0x1A4A JUMP JUMPDEST JUMPDEST DUP3 DUP3 DIV SWAP1 POP SWAP3 SWAP2 POP POP JUMP JUMPDEST PUSH1 0x0 PUSH2 0x1AB5 DUP3 PUSH2 0x12FE JUMP JUMPDEST SWAP2 POP PUSH2 0x1AC0 DUP4 PUSH2 0x12FE JUMP JUMPDEST SWAP3 POP DUP3 PUSH32 0xFFFFFFFFFFFFFFFFFFFFFFFFFFFFFFFFFFFFFFFFFFFFFFFFFFFFFFFFFFFFFFFF SUB DUP3 GT ISZERO PUSH2 0x1AF5 JUMPI PUSH2 0x1AF4 PUSH2 0x1887 JUMP JUMPDEST JUMPDEST DUP3 DUP3 ADD SWAP1 POP SWAP3 SWAP2 POP POP JUMP JUMPDEST PUSH1 0x0 DUP2 ISZERO ISZERO SWAP1 POP SWAP2 SWAP1 POP JUMP JUMPDEST PUSH2 0x1B15 DUP2 PUSH2 0x1B00 JUMP JUMPDEST DUP2 EQ PUSH2 0x1B20 JUMPI PUSH1 0x0 DUP1 REVERT JUMPDEST POP JUMP JUMPDEST PUSH1 0x0 DUP2 MLOAD SWAP1 POP PUSH2 0x1B32 DUP2 PUSH2 0x1B0C JUMP JUMPDEST SWAP3 SWAP2 POP POP JUMP JUMPDEST PUSH1 0x0 PUSH1 0x20 DUP3 DUP5 SUB SLT ISZERO PUSH2 0x1B4E JUMPI PUSH2 0x1B4D PUSH2 0x12F4 JUMP JUMPDEST JUMPDEST PUSH1 0x0 PUSH2 0x1B5C DUP5 DUP3 DUP6 ADD PUSH2 0x1B23 JUMP JUMPDEST SWAP2 POP POP SWAP3 SWAP2 POP POP JUMP JUMPDEST PUSH32 0x4E656564206D6F726520746F6B656E7320746F206265636F6D65206B696E6700 PUSH1 0x0 DUP3 ADD MSTORE POP JUMP JUMPDEST PUSH1 0x0 PUSH2 0x1B9B PUSH1 0x1F DUP4 PUSH2 0x13AD JUMP JUMPDEST SWAP2 POP PUSH2 0x1BA6 DUP3 PUSH2 0x1B65 JUMP JUMPDEST PUSH1 0x20 DUP3 ADD SWAP1 POP SWAP2 SWAP1 POP JUMP JUMPDEST PUSH1 0x0 PUSH1 0x20 DUP3 ADD SWAP1 POP DUP2 DUP2 SUB PUSH1 0x0 DUP4 ADD MSTORE PUSH2 0x1BCA DUP2 PUSH2 0x1B8E JUMP JUMPDEST SWAP1 POP SWAP2 SWAP1 POP JUMP JUMPDEST PUSH1 0x0 PUSH1 0x60 DUP3 ADD SWAP1 POP PUSH2 0x1BE6 PUSH1 0x0 DUP4 ADD DUP7 PUSH2 0x1393 JUMP JUMPDEST PUSH2 0x1BF3 PUSH1 0x20 DUP4 ADD DUP6 PUSH2 0x1393 JUMP JUMPDEST PUSH2 0x1C00 PUSH1 0x40 DUP4 ADD DUP5 PUSH2 0x146B JUMP JUMPDEST SWAP5 SWAP4 POP POP POP POP JUMP JUMPDEST PUSH32 0x5472616E73666572206661696C65640000000000000000000000000000000000 PUSH1 0x0 DUP3 ADD MSTORE POP JUMP JUMPDEST PUSH1 0x0 PUSH2 0x1C3E PUSH1 0xF DUP4 PUSH2 0x13AD JUMP JUMPDEST SWAP2 POP PUSH2 0x1C49 DUP3 PUSH2 0x1C08 JUMP JUMPDEST PUSH1 0x20 DUP3 ADD SWAP1 POP SWAP2 SWAP1 POP JUMP JUMPDEST PUSH1 0x0 PUSH1 0x20 DUP3 ADD SWAP1 POP DUP2 DUP2 SUB PUSH1 0x0 DUP4 ADD MSTORE PUSH2 0x1C6D DUP2 PUSH2 0x1C31 JUMP JUMPDEST SWAP1 POP SWAP2 SWAP1 POP JUMP JUMPDEST PUSH1 0x0 PUSH1 0x40 DUP3 ADD SWAP1 POP PUSH2 0x1C89 PUSH1 0x0 DUP4 ADD DUP6 PUSH2 0x146B JUMP JUMPDEST PUSH2 0x1C96 PUSH1 0x20 DUP4 ADD DUP5 PUSH2 0x146B JUMP JUMPDEST SWAP4 SWAP3 POP POP POP JUMP INVALID LOG2 PUSH5 0x6970667358 0x22 SLT KECCAK256 CHAINID 0xCB 0xDF DIV CALLER SWAP9 CALLER 0x5E 0x49 SWAP13 0xCB DUP8 0xC0 SELFBALANCE 0xF 0x2B CALLCODE DIFFICULTY 0xE6 0xEC SELFBALANCE 0xE2 OR SWAP1 SIGNEXTEND 0x26 SIGNEXTEND RETURN PUSH16 0xECC8B264736F6C634300080C00330000 "},"methodIdentifiers":{"claimThrone(uint256)":"b90c0127","commission()":"e1489191","currentKing()":"f5b45714","currentPrize()":"c42b42a0","distributeRewards()":"6f4a2cd0","distributionInterval()":"71201a0e","getKingInfo()":"1250d011","getTopKings()":"4a306990","kings(uint256)":"8f67419d","lastClaimTime()":"c21bae0c","lastDistributionTime()":"75b17350","messages(uint256)":"0d80fefd","oceanToken()":"244bb7f0","sendMessage(string)":"469c8110","totalPrizePool()":"398ab9a7"}}}}}