{
  "_format": "hh-sol-artifact-1",
  "contractName": "BaseEndpoint",
  "sourceName": "@oasisprotocol/sapphire-contracts/contracts/opl/Endpoint.sol",
  "abi": [
    {
      "inputs": [
        {
          "internalType": "address",
          "name": "_remote",
          "type": "address"
        },
        {
          "internalType": "uint256",
          "name": "_remoteChainId",
          "type": "uint256"
        },
        {
          "internalType": "address",
          "name": "_messageBus",
          "type": "address"
        },
        {
          "internalType": "bool",
          "name": "_inOrder",
          "type": "bool"
        }
      ],
      "stateMutability": "nonpayable",
      "type": "constructor"
    },
    {
      "inputs": [],
      "name": "MissingRemoteAddr",
      "type": "error"
    },
    {
      "inputs": [],
      "name": "MissingRemoteChainId",
      "type": "error"
    },
    {
      "inputs": [],
      "name": "SelfCallDisallowed",
      "type": "error"
    },
    {
      "inputs": [
        {
          "internalType": "address",
          "name": "_sender",
          "type": "address"
        },
        {
          "internalType": "uint64",
          "name": "_senderChainId",
          "type": "uint64"
        },
        {
          "internalType": "bytes",
          "name": "_message",
          "type": "bytes"
        },
        {
          "internalType": "address",
          "name": "",
          "type": "address"
        }
      ],
      "name": "executeMessage",
      "outputs": [
        {
          "internalType": "uint256",
          "name": "",
          "type": "uint256"
        }
      ],
      "stateMutability": "payable",
      "type": "function"
    }
  ],
  "bytecode": "0x60c06040523480156200001157600080fd5b5060405162000cd838038062000cd883398181016040528101906200003791906200030a565b600073ffffffffffffffffffffffffffffffffffffffff168473ffffffffffffffffffffffffffffffffffffffff1614156200009f576040517f5f9997df00000000000000000000000000000000000000000000000000000000815260040160405180910390fd5b6000831415620000db576040517fa9e2223000000000000000000000000000000000000000000000000000000000815260040160405180910390fd5b836000806101000a81548173ffffffffffffffffffffffffffffffffffffffff021916908373ffffffffffffffffffffffffffffffffffffffff160217905550826001819055508173ffffffffffffffffffffffffffffffffffffffff1660808173ffffffffffffffffffffffffffffffffffffffff168152505080151560a08115158152505062000172620001c160201b60201c565b1580156200017f57504683145b15620001b7576040517fdbf02d7c00000000000000000000000000000000000000000000000000000000815260040160405180910390fd5b505050506200037c565b60008060009054906101000a900473ffffffffffffffffffffffffffffffffffffffff1673ffffffffffffffffffffffffffffffffffffffff1660805173ffffffffffffffffffffffffffffffffffffffff1614801562000223575060015446145b905090565b600080fd5b600073ffffffffffffffffffffffffffffffffffffffff82169050919050565b60006200025a826200022d565b9050919050565b6200026c816200024d565b81146200027857600080fd5b50565b6000815190506200028c8162000261565b92915050565b6000819050919050565b620002a78162000292565b8114620002b357600080fd5b50565b600081519050620002c7816200029c565b92915050565b60008115159050919050565b620002e481620002cd565b8114620002f057600080fd5b50565b6000815190506200030481620002d9565b92915050565b6000806000806080858703121562000327576200032662000228565b5b600062000337878288016200027b565b94505060206200034a87828801620002b6565b93505060406200035d878288016200027b565b92505060606200037087828801620002f3565b91505092959194509250565b60805160a051610937620003a160003960006101ed01526000605701526109376000f3fe60806040526004361061001e5760003560e01c80639c649fdf14610023575b600080fd5b61003d600480360381019061003891906104c9565b610053565b60405161004a919061056a565b60405180910390f35b60007f000000000000000000000000000000000000000000000000000000000000000073ffffffffffffffffffffffffffffffffffffffff163373ffffffffffffffffffffffffffffffffffffffff16146100e3576040517f08c379a00000000000000000000000000000000000000000000000000000000081526004016100da906105e2565b60405180910390fd5b60008054906101000a900473ffffffffffffffffffffffffffffffffffffffff1673ffffffffffffffffffffffffffffffffffffffff168673ffffffffffffffffffffffffffffffffffffffff1614801561014957506001548567ffffffffffffffff16145b610188576040517f08c379a000000000000000000000000000000000000000000000000000000000815260040161017f9061064e565b60405180910390fd5b6000848460009060049261019e93929190610678565b906101a991906106f7565b9050600085856004906024926101c193929190610678565b906101cc9190610760565b60001c9050366000878760249080926101e793929190610678565b915091507f00000000000000000000000000000000000000000000000000000000000000001561026c576004548314610255576040517f08c379a000000000000000000000000000000000000000000000000000000000815260040161024c9061080b565b60405180910390fd5b6004600081546102649061085a565b919050819055505b6103b260026000867bffffffffffffffffffffffffffffffffffffffffffffffffffffffff1916815260200190815260200160002060009054906101000a900480156103b2021767ffffffffffffffff16905060008115905060006103228585600260008b7bffffffffffffffffffffffffffffffffffffffffffffffffffffffff1916815260200190815260200160002060009054906101000a900480156103b2021767ffffffffffffffff1663ffffffff16565b905060016002811115610338576103376108a3565b5b81600281111561034b5761034a6108a3565b5b14156103615760029750505050505050506103a9565b600280811115610374576103736108a3565b5b816002811115610387576103866108a3565b5b141561039d5760019750505050505050506103a9565b60009750505050505050505b95945050505050565b6103ba6108d2565b565b600080fd5b600080fd5b600073ffffffffffffffffffffffffffffffffffffffff82169050919050565b60006103f1826103c6565b9050919050565b610401816103e6565b811461040c57600080fd5b50565b60008135905061041e816103f8565b92915050565b600067ffffffffffffffff82169050919050565b61044181610424565b811461044c57600080fd5b50565b60008135905061045e81610438565b92915050565b600080fd5b600080fd5b600080fd5b60008083601f84011261048957610488610464565b5b8235905067ffffffffffffffff8111156104a6576104a5610469565b5b6020830191508360018202830111156104c2576104c161046e565b5b9250929050565b6000806000806000608086880312156104e5576104e46103bc565b5b60006104f38882890161040f565b95505060206105048882890161044f565b945050604086013567ffffffffffffffff811115610525576105246103c1565b5b61053188828901610473565b935093505060606105448882890161040f565b9150509295509295909350565b6000819050919050565b61056481610551565b82525050565b600060208201905061057f600083018461055b565b92915050565b600082825260208201905092915050565b7f4e6f744d65737361676542757300000000000000000000000000000000000000600082015250565b60006105cc600d83610585565b91506105d782610596565b602082019050919050565b600060208201905081810360008301526105fb816105bf565b9050919050565b7f4e6f7452656d6f7465456e64706f696e74000000000000000000000000000000600082015250565b6000610638601183610585565b915061064382610602565b602082019050919050565b600060208201905081810360008301526106678161062b565b9050919050565b600080fd5b600080fd5b6000808585111561068c5761068b61066e565b5b8386111561069d5761069c610673565b5b6001850283019150848603905094509492505050565b600082905092915050565b60007fffffffff0000000000000000000000000000000000000000000000000000000082169050919050565b600082821b905092915050565b600061070383836106b3565b8261070e81356106be565b9250600482101561074e576107497fffffffff00000000000000000000000000000000000000000000000000000000836004036008026106ea565b831692505b505092915050565b6000819050919050565b600061076c83836106b3565b826107778135610756565b925060208210156107b7576107b27fffffffffffffffffffffffffffffffffffffffffffffffffffffffffffffffff836020036008026106ea565b831692505b505092915050565b7f57726f6e675365714e756d000000000000000000000000000000000000000000600082015250565b60006107f5600b83610585565b9150610800826107bf565b602082019050919050565b60006020820190508181036000830152610824816107e8565b9050919050565b7f4e487b7100000000000000000000000000000000000000000000000000000000600052601160045260246000fd5b600061086582610551565b91507fffffffffffffffffffffffffffffffffffffffffffffffffffffffffffffffff8214156108985761089761082b565b5b600182019050919050565b7f4e487b7100000000000000000000000000000000000000000000000000000000600052602160045260246000fd5b7f4e487b7100000000000000000000000000000000000000000000000000000000600052605160045260246000fdfea2646970667358221220326b4de7ae6ac64d32253391dcab56beaf0e40aceba8280c2e42c8cee2b3c8d664736f6c634300080c0033",
  "linkReferences": {},
  "deployedLinkReferences": {}
}