{
  "_format": "hh-sol-artifact-1",
  "contractName": "Host",
  "sourceName": "@oasisprotocol/sapphire-contracts/contracts/opl/Host.sol",
  "abi": [
    {
      "inputs": [
        {
          "internalType": "address",
          "name": "_enclave",
          "type": "address"
        }
      ],
      "stateMutability": "nonpayable",
      "type": "constructor"
    },
    {
      "inputs": [],
      "name": "AutoConfigUnavailable",
      "type": "error"
    },
    {
      "inputs": [],
      "name": "MissingRemoteAddr",
      "type": "error"
    },
    {
      "inputs": [],
      "name": "MissingRemoteChainId",
      "type": "error"
    },
    {
      "inputs": [],
      "name": "SelfCallDisallowed",
      "type": "error"
    },
    {
      "inputs": [
        {
          "internalType": "address",
          "name": "_sender",
          "type": "address"
        },
        {
          "internalType": "uint64",
          "name": "_senderChainId",
          "type": "uint64"
        },
        {
          "internalType": "bytes",
          "name": "_message",
          "type": "bytes"
        },
        {
          "internalType": "address",
          "name": "",
          "type": "address"
        }
      ],
      "name": "executeMessage",
      "outputs": [
        {
          "internalType": "uint256",
          "name": "",
          "type": "uint256"
        }
      ],
      "stateMutability": "payable",
      "type": "function"
    }
  ],
  "bytecode": "0x60c06040523480156200001157600080fd5b506040516200173838038062001738833981810160405281019062000037919062000daa565b80620000697f73617070686972650000000000000000000000000000000000000000000000006200021b60201b60201c565b816200007b826200059b60201b60201c565b6200008d8484620005e860201b60201c565b60008073ffffffffffffffffffffffffffffffffffffffff168473ffffffffffffffffffffffffffffffffffffffff161415620000f6576040517f5f9997df00000000000000000000000000000000000000000000000000000000815260040160405180910390fd5b600083141562000132576040517fa9e2223000000000000000000000000000000000000000000000000000000000815260040160405180910390fd5b836000806101000a81548173ffffffffffffffffffffffffffffffffffffffff021916908373ffffffffffffffffffffffffffffffffffffffff160217905550826001819055508173ffffffffffffffffffffffffffffffffffffffff1660808173ffffffffffffffffffffffffffffffffffffffff168152505080151560a081151581525050620001c96200063d60201b60201c565b158015620001d657504683145b156200020e576040517fdbf02d7c00000000000000000000000000000000000000000000000000000000815260040160405180910390fd5b5050505050505062000ddc565b60006105394614806200022f5750617a6946145b156200025e577f6c6f63616c000000000000000000000000000000000000000000000000000000905062000596565b60006200027146620006a460201b60201c565b915050801562000545577f657468657265756d000000000000000000000000000000000000000000000000831415620002ce577f676f65726c69000000000000000000000000000000000000000000000000000091505062000596565b7f627363000000000000000000000000000000000000000000000000000000000083141562000321577f6273632d746573746e657400000000000000000000000000000000000000000091505062000596565b7f706f6c79676f6e0000000000000000000000000000000000000000000000000083141562000374577f706f6c79676f6e2d6d756d62616900000000000000000000000000000000000091505062000596565b7f66616e746f6d0000000000000000000000000000000000000000000000000000831415620003c7577f66616e746f6d2d746573746e657400000000000000000000000000000000000091505062000596565b7f73617070686972650000000000000000000000000000000000000000000000008314156200041a577f73617070686972652d746573746e65740000000000000000000000000000000091505062000596565b7f617262697472756d2d6f6e6500000000000000000000000000000000000000008314156200046d577f617262697472756d2d746573746e65740000000000000000000000000000000091505062000596565b7f617262697472756d2d6e6f766100000000000000000000000000000000000000831415620004c0577f617262697472756d2d746573746e65740000000000000000000000000000000091505062000596565b7f6176616c616e636865000000000000000000000000000000000000000000000083141562000513577f6176616c616e6368652d66756a6900000000000000000000000000000000000091505062000596565b6040517f11e9f92400000000000000000000000000000000000000000000000000000000815260040160405180910390fd5b60006200055884620009c560201b60201c565b141562000591576040517f11e9f92400000000000000000000000000000000000000000000000000000000815260040160405180910390fd5b829150505b919050565b60007f6c6f63616c000000000000000000000000000000000000000000000000000000821415620005cf57469050620005e3565b620005e082620009c560201b60201c565b90505b919050565b60007f6c6f63616c0000000000000000000000000000000000000000000000000000008214156200061c5782905062000637565b60006200062f46620006a460201b60201c565b509050809150505b92915050565b60008060009054906101000a900473ffffffffffffffffffffffffffffffffffffffff1673ffffffffffffffffffffffffffffffffffffffff1660805173ffffffffffffffffffffffffffffffffffffffff161480156200069f575060015446145b905090565b6000806001831415620006d257734066d196a423b2b3b8b054f4f40efb47a74e200c600091509150620009c0565b6005831415620006fd5773f25170f86e4291a99a9a560032fe9948b8bcfbb2600191509150620009c0565b600a8314156200072857730d71d18126e03646eb09fec929e2ae87b7cae69d600091509150620009c0565b603883141562000753577395714818fdd7a5454f73da9c777b3ee6ebaeea6b600091509150620009c0565b60618314156200077e5773ad204986d6cb67a5bc76a3cb8974823f43cb9aaa600191509150620009c0565b6089831415620007a95773afdb9c40c7144022811f034ee07ce2e110093fe6600091509150620009c0565b60fa831415620007d45773ff4e183a0ceb4fa98e63bbf8077b929c8e5a2ba4600091509150620009c0565b610fa2831415620008005773b92d6933a024bcca9a21669a480c236cbc973110600191509150620009c0565b6105058314156200082c5773940daaba3f713abfabd79cdd991466fe698cbe54600091509150620009c0565b615afe8314156200085857739bb46d5100d2db4608112026951c9c965b233f4d600091509150620009c0565b615aff8314156200088457739bb46d5100d2db4608112026951c9c965b233f4d600191509150620009c0565b61a4b1831415620008b057733ad9d0648cdaa2426331e894e980d0a5ed16257f600091509150620009c0565b61a4ba831415620008dc5773f5c6825015280cdfd0b56903f9f8b5a2233476f5600091509150620009c0565b61a869831415620009085773e9533976c590200e32d95c53f06ae12d292cfc47600191509150620009c0565b61a86a8314156200093457735a926eeeafc4d217add17e9641e8ce23cd01ad57600091509150620009c0565b620138818314156200096157737d43aabc515c356145049227cee54b608342c0ad600191509150620009c0565b62066eeb8314156200098e57737d43aabc515c356145049227cee54b608342c0ad600191509150620009c0565b6040517f11e9f92400000000000000000000000000000000000000000000000000000000815260040160405180910390fd5b915091565b60007f657468657265756d000000000000000000000000000000000000000000000000821415620009fa576001905062000d3b565b7f676f65726c69000000000000000000000000000000000000000000000000000082141562000a2d576005905062000d3b565b7f6f7074696d69736d00000000000000000000000000000000000000000000000082141562000a6057600a905062000d3b565b7f627363000000000000000000000000000000000000000000000000000000000082141562000a93576038905062000d3b565b7f6273632d746573746e657400000000000000000000000000000000000000000082141562000ac6576061905062000d3b565b7f706f6c79676f6e0000000000000000000000000000000000000000000000000082141562000af9576089905062000d3b565b7f66616e746f6d000000000000000000000000000000000000000000000000000082141562000b2c5760fa905062000d3b565b7f66616e746f6d2d746573746e657400000000000000000000000000000000000082141562000b6057610fa2905062000d3b565b7f6d6f6f6e7269766572000000000000000000000000000000000000000000000082141562000b9457610505905062000d3b565b7f617262697472756d2d6f6e65000000000000000000000000000000000000000082141562000bc85761a4b1905062000d3b565b7f617262697472756d2d6e6f76610000000000000000000000000000000000000082141562000bfc5761a4ba905062000d3b565b7f736170706869726500000000000000000000000000000000000000000000000082141562000c3057615afe905062000d3b565b7f73617070686972652d746573746e65740000000000000000000000000000000082141562000c6457615aff905062000d3b565b7f706f6c79676f6e2d6d756d62616900000000000000000000000000000000000082141562000c995762013881905062000d3b565b7f6176616c616e636865000000000000000000000000000000000000000000000082141562000ccd5761a86a905062000d3b565b7f6176616c616e6368652d66756a6900000000000000000000000000000000000082141562000d015761a931905062000d3b565b7f617262697472756d2d746573746e65740000000000000000000000000000000082141562000d365762066eeb905062000d3b565b600090505b919050565b600080fd5b600073ffffffffffffffffffffffffffffffffffffffff82169050919050565b600062000d728262000d45565b9050919050565b62000d848162000d65565b811462000d9057600080fd5b50565b60008151905062000da48162000d79565b92915050565b60006020828403121562000dc35762000dc262000d40565b5b600062000dd38482850162000d93565b91505092915050565b60805160a05161093762000e0160003960006101ed01526000605701526109376000f3fe60806040526004361061001e5760003560e01c80639c649fdf14610023575b600080fd5b61003d600480360381019061003891906104c9565b610053565b60405161004a919061056a565b60405180910390f35b60007f000000000000000000000000000000000000000000000000000000000000000073ffffffffffffffffffffffffffffffffffffffff163373ffffffffffffffffffffffffffffffffffffffff16146100e3576040517f08c379a00000000000000000000000000000000000000000000000000000000081526004016100da906105e2565b60405180910390fd5b60008054906101000a900473ffffffffffffffffffffffffffffffffffffffff1673ffffffffffffffffffffffffffffffffffffffff168673ffffffffffffffffffffffffffffffffffffffff1614801561014957506001548567ffffffffffffffff16145b610188576040517f08c379a000000000000000000000000000000000000000000000000000000000815260040161017f9061064e565b60405180910390fd5b6000848460009060049261019e93929190610678565b906101a991906106f7565b9050600085856004906024926101c193929190610678565b906101cc9190610760565b60001c9050366000878760249080926101e793929190610678565b915091507f00000000000000000000000000000000000000000000000000000000000000001561026c576004548314610255576040517f08c379a000000000000000000000000000000000000000000000000000000000815260040161024c9061080b565b60405180910390fd5b6004600081546102649061085a565b919050819055505b6103b260026000867bffffffffffffffffffffffffffffffffffffffffffffffffffffffff1916815260200190815260200160002060009054906101000a900480156103b2021767ffffffffffffffff16905060008115905060006103228585600260008b7bffffffffffffffffffffffffffffffffffffffffffffffffffffffff1916815260200190815260200160002060009054906101000a900480156103b2021767ffffffffffffffff1663ffffffff16565b905060016002811115610338576103376108a3565b5b81600281111561034b5761034a6108a3565b5b14156103615760029750505050505050506103a9565b600280811115610374576103736108a3565b5b816002811115610387576103866108a3565b5b141561039d5760019750505050505050506103a9565b60009750505050505050505b95945050505050565b6103ba6108d2565b565b600080fd5b600080fd5b600073ffffffffffffffffffffffffffffffffffffffff82169050919050565b60006103f1826103c6565b9050919050565b610401816103e6565b811461040c57600080fd5b50565b60008135905061041e816103f8565b92915050565b600067ffffffffffffffff82169050919050565b61044181610424565b811461044c57600080fd5b50565b60008135905061045e81610438565b92915050565b600080fd5b600080fd5b600080fd5b60008083601f84011261048957610488610464565b5b8235905067ffffffffffffffff8111156104a6576104a5610469565b5b6020830191508360018202830111156104c2576104c161046e565b5b9250929050565b6000806000806000608086880312156104e5576104e46103bc565b5b60006104f38882890161040f565b95505060206105048882890161044f565b945050604086013567ffffffffffffffff811115610525576105246103c1565b5b61053188828901610473565b935093505060606105448882890161040f565b9150509295509295909350565b6000819050919050565b61056481610551565b82525050565b600060208201905061057f600083018461055b565b92915050565b600082825260208201905092915050565b7f4e6f744d65737361676542757300000000000000000000000000000000000000600082015250565b60006105cc600d83610585565b91506105d782610596565b602082019050919050565b600060208201905081810360008301526105fb816105bf565b9050919050565b7f4e6f7452656d6f7465456e64706f696e74000000000000000000000000000000600082015250565b6000610638601183610585565b915061064382610602565b602082019050919050565b600060208201905081810360008301526106678161062b565b9050919050565b600080fd5b600080fd5b6000808585111561068c5761068b61066e565b5b8386111561069d5761069c610673565b5b6001850283019150848603905094509492505050565b600082905092915050565b60007fffffffff0000000000000000000000000000000000000000000000000000000082169050919050565b600082821b905092915050565b600061070383836106b3565b8261070e81356106be565b9250600482101561074e576107497fffffffff00000000000000000000000000000000000000000000000000000000836004036008026106ea565b831692505b505092915050565b6000819050919050565b600061076c83836106b3565b826107778135610756565b925060208210156107b7576107b27fffffffffffffffffffffffffffffffffffffffffffffffffffffffffffffffff836020036008026106ea565b831692505b505092915050565b7f57726f6e675365714e756d000000000000000000000000000000000000000000600082015250565b60006107f5600b83610585565b9150610800826107bf565b602082019050919050565b60006020820190508181036000830152610824816107e8565b9050919050565b7f4e487b7100000000000000000000000000000000000000000000000000000000600052601160045260246000fd5b600061086582610551565b91507fffffffffffffffffffffffffffffffffffffffffffffffffffffffffffffffff8214156108985761089761082b565b5b600182019050919050565b7f4e487b7100000000000000000000000000000000000000000000000000000000600052602160045260246000fd5b7f4e487b7100000000000000000000000000000000000000000000000000000000600052605160045260246000fdfea2646970667358221220299078ad3e29765303351de21845266d45d803932ecac0619d5c21af8d5bcd6b64736f6c634300080c0033",
  "linkReferences": {},
  "deployedLinkReferences": {}
}