{
  "_format": "hh-sol-artifact-1",
  "contractName": "KingOfTheHill",
  "sourceName": "contracts/interfaces/KingOfTheHill.sol",
  "abi": [
    {
      "inputs": [
        {
          "internalType": "address",
          "name": "_oceanTokenAddress",
          "type": "address"
        },
        {
          "internalType": "address",
          "name": "_nicknamesAddress",
          "type": "address"
        }
      ],
      "stateMutability": "nonpayable",
      "type": "constructor"
    },
    {
      "anonymous": false,
      "inputs": [
        {
          "indexed": true,
          "internalType": "address",
          "name": "owner",
          "type": "address"
        },
        {
          "indexed": false,
          "internalType": "uint256",
          "name": "amount",
          "type": "uint256"
        }
      ],
      "name": "CommissionWithdrawn",
      "type": "event"
    },
    {
      "anonymous": false,
      "inputs": [
        {
          "indexed": true,
          "internalType": "address",
          "name": "king",
          "type": "address"
        },
        {
          "indexed": false,
          "internalType": "uint256",
          "name": "amount",
          "type": "uint256"
        },
        {
          "indexed": false,
          "internalType": "uint256",
          "name": "timestamp",
          "type": "uint256"
        }
      ],
      "name": "NewKing",
      "type": "event"
    },
    {
      "anonymous": false,
      "inputs": [
        {
          "indexed": true,
          "internalType": "address",
          "name": "sender",
          "type": "address"
        },
        {
          "indexed": false,
          "internalType": "string",
          "name": "content",
          "type": "string"
        }
      ],
      "name": "NewMessage",
      "type": "event"
    },
    {
      "inputs": [
        {
          "internalType": "uint256",
          "name": "amount",
          "type": "uint256"
        }
      ],
      "name": "claimThrone",
      "outputs": [],
      "stateMutability": "nonpayable",
      "type": "function"
    },
    {
      "inputs": [],
      "name": "distributeRewards",
      "outputs": [],
      "stateMutability": "nonpayable",
      "type": "function"
    },
    {
      "inputs": [],
      "name": "distributionInterval",
      "outputs": [
        {
          "internalType": "uint256",
          "name": "",
          "type": "uint256"
        }
      ],
      "stateMutability": "view",
      "type": "function"
    },
    {
      "inputs": [],
      "name": "getAllMessages",
      "outputs": [
        {
          "components": [
            {
              "internalType": "address",
              "name": "sender",
              "type": "address"
            },
            {
              "internalType": "string",
              "name": "content",
              "type": "string"
            }
          ],
          "internalType": "struct KingOfTheHill.Message[]",
          "name": "",
          "type": "tuple[]"
        }
      ],
      "stateMutability": "view",
      "type": "function"
    },
    {
      "inputs": [],
      "name": "getKingInfo",
      "outputs": [
        {
          "internalType": "string",
          "name": "kingNickname",
          "type": "string"
        },
        {
          "internalType": "uint256",
          "name": "prize",
          "type": "uint256"
        },
        {
          "internalType": "uint256",
          "name": "timeOnThrone",
          "type": "uint256"
        }
      ],
      "stateMutability": "view",
      "type": "function"
    },
    {
      "inputs": [],
      "name": "getTopKings",
      "outputs": [
        {
          "components": [
            {
              "internalType": "address",
              "name": "addr",
              "type": "address"
            },
            {
              "internalType": "uint256",
              "name": "timeOnThrone",
              "type": "uint256"
            }
          ],
          "internalType": "struct KingOfTheHill.King[]",
          "name": "",
          "type": "tuple[]"
        }
      ],
      "stateMutability": "view",
      "type": "function"
    },
    {
      "inputs": [],
      "name": "lastDistributionTime",
      "outputs": [
        {
          "internalType": "uint256",
          "name": "",
          "type": "uint256"
        }
      ],
      "stateMutability": "view",
      "type": "function"
    },
    {
      "inputs": [],
      "name": "nicknamesContract",
      "outputs": [
        {
          "internalType": "contract Nicknames",
          "name": "",
          "type": "address"
        }
      ],
      "stateMutability": "view",
      "type": "function"
    },
    {
      "inputs": [],
      "name": "oceanToken",
      "outputs": [
        {
          "internalType": "contract IERC20Template",
          "name": "",
          "type": "address"
        }
      ],
      "stateMutability": "view",
      "type": "function"
    },
    {
      "inputs": [],
      "name": "owner",
      "outputs": [
        {
          "internalType": "address",
          "name": "",
          "type": "address"
        }
      ],
      "stateMutability": "view",
      "type": "function"
    },
    {
      "inputs": [
        {
          "internalType": "string",
          "name": "content",
          "type": "string"
        }
      ],
      "name": "sendMessage",
      "outputs": [],
      "stateMutability": "nonpayable",
      "type": "function"
    },
    {
      "inputs": [],
      "name": "withdrawCommission",
      "outputs": [],
      "stateMutability": "nonpayable",
      "type": "function"
    }
  ],
  "bytecode": "0x608060405262093a806008553480156200001857600080fd5b5060405162002b9938038062002b9983398181016040528101906200003e91906200018e565b81600960006101000a81548173ffffffffffffffffffffffffffffffffffffffff021916908373ffffffffffffffffffffffffffffffffffffffff16021790555080600b60006101000a81548173ffffffffffffffffffffffffffffffffffffffff021916908373ffffffffffffffffffffffffffffffffffffffff16021790555042600781905550735666534b19b5c9d5c54881c43b3c01ee52a82f21600a60006101000a81548173ffffffffffffffffffffffffffffffffffffffff021916908373ffffffffffffffffffffffffffffffffffffffff1602179055505050620001d5565b600080fd5b600073ffffffffffffffffffffffffffffffffffffffff82169050919050565b6000620001568262000129565b9050919050565b620001688162000149565b81146200017457600080fd5b50565b60008151905062000188816200015d565b92915050565b60008060408385031215620001a857620001a762000124565b5b6000620001b88582860162000177565b9250506020620001cb8582860162000177565b9150509250929050565b6129b480620001e56000396000f3fe608060405234801561001057600080fd5b50600436106100b45760003560e01c80636f4a2cd0116100715780636f4a2cd01461015957806371201a0e1461016357806375b17350146101815780638da5cb5b1461019f578063b90c0127146101bd578063e8f9a1bc146101d9576100b4565b80631250d011146100b9578063244bb7f0146100d95780633e25e837146100f7578063469c8110146101015780634a3069901461011d57806353f5e3801461013b575b600080fd5b6100c16101f7565b6040516100d093929190611ae6565b60405180910390f35b6100e161031b565b6040516100ee9190611ba3565b60405180910390f35b6100ff610341565b005b61011b60048036038101906101169190611d07565b61055b565b005b610125610668565b6040516101329190611e5e565b60405180910390f35b6101436107b3565b6040516101509190611fc9565b60405180910390f35b6101616108fa565b005b61016b610fcc565b6040516101789190611feb565b60405180910390f35b610189610fd2565b6040516101969190611feb565b60405180910390f35b6101a7610fd8565b6040516101b49190612015565b60405180910390f35b6101d760048036038101906101d2919061205c565b610ffe565b005b6101e161129a565b6040516101ee91906120aa565b60405180910390f35b60606000806000600b60009054906101000a900473ffffffffffffffffffffffffffffffffffffffff1673ffffffffffffffffffffffffffffffffffffffff1663adaccd74600260009054906101000a900473ffffffffffffffffffffffffffffffffffffffff166040518263ffffffff1660e01b815260040161027b9190612015565b600060405180830381865afa158015610298573d6000803e3d6000fd5b505050506040513d6000823e3d601f19601f820116820180604052508101906102c19190612135565b905060008151116102fc576102f7600260009054906101000a900473ffffffffffffffffffffffffffffffffffffffff166112c0565b6102fe565b805b6004546003544261030f91906121ad565b93509350935050909192565b600960009054906101000a900473ffffffffffffffffffffffffffffffffffffffff1681565b600a60009054906101000a900473ffffffffffffffffffffffffffffffffffffffff1673ffffffffffffffffffffffffffffffffffffffff163373ffffffffffffffffffffffffffffffffffffffff16146103d1576040517f08c379a00000000000000000000000000000000000000000000000000000000081526004016103c890612253565b60405180910390fd5b600060065411610416576040517f08c379a000000000000000000000000000000000000000000000000000000000815260040161040d906122bf565b60405180910390fd5b600060065490506000600681905550600960009054906101000a900473ffffffffffffffffffffffffffffffffffffffff1673ffffffffffffffffffffffffffffffffffffffff1663a9059cbb600a60009054906101000a900473ffffffffffffffffffffffffffffffffffffffff16836040518363ffffffff1660e01b81526004016104a49291906122df565b6020604051808303816000875af11580156104c3573d6000803e3d6000fd5b505050506040513d601f19601f820116820180604052508101906104e79190612340565b50600a60009054906101000a900473ffffffffffffffffffffffffffffffffffffffff1673ffffffffffffffffffffffffffffffffffffffff167fd244b5a3b2e3977ecffe1a5e5ab7661aadfecbae24be711b7a72bb42bd1b2db0826040516105509190611feb565b60405180910390a250565b600060405180604001604052803373ffffffffffffffffffffffffffffffffffffffff16815260200183815250908060018154018082558091505060019003906000526020600020906002020160009091909190915060008201518160000160006101000a81548173ffffffffffffffffffffffffffffffffffffffff021916908373ffffffffffffffffffffffffffffffffffffffff16021790555060208201518160010190805190602001906106149291906118f7565b5050503373ffffffffffffffffffffffffffffffffffffffff167f8da45d748eefefd09cc1491cd32086b6d6a0bd7063d08f05c94df9eb1404bd808260405161065d919061236d565b60405180910390a250565b60606000600a6001805490501061068057600a610687565b6001805490505b905060008167ffffffffffffffff8111156106a5576106a4611bdc565b5b6040519080825280602002602001820160405280156106de57816020015b6106cb61197d565b8152602001906001900390816106c35790505b50905060005b828110156107aa5760018181548110610700576106ff61238f565b5b90600052602060002090600202016040518060400160405290816000820160009054906101000a900473ffffffffffffffffffffffffffffffffffffffff1673ffffffffffffffffffffffffffffffffffffffff1673ffffffffffffffffffffffffffffffffffffffff16815260200160018201548152505082828151811061078c5761078b61238f565b5b602002602001018190525080806107a2906123be565b9150506106e4565b50809250505090565b60606000805480602002602001604051908101604052809291908181526020016000905b828210156108f157838290600052602060002090600202016040518060400160405290816000820160009054906101000a900473ffffffffffffffffffffffffffffffffffffffff1673ffffffffffffffffffffffffffffffffffffffff1673ffffffffffffffffffffffffffffffffffffffff16815260200160018201805461086090612436565b80601f016020809104026020016040519081016040528092919081815260200182805461088c90612436565b80156108d95780601f106108ae576101008083540402835291602001916108d9565b820191906000526020600020905b8154815290600101906020018083116108bc57829003601f168201915b505050505081525050815260200190600101906107d7565b50505050905090565b600060018054905011610942576040517f08c379a0000000000000000000000000000000000000000000000000000000008152600401610939906124b4565b60405180910390fd5b61094a611483565b60006005549050606460058261096091906124d4565b61096a919061255d565b6006600082825461097b919061258e565b92505081905550600180805490501415610a9357600960009054906101000a900473ffffffffffffffffffffffffffffffffffffffff1673ffffffffffffffffffffffffffffffffffffffff1663a9059cbb60016000815481106109e2576109e161238f565b5b906000526020600020906002020160000160009054906101000a900473ffffffffffffffffffffffffffffffffffffffff166064605f85610a2391906124d4565b610a2d919061255d565b6040518363ffffffff1660e01b8152600401610a4a9291906122df565b6020604051808303816000875af1158015610a69573d6000803e3d6000fd5b505050506040513d601f19601f82011682018060405250810190610a8d9190612340565b50610fb3565b60026001805490501415610ca357600960009054906101000a900473ffffffffffffffffffffffffffffffffffffffff1673ffffffffffffffffffffffffffffffffffffffff1663a9059cbb6001600081548110610af457610af361238f565b5b906000526020600020906002020160000160009054906101000a900473ffffffffffffffffffffffffffffffffffffffff166064603c85610b3591906124d4565b610b3f919061255d565b6040518363ffffffff1660e01b8152600401610b5c9291906122df565b6020604051808303816000875af1158015610b7b573d6000803e3d6000fd5b505050506040513d601f19601f82011682018060405250810190610b9f9190612340565b50600960009054906101000a900473ffffffffffffffffffffffffffffffffffffffff1673ffffffffffffffffffffffffffffffffffffffff1663a9059cbb60018081548110610bf257610bf161238f565b5b906000526020600020906002020160000160009054906101000a900473ffffffffffffffffffffffffffffffffffffffff166064602385610c3391906124d4565b610c3d919061255d565b6040518363ffffffff1660e01b8152600401610c5a9291906122df565b6020604051808303816000875af1158015610c79573d6000803e3d6000fd5b505050506040513d601f19601f82011682018060405250810190610c9d9190612340565b50610fb2565b60006064603283610cb491906124d4565b610cbe919061255d565b905060006064601e84610cd191906124d4565b610cdb919061255d565b905060006064600f85610cee91906124d4565b610cf8919061255d565b9050600960009054906101000a900473ffffffffffffffffffffffffffffffffffffffff1673ffffffffffffffffffffffffffffffffffffffff1663a9059cbb6001600081548110610d4d57610d4c61238f565b5b906000526020600020906002020160000160009054906101000a900473ffffffffffffffffffffffffffffffffffffffff16856040518363ffffffff1660e01b8152600401610d9d9291906122df565b6020604051808303816000875af1158015610dbc573d6000803e3d6000fd5b505050506040513d601f19601f82011682018060405250810190610de09190612340565b50600960009054906101000a900473ffffffffffffffffffffffffffffffffffffffff1673ffffffffffffffffffffffffffffffffffffffff1663a9059cbb60018081548110610e3357610e3261238f565b5b906000526020600020906002020160000160009054906101000a900473ffffffffffffffffffffffffffffffffffffffff16846040518363ffffffff1660e01b8152600401610e839291906122df565b6020604051808303816000875af1158015610ea2573d6000803e3d6000fd5b505050506040513d601f19601f82011682018060405250810190610ec69190612340565b50600960009054906101000a900473ffffffffffffffffffffffffffffffffffffffff1673ffffffffffffffffffffffffffffffffffffffff1663a9059cbb6001600281548110610f1a57610f1961238f565b5b906000526020600020906002020160000160009054906101000a900473ffffffffffffffffffffffffffffffffffffffff16836040518363ffffffff1660e01b8152600401610f6a9291906122df565b6020604051808303816000875af1158015610f89573d6000803e3d6000fd5b505050506040513d601f19601f82011682018060405250810190610fad9190612340565b505050505b5b60016000610fc191906119ad565b600060058190555050565b60085481565b60075481565b600a60009054906101000a900473ffffffffffffffffffffffffffffffffffffffff1681565b6004548111611042576040517f08c379a000000000000000000000000000000000000000000000000000000000815260040161103990612630565b60405180910390fd5b600960009054906101000a900473ffffffffffffffffffffffffffffffffffffffff1673ffffffffffffffffffffffffffffffffffffffff166323b872dd3330846040518463ffffffff1660e01b81526004016110a193929190612650565b6020604051808303816000875af11580156110c0573d6000803e3d6000fd5b505050506040513d601f19601f820116820180604052508101906110e49190612340565b611123576040517f08c379a000000000000000000000000000000000000000000000000000000000815260040161111a906126d3565b60405180910390fd5b600073ffffffffffffffffffffffffffffffffffffffff16600260009054906101000a900473ffffffffffffffffffffffffffffffffffffffff1673ffffffffffffffffffffffffffffffffffffffff16146111b95760006003544261118991906121ad565b90506111b7600260009054906101000a900473ffffffffffffffffffffffffffffffffffffffff168261171a565b505b33600260006101000a81548173ffffffffffffffffffffffffffffffffffffffff021916908373ffffffffffffffffffffffffffffffffffffffff1602179055508060048190555042600381905550806005600082825461121a919061258e565b925050819055503373ffffffffffffffffffffffffffffffffffffffff167f40d3bf7a102d9369093e56b1e99572a510e0ab7119220f856f4cf9b0bd2041ac82426040516112699291906126f3565b60405180910390a2600854600754611281919061258e565b42106112975761128f6108fa565b426007819055505b50565b600b60009054906101000a900473ffffffffffffffffffffffffffffffffffffffff1681565b60606000602867ffffffffffffffff8111156112df576112de611bdc565b5b6040519080825280601f01601f1916602001820160405280156113115781602001600182028036833780820191505090505b50905060005b601481101561147957600081601361132f91906121ad565b600861133b91906124d4565b6002611347919061284f565b8573ffffffffffffffffffffffffffffffffffffffff16611368919061255d565b60f81b9050600060108260f81c61137f91906128a7565b60f81b905060008160f81c601061139691906128d8565b8360f81c6113a49190612913565b60f81b90506113b2826118b1565b858560026113c091906124d4565b815181106113d1576113d061238f565b5b60200101907effffffffffffffffffffffffffffffffffffffffffffffffffffffffffffff1916908160001a905350611409816118b1565b85600186600261141991906124d4565b611423919061258e565b815181106114345761143361238f565b5b60200101907effffffffffffffffffffffffffffffffffffffffffffffffffffffffffffff1916908160001a9053505050508080611471906123be565b915050611317565b5080915050919050565b6000600180549050905060005b818110156117165760005b600182846114a991906121ad565b6114b391906121ad565b81101561170257600180826114c8919061258e565b815481106114d9576114d861238f565b5b906000526020600020906002020160010154600182815481106114ff576114fe61238f565b5b90600052602060002090600202016001015410156116ef5760006001828154811061152d5761152c61238f565b5b90600052602060002090600202016040518060400160405290816000820160009054906101000a900473ffffffffffffffffffffffffffffffffffffffff1673ffffffffffffffffffffffffffffffffffffffff1673ffffffffffffffffffffffffffffffffffffffff1681526020016001820154815250509050600180836115b6919061258e565b815481106115c7576115c661238f565b5b9060005260206000209060020201600183815481106115e9576115e861238f565b5b90600052602060002090600202016000820160009054906101000a900473ffffffffffffffffffffffffffffffffffffffff168160000160006101000a81548173ffffffffffffffffffffffffffffffffffffffff021916908373ffffffffffffffffffffffffffffffffffffffff16021790555060018201548160010155905050806001808461167a919061258e565b8154811061168b5761168a61238f565b5b906000526020600020906002020160008201518160000160006101000a81548173ffffffffffffffffffffffffffffffffffffffff021916908373ffffffffffffffffffffffffffffffffffffffff16021790555060208201518160010155905050505b80806116fa906123be565b91505061149b565b50808061170e906123be565b915050611490565b5050565b6000805b6001805490508110156117fc578373ffffffffffffffffffffffffffffffffffffffff16600182815481106117565761175561238f565b5b906000526020600020906002020160000160009054906101000a900473ffffffffffffffffffffffffffffffffffffffff1673ffffffffffffffffffffffffffffffffffffffff1614156117e95782600182815481106117b9576117b861238f565b5b906000526020600020906002020160010160008282546117d9919061258e565b92505081905550600191506117fc565b80806117f4906123be565b91505061171e565b50806118ac57600160405180604001604052808573ffffffffffffffffffffffffffffffffffffffff16815260200184815250908060018154018082558091505060019003906000526020600020906002020160009091909190915060008201518160000160006101000a81548173ffffffffffffffffffffffffffffffffffffffff021916908373ffffffffffffffffffffffffffffffffffffffff1602179055506020820151816001015550505b505050565b6000600a8260f81c60ff1610156118dc5760308260f81c6118d29190612947565b60f81b90506118f2565b60578260f81c6118ec9190612947565b60f81b90505b919050565b82805461190390612436565b90600052602060002090601f016020900481019282611925576000855561196c565b82601f1061193e57805160ff191683800117855561196c565b8280016001018555821561196c579182015b8281111561196b578251825591602001919060010190611950565b5b50905061197991906119d1565b5090565b6040518060400160405280600073ffffffffffffffffffffffffffffffffffffffff168152602001600081525090565b50805460008255600202906000526020600020908101906119ce91906119ee565b50565b5b808211156119ea5760008160009055506001016119d2565b5090565b5b80821115611a3057600080820160006101000a81549073ffffffffffffffffffffffffffffffffffffffff02191690556001820160009055506002016119ef565b5090565b600081519050919050565b600082825260208201905092915050565b60005b83811015611a6e578082015181840152602081019050611a53565b83811115611a7d576000848401525b50505050565b6000601f19601f8301169050919050565b6000611a9f82611a34565b611aa98185611a3f565b9350611ab9818560208601611a50565b611ac281611a83565b840191505092915050565b6000819050919050565b611ae081611acd565b82525050565b60006060820190508181036000830152611b008186611a94565b9050611b0f6020830185611ad7565b611b1c6040830184611ad7565b949350505050565b600073ffffffffffffffffffffffffffffffffffffffff82169050919050565b6000819050919050565b6000611b69611b64611b5f84611b24565b611b44565b611b24565b9050919050565b6000611b7b82611b4e565b9050919050565b6000611b8d82611b70565b9050919050565b611b9d81611b82565b82525050565b6000602082019050611bb86000830184611b94565b92915050565b6000604051905090565b600080fd5b600080fd5b600080fd5b600080fd5b7f4e487b7100000000000000000000000000000000000000000000000000000000600052604160045260246000fd5b611c1482611a83565b810181811067ffffffffffffffff82111715611c3357611c32611bdc565b5b80604052505050565b6000611c46611bbe565b9050611c528282611c0b565b919050565b600067ffffffffffffffff821115611c7257611c71611bdc565b5b611c7b82611a83565b9050602081019050919050565b82818337600083830152505050565b6000611caa611ca584611c57565b611c3c565b905082815260208101848484011115611cc657611cc5611bd7565b5b611cd1848285611c88565b509392505050565b600082601f830112611cee57611ced611bd2565b5b8135611cfe848260208601611c97565b91505092915050565b600060208284031215611d1d57611d1c611bc8565b5b600082013567ffffffffffffffff811115611d3b57611d3a611bcd565b5b611d4784828501611cd9565b91505092915050565b600081519050919050565b600082825260208201905092915050565b6000819050602082019050919050565b6000611d8782611b24565b9050919050565b611d9781611d7c565b82525050565b611da681611acd565b82525050565b604082016000820151611dc26000850182611d8e565b506020820151611dd56020850182611d9d565b50505050565b6000611de78383611dac565b60408301905092915050565b6000602082019050919050565b6000611e0b82611d50565b611e158185611d5b565b9350611e2083611d6c565b8060005b83811015611e51578151611e388882611ddb565b9750611e4383611df3565b925050600181019050611e24565b5085935050505092915050565b60006020820190508181036000830152611e788184611e00565b905092915050565b600081519050919050565b600082825260208201905092915050565b6000819050602082019050919050565b600082825260208201905092915050565b6000611ec882611a34565b611ed28185611eac565b9350611ee2818560208601611a50565b611eeb81611a83565b840191505092915050565b6000604083016000830151611f0e6000860182611d8e565b5060208301518482036020860152611f268282611ebd565b9150508091505092915050565b6000611f3f8383611ef6565b905092915050565b6000602082019050919050565b6000611f5f82611e80565b611f698185611e8b565b935083602082028501611f7b85611e9c565b8060005b85811015611fb75784840389528151611f988582611f33565b9450611fa383611f47565b925060208a01995050600181019050611f7f565b50829750879550505050505092915050565b60006020820190508181036000830152611fe38184611f54565b905092915050565b60006020820190506120006000830184611ad7565b92915050565b61200f81611d7c565b82525050565b600060208201905061202a6000830184612006565b92915050565b61203981611acd565b811461204457600080fd5b50565b60008135905061205681612030565b92915050565b60006020828403121561207257612071611bc8565b5b600061208084828501612047565b91505092915050565b600061209482611b70565b9050919050565b6120a481612089565b82525050565b60006020820190506120bf600083018461209b565b92915050565b60006120d86120d384611c57565b611c3c565b9050828152602081018484840111156120f4576120f3611bd7565b5b6120ff848285611a50565b509392505050565b600082601f83011261211c5761211b611bd2565b5b815161212c8482602086016120c5565b91505092915050565b60006020828403121561214b5761214a611bc8565b5b600082015167ffffffffffffffff81111561216957612168611bcd565b5b61217584828501612107565b91505092915050565b7f4e487b7100000000000000000000000000000000000000000000000000000000600052601160045260246000fd5b60006121b882611acd565b91506121c383611acd565b9250828210156121d6576121d561217e565b5b828203905092915050565b7f4f6e6c79206f776e65722063616e20776974686472617720636f6d6d6973736960008201527f6f6e000000000000000000000000000000000000000000000000000000000000602082015250565b600061223d602283611a3f565b9150612248826121e1565b604082019050919050565b6000602082019050818103600083015261226c81612230565b9050919050565b7f4e6f20636f6d6d697373696f6e20746f20776974686472617700000000000000600082015250565b60006122a9601983611a3f565b91506122b482612273565b602082019050919050565b600060208201905081810360008301526122d88161229c565b9050919050565b60006040820190506122f46000830185612006565b6123016020830184611ad7565b9392505050565b60008115159050919050565b61231d81612308565b811461232857600080fd5b50565b60008151905061233a81612314565b92915050565b60006020828403121561235657612355611bc8565b5b60006123648482850161232b565b91505092915050565b600060208201905081810360008301526123878184611a94565b905092915050565b7f4e487b7100000000000000000000000000000000000000000000000000000000600052603260045260246000fd5b60006123c982611acd565b91507fffffffffffffffffffffffffffffffffffffffffffffffffffffffffffffffff8214156123fc576123fb61217e565b5b600182019050919050565b7f4e487b7100000000000000000000000000000000000000000000000000000000600052602260045260246000fd5b6000600282049050600182168061244e57607f821691505b6020821081141561246257612461612407565b5b50919050565b7f4e6f206b696e677320746f207265776172640000000000000000000000000000600082015250565b600061249e601283611a3f565b91506124a982612468565b602082019050919050565b600060208201905081810360008301526124cd81612491565b9050919050565b60006124df82611acd565b91506124ea83611acd565b9250817fffffffffffffffffffffffffffffffffffffffffffffffffffffffffffffffff04831182151516156125235761252261217e565b5b828202905092915050565b7f4e487b7100000000000000000000000000000000000000000000000000000000600052601260045260246000fd5b600061256882611acd565b915061257383611acd565b9250826125835761258261252e565b5b828204905092915050565b600061259982611acd565b91506125a483611acd565b9250827fffffffffffffffffffffffffffffffffffffffffffffffffffffffffffffffff038211156125d9576125d861217e565b5b828201905092915050565b7f4e656564206d6f726520746f6b656e7320746f206265636f6d65206b696e6700600082015250565b600061261a601f83611a3f565b9150612625826125e4565b602082019050919050565b600060208201905081810360008301526126498161260d565b9050919050565b60006060820190506126656000830186612006565b6126726020830185612006565b61267f6040830184611ad7565b949350505050565b7f5472616e73666572206661696c65640000000000000000000000000000000000600082015250565b60006126bd600f83611a3f565b91506126c882612687565b602082019050919050565b600060208201905081810360008301526126ec816126b0565b9050919050565b60006040820190506127086000830185611ad7565b6127156020830184611ad7565b9392505050565b60008160011c9050919050565b6000808291508390505b60018511156127735780860481111561274f5761274e61217e565b5b600185161561275e5780820291505b808102905061276c8561271c565b9450612733565b94509492505050565b60008261278c5760019050612848565b8161279a5760009050612848565b81600181146127b057600281146127ba576127e9565b6001915050612848565b60ff8411156127cc576127cb61217e565b5b8360020a9150848211156127e3576127e261217e565b5b50612848565b5060208310610133831016604e8410600b841016171561281e5782820a9050838111156128195761281861217e565b5b612848565b61282b8484846001612729565b925090508184048111156128425761284161217e565b5b81810290505b9392505050565b600061285a82611acd565b915061286583611acd565b92506128927fffffffffffffffffffffffffffffffffffffffffffffffffffffffffffffffff848461277c565b905092915050565b600060ff82169050919050565b60006128b28261289a565b91506128bd8361289a565b9250826128cd576128cc61252e565b5b828204905092915050565b60006128e38261289a565b91506128ee8361289a565b92508160ff04831182151516156129085761290761217e565b5b828202905092915050565b600061291e8261289a565b91506129298361289a565b92508282101561293c5761293b61217e565b5b828203905092915050565b60006129528261289a565b915061295d8361289a565b92508260ff038211156129735761297261217e565b5b82820190509291505056fea2646970667358221220c369ee2fcacf4e5eaf5a7b579db224d56a5cdcd4cdfb9420157d0a5a7db6408a64736f6c634300080c0033",
  "linkReferences": {},
  "deployedLinkReferences": {}
}