{
  "_format": "hh-sol-artifact-1",
  "contractName": "Nicknames",
  "sourceName": "contracts/interfaces/Nicknames.sol",
  "abi": [
    {
      "inputs": [],
      "name": "InvalidCharacters",
      "type": "error"
    },
    {
      "inputs": [
        {
          "internalType": "string",
          "name": "nickname",
          "type": "string"
        }
      ],
      "name": "NicknameAlreadyTaken",
      "type": "error"
    },
    {
      "inputs": [],
      "name": "NicknameTooLong",
      "type": "error"
    },
    {
      "inputs": [],
      "name": "NicknameTooShort",
      "type": "error"
    },
    {
      "inputs": [],
      "name": "UserAlreadyHasNickname",
      "type": "error"
    },
    {
      "anonymous": false,
      "inputs": [
        {
          "indexed": false,
          "internalType": "string",
          "name": "oldNickname",
          "type": "string"
        },
        {
          "indexed": false,
          "internalType": "string",
          "name": "newNickname",
          "type": "string"
        }
      ],
      "name": "NicknameChanged",
      "type": "event"
    },
    {
      "anonymous": false,
      "inputs": [
        {
          "indexed": false,
          "internalType": "string",
          "name": "nickname",
          "type": "string"
        }
      ],
      "name": "NicknameSet",
      "type": "event"
    },
    {
      "inputs": [
        {
          "internalType": "string",
          "name": "nickname",
          "type": "string"
        }
      ],
      "name": "getAddressByNickname",
      "outputs": [
        {
          "internalType": "address",
          "name": "",
          "type": "address"
        }
      ],
      "stateMutability": "view",
      "type": "function"
    },
    {
      "inputs": [
        {
          "internalType": "address",
          "name": "user",
          "type": "address"
        }
      ],
      "name": "getNickname",
      "outputs": [
        {
          "internalType": "string",
          "name": "",
          "type": "string"
        }
      ],
      "stateMutability": "view",
      "type": "function"
    },
    {
      "inputs": [
        {
          "internalType": "address",
          "name": "user",
          "type": "address"
        }
      ],
      "name": "hasUserNickname",
      "outputs": [
        {
          "internalType": "bool",
          "name": "",
          "type": "bool"
        }
      ],
      "stateMutability": "view",
      "type": "function"
    },
    {
      "inputs": [
        {
          "internalType": "string",
          "name": "nickname",
          "type": "string"
        }
      ],
      "name": "isNicknameTaken",
      "outputs": [
        {
          "internalType": "bool",
          "name": "",
          "type": "bool"
        }
      ],
      "stateMutability": "view",
      "type": "function"
    },
    {
      "inputs": [
        {
          "internalType": "string",
          "name": "nickname",
          "type": "string"
        }
      ],
      "name": "setNickname",
      "outputs": [],
      "stateMutability": "nonpayable",
      "type": "function"
    }
  ],
  "bytecode": "0x608060405234801561001057600080fd5b50610ebc806100206000396000f3fe608060405234801561001057600080fd5b50600436106100575760003560e01c80631c5d9faa1461005c57806331085c5f146100785780634c40e8e9146100a8578063adaccd74146100d8578063e0880b6e14610108575b600080fd5b61007660048036038101906100719190610b0c565b610138565b005b610092600480360381019061008d9190610b0c565b61072a565b60405161009f9190610b96565b60405180910390f35b6100c260048036038101906100bd9190610bdd565b610772565b6040516100cf9190610c25565b60405180910390f35b6100f260048036038101906100ed9190610bdd565b6107c8565b6040516100ff9190610cc8565b60405180910390f35b610122600480360381019061011d9190610b0c565b610898565b60405161012f9190610c25565b60405180910390f35b80600081905060038151101561017a576040517fcb37d59800000000000000000000000000000000000000000000000000000000815260040160405180910390fd5b6010815111156101b6576040517f6f6003c300000000000000000000000000000000000000000000000000000000815260040160405180910390fd5b60005b81518110156103985760008282815181106101d7576101d6610cea565b5b602001015160f81c60f81b90506000604160f81b827effffffffffffffffffffffffffffffffffffffffffffffffffffffffffffff1916101580156102425750605a60f81b827effffffffffffffffffffffffffffffffffffffffffffffffffffffffffffff191611155b806102a55750606160f81b827effffffffffffffffffffffffffffffffffffffffffffffffffffffffffffff1916101580156102a45750607a60f81b827effffffffffffffffffffffffffffffffffffffffffffffffffffffffffffff191611155b5b90506000603060f81b837effffffffffffffffffffffffffffffffffffffffffffffffffffffffffffff1916101580156103055750603960f81b837effffffffffffffffffffffffffffffffffffffffffffffffffffffffffffff191611155b90506000605f60f81b847effffffffffffffffffffffffffffffffffffffffffffffffffffffffffffff191614905082158015610340575081155b801561034a575080155b15610381576040517f5d82217e00000000000000000000000000000000000000000000000000000000815260040160405180910390fd5b50505050808061039090610d52565b9150506101b9565b50600073ffffffffffffffffffffffffffffffffffffffff166001846040516103c19190610dd7565b908152602001604051809103902060009054906101000a900473ffffffffffffffffffffffffffffffffffffffff1673ffffffffffffffffffffffffffffffffffffffff161461044857826040517f3a1fa51800000000000000000000000000000000000000000000000000000000815260040161043f9190610cc8565b60405180910390fd5b600260003373ffffffffffffffffffffffffffffffffffffffff1673ffffffffffffffffffffffffffffffffffffffff16815260200190815260200160002060009054906101000a900460ff16156105e55760008060003373ffffffffffffffffffffffffffffffffffffffff1673ffffffffffffffffffffffffffffffffffffffff16815260200190815260200160002080546104e590610e1d565b80601f016020809104026020016040519081016040528092919081815260200182805461051190610e1d565b801561055e5780601f106105335761010080835404028352916020019161055e565b820191906000526020600020905b81548152906001019060200180831161054157829003601f168201915b505050505090506001816040516105759190610dd7565b908152602001604051809103902060006101000a81549073ffffffffffffffffffffffffffffffffffffffff02191690557fe159928d69df84dbaa90f42578586c071d611be7e356a1a641bf00fa9348e23b81856040516105d7929190610e4f565b60405180910390a150610675565b6001600260003373ffffffffffffffffffffffffffffffffffffffff1673ffffffffffffffffffffffffffffffffffffffff16815260200190815260200160002060006101000a81548160ff0219169083151502179055507f537bd19321091e92b84027dfa451fb00c67517e8fd55625b55c9c3af982186d88360405161066c9190610cc8565b60405180910390a15b826000803373ffffffffffffffffffffffffffffffffffffffff1673ffffffffffffffffffffffffffffffffffffffff16815260200190815260200160002090805190602001906106c792919061090f565b50336001846040516106d99190610dd7565b908152602001604051809103902060006101000a81548173ffffffffffffffffffffffffffffffffffffffff021916908373ffffffffffffffffffffffffffffffffffffffff160217905550505050565b600060018260405161073c9190610dd7565b908152602001604051809103902060009054906101000a900473ffffffffffffffffffffffffffffffffffffffff169050919050565b6000600260008373ffffffffffffffffffffffffffffffffffffffff1673ffffffffffffffffffffffffffffffffffffffff16815260200190815260200160002060009054906101000a900460ff169050919050565b60606000808373ffffffffffffffffffffffffffffffffffffffff1673ffffffffffffffffffffffffffffffffffffffff168152602001908152602001600020805461081390610e1d565b80601f016020809104026020016040519081016040528092919081815260200182805461083f90610e1d565b801561088c5780601f106108615761010080835404028352916020019161088c565b820191906000526020600020905b81548152906001019060200180831161086f57829003601f168201915b50505050509050919050565b60008073ffffffffffffffffffffffffffffffffffffffff166001836040516108c19190610dd7565b908152602001604051809103902060009054906101000a900473ffffffffffffffffffffffffffffffffffffffff1673ffffffffffffffffffffffffffffffffffffffff1614159050919050565b82805461091b90610e1d565b90600052602060002090601f01602090048101928261093d5760008555610984565b82601f1061095657805160ff1916838001178555610984565b82800160010185558215610984579182015b82811115610983578251825591602001919060010190610968565b5b5090506109919190610995565b5090565b5b808211156109ae576000816000905550600101610996565b5090565b6000604051905090565b600080fd5b600080fd5b600080fd5b600080fd5b6000601f19601f8301169050919050565b7f4e487b7100000000000000000000000000000000000000000000000000000000600052604160045260246000fd5b610a19826109d0565b810181811067ffffffffffffffff82111715610a3857610a376109e1565b5b80604052505050565b6000610a4b6109b2565b9050610a578282610a10565b919050565b600067ffffffffffffffff821115610a7757610a766109e1565b5b610a80826109d0565b9050602081019050919050565b82818337600083830152505050565b6000610aaf610aaa84610a5c565b610a41565b905082815260208101848484011115610acb57610aca6109cb565b5b610ad6848285610a8d565b509392505050565b600082601f830112610af357610af26109c6565b5b8135610b03848260208601610a9c565b91505092915050565b600060208284031215610b2257610b216109bc565b5b600082013567ffffffffffffffff811115610b4057610b3f6109c1565b5b610b4c84828501610ade565b91505092915050565b600073ffffffffffffffffffffffffffffffffffffffff82169050919050565b6000610b8082610b55565b9050919050565b610b9081610b75565b82525050565b6000602082019050610bab6000830184610b87565b92915050565b610bba81610b75565b8114610bc557600080fd5b50565b600081359050610bd781610bb1565b92915050565b600060208284031215610bf357610bf26109bc565b5b6000610c0184828501610bc8565b91505092915050565b60008115159050919050565b610c1f81610c0a565b82525050565b6000602082019050610c3a6000830184610c16565b92915050565b600081519050919050565b600082825260208201905092915050565b60005b83811015610c7a578082015181840152602081019050610c5f565b83811115610c89576000848401525b50505050565b6000610c9a82610c40565b610ca48185610c4b565b9350610cb4818560208601610c5c565b610cbd816109d0565b840191505092915050565b60006020820190508181036000830152610ce28184610c8f565b905092915050565b7f4e487b7100000000000000000000000000000000000000000000000000000000600052603260045260246000fd5b7f4e487b7100000000000000000000000000000000000000000000000000000000600052601160045260246000fd5b6000819050919050565b6000610d5d82610d48565b91507fffffffffffffffffffffffffffffffffffffffffffffffffffffffffffffffff821415610d9057610d8f610d19565b5b600182019050919050565b600081905092915050565b6000610db182610c40565b610dbb8185610d9b565b9350610dcb818560208601610c5c565b80840191505092915050565b6000610de38284610da6565b915081905092915050565b7f4e487b7100000000000000000000000000000000000000000000000000000000600052602260045260246000fd5b60006002820490506001821680610e3557607f821691505b60208210811415610e4957610e48610dee565b5b50919050565b60006040820190508181036000830152610e698185610c8f565b90508181036020830152610e7d8184610c8f565b9050939250505056fea2646970667358221220813f6f4a33a70e8aa3b94ad8bf74a3792bdde22614ed9a50b6878aff34bc31d464736f6c634300080c0033",
  "linkReferences": {},
  "deployedLinkReferences": {}
}